S02600006170705F7261366D345F7072696D6172795F656E635F647370735F6F74612E7372656300
S214018200E0BE0020C5A10100CD9F0100C1A1010073
S214018210C1A10100C1A10100C1A10100C1A10100CC
S214018220000000000000000000000000858F010033
S214018230C1A10100000000009D8F01000590010012
S2140182401D880100459601004197010089970100AC
S2140182500000000000000000000000000000000018
S2140182600000000000000000000000000000000008
S21401827000000000000000000000000000000000F8
S21401828000000000000000000000000000000000E8
S21401829000000000000000000000000000000000D8
S2140182A000000000000000000000000000000000C8
S2140182B000000000000000000000000000000000B8
S2140182C000000000000000000000000000000000A8
S2140182D00000000000000000000000000000000098
S2140182E00000000000000000000000000000000088
S2140182F00000000000000000000000000000000078
S2140183000000000000000000000000000000000067
S2140183100000000000000000000000000000000057
S2140183200000000000000000000000000000000047
S2140183300000000000000000000000000000000037
S2140183400000000000000000000000000000000027
S2140183500000000000000000000000000000000017
S2140183600000000000000000000000000000000007
S21401837000000000000000000000000000000000F7
S21401838000000000000000000000000000000000E7
S21401839000000000000000000000000000000000D7
S2140183A000000000000000000000000000000000C7
S2140183B000000000000000000000000000000000B7
S2140183C00348044B834202D0034B03B1184770475E
S2140183D05C0000205C00002000000000064B0749FE
S2140183E0C91A891048BF0131491003D0044B0BB19B
S2140183F001481847704700BF5C0000205C00002061
S2140184000000000010B5064C237843B9FFF7D8FFEB
S214018410044B13B10448AFF300800123237010BD51
S214018420780000200000000014DB010008B5054BB1
S2140184301BB105490548AFF30080BDE80840FFF7CA
S214018440CDBF00BF000000007C00002014DB01004F
S21401845008B5054B01221A704FF0FF31034B18681F
S21401846002F078FB08BD00BF9500002098000020B0
S21401847000B583B0022804D00A4801F01DFA68B19D
S214018480FEE7F5238DF80730002301220DF10701E1
S214018490044801F039FA0028EED0FEE703B05DF893
S2140184A004FB00BF5043002030B583B001238DF894
S2140184B004306FF00044094D01A9284601F010FA76
S2140184C0024628B9013C06D09DF80430002BF3D1B2
S2140184D0104603B030BD1422FAE700BF5043002017
S2140184E000B583B01F4B1B68ADF804301B0C8DF82C
S2140184F0063003220021012002F04CF91A4B1860C5
S21401850028B11A491A4801F01DFA08B1FEE7FEE73C
S214018510002301221749164801F0F6F988B1002018
S214018520FFF7A6FF0023032201A9114801F0ECF989
S21401853078B10020FFF79CFF0B4B186803B05DF87D
S21401854004FBFFF7B1FF0028ECD00020FFF790FFF7
S214018550E8E7FFF7A9FF0028EED00020FFF788FF25
S214018560EAE700BF98CB01009800002054D4010030
S2140185705043002061D401002DE9F04731B30F4686
S21401858004460025DFF84C904FF48058DFF848A0E9
S2140185900AE0FFF789FF064698B9FFF759FF01354C
S2140185A004F58054BD4212D042462146484601F0A9
S2140185B02BF906460028ECD0BAF80000FFF758FF62
S2140185C0EBE7BAF80000FFF753FFE6E70026304670
S2140185D0BDE8F0875043002054D4010010B513467F
S2140185E00246044801F0F4F90446FFF731FF20463D
S2140185F010BD00BF504300200B4B1B7803B97047DA
S21401860010B50A4C21460A4801F06AF9237803B1ED
S21401861010BD0021044B19700B460A460548006838
S21401862002F006F9F4E700BF950000209400002050
S21401863050430020980000200123094A1375094A77
S21401864092F90520510902F01F02934001F1200220
S214018650054941F82230BFF34F8FBFF36F8F704744
S214018660A400002094D4010000E100E000B585B02C
S21401867003AB019300210091012302220848006800
S21401868003F058FB039B3BB1064B4FF080525A60F8
S214018690BFF34F8FBFF36F8F05B05DF804FB00BFCC
S2140186A0A000002000ED00E070B503F009F9144BBE
S2140186B01860012002F090F9124B18601249134815
S2140186C000F00CFE0646124C002525706560A5607C
S2140186D025612575E5601834204600F0A2F92B4681
S2140186E00C4A4FF48071204600F010FA2B460A4AD5
S2140186F043F6F071204600F00FFA304670BD00BF19
S214018700A00000209C00002094D4010060430020BB
S214018710A40000206D8601003986010008B50A46CE
S2140187200146024800F0A0F908BD00BFBC000020C9
S214018730114B1B7D03B9704700B583B00F4800F09D
S2140187408BF9B0F5805F0AD900210091012302223E
S2140187500B48006803F048FA03B05DF804FB094BC8
S21401876093F90530590903F01F03012202FA03F3B6
S214018770054A42F82130EFE7A4000020BC000020A3
S214018780A000002094D4010000E100E008B50248F2
S21401879000F062F908BD00BFBC000020094B0322AF
S2140187A01A701B7D03B9704700B583B00021009194
S2140187B0012302220448006803F016FA03B05DF8AC
S2140187C004FB00BFA4000020A00000200FB470B579
S2140187D0ADF5027D86AC54F8046B0E4D0A2128686F
S2140187E002F0B8F901942246314602A803F02AFDA8
S2140187F0024602A9084800F0F9FC00231A46194669
S214018800286802F015F80DF5027DBDE8704004B049
S214018810704700BF9C00002060430020F0B587B081
S214018820EFF30383103B5BB2774A03F1C00152F8C2
S214018830210020F4803042F8210052F82120734AAA
S21401884052F82340724DCCE0A37803F00303022BC9
S214018850236A07BF1B8AC3F308035B79DBB2059360
S214018860A269002A40F0A680626A002A00F0B2805F
S214018870DBB28DF80F302A78032A00F2AB80DFE8EE
S21401888002F002245F6E624A1269032A01D8A52B00
S21401889003D05F4B00221A619CE05D4B9918A5201E
S2140188A0087301321A61032A40F29480DB68B3F13F
S2140188B0A53F03D0564B00221A618BE0544B012290
S2140188C01A7000221A61DA6084E0514A1269032A9A
S2140188D005D84F498818037301320A617AE04D4E74
S2140188E001220DF10F01304600F0F1F856F80C3C6C
S2140188F01A0642EA1362190A01F47F410A431B026F
S21401890003F47F03134346F8103C002146F8081C85
S214018910022306F8183C04AB0193009101231A4682
S2140189203D48006803F006FA049B002B52D03B4BEF
S2140189304FF080525A60BFF34F8FBFF36F8F49E0FD
S214018940334E336901333361183601220DF10F01BD
S214018950304600F0BCF8304600F0E6F83AE02C4E1F
S21401896033690133336106F1180701220DF10F0156
S214018970384600F0ACF8384600F0D6F833690133D3
S214018980B268934226D300213161317004AB019362
S2140189900091012304222048006803F0CBF9049BD0
S2140189A0C3B11E4B4FF080525A60BFF34F8FBFF3D7
S2140189B06F8F0FE0A27802F0030205A9606903F049
S2140189C05BFCA37803F0030362691A446261A2693F
S2140189D0D21AA2612378A3B1236ADB8A13F01F0F90
S2140189E00CD02378002B3FF42FAF236ADA8A12F0DB
S2140189F01F0F03D01B8AC3F3080330E7236ABE2286
S214018A001A7107B0F0BD00BF006000409C4900200D
S214018A10A4000020BC000020A000002000ED00E023
S214018A20704700F5804000230380438043608360E5
S214018A30C3604361036183610377704700F580403B
S214018A4003889BB2408880B20133C3F30D0383428F
S214018A5014BF00200120704700F58040038842883B
S214018A60981AC0F30D00704770B504460E461546B9
S214018A7000F00EFBCDB106F1FF3C002004F580416D
S214018A800A8892B24B889BB29A420DD04B889BB211
S214018A900130E35C0CF8013F4B880133C3F30D034F
S214018AA04B808542ECD100E0054604F580421388F0
S214018AB051885B1AC3F30D0392689A4203D904F5F1
S214018AC080440023237700F00BFB284670BD2DE978
S214018AD0F0419046BAB107464E1E002400F5804587
S214018AE03846FFF7ABFF68B901342B889BB216F8FE
S214018AF0012FFA542B880133C3F30D032B80A045B5
S214018B00EED100E0A0464046BDE8F08100F5804089
S214018B104160C2600361704700F580408160426138
S214018B20836100230377704738B5044600F5804318
S214018B301D885A88AD1AC5F30D05DB6843B100F5EB
S214018B4080425268AA4203D800F5804211699847CC
S214018B5004F580435B697BB104F580429268AA42C2
S214018B600AD804F58042127F32B904F58042012109
S214018B70117791692046984738BDFFFF2DE9F843E4
S214018B80264B1E884EB1D3F8049009EB4606002505
S214018B90234FDFF89480234C08E0FEE783F3108828
S214018BA085F001054FF47A7002F0F0FCEFF31082C5
S214018BB0012383F310883B6823B988F803304023E8
S214018BC088F803303B6801333B6082F310884946DE
S214018BD031F8022B130A1B0153FA82F254F82230A1
S214018BE023F0011323F440432B4343F0040344F8DA
S214018BF02230B142ECD1EFF31083012282F31088C8
S214018C003A6812B13A68013A3A603A68002AC5D120
S214018C1088F80320802288F80320BFE744D80100A3
S214018C209849002000080840000D084080B584B02F
S214018C30FFF73AFDFFF754FC3748FFF7C7FD374B00
S214018C404FF0C0421A6002F03BFE354B18604FF001
S214018C50FF34002517E03348FFF7B8FDE0214FF059
S214018C60C040FFF789FC00B1FEE72F48FFF7AEFDD5
S214018C70FFF794FD12E000212C48FFF7A7FD039BA8
S214018C8013F0040F25D1009403AB2246294628464B
S214018C9002F04EFF039B13F0010FDCD1039B13F090
S214018CA0020FECD0224E4FF480713046FFF736FDAE
S214018CB01A4F4FF4807231463868FFF78FFC06462C
S214018CC03B6803F580733B60FFF732FD002ED2D080
S214018CD0FEE7FFF75BFD0446154D01462846FFF704
S214018CE01DFD224629460D4B1868FFF777FC00B19B
S214018CF0FEE74FF47A710A2001F020F9BFF34F8F97
S214018D000C49CA6802F4E0620B4B1343CB60BFF315
S214018D104F8F00BFFDE700BF9CCB0100DC40002069
S214018D20E0410020C4CB0100D8CB0100ECCB010010
S214018D30E040002000ED00E00400FA05022800D023
S214018D40704708B5024B5968024800F0C9FF08BDD4
S214018D5044D401004843002010B5044600F09AF8B8
S214018D602046FFF70BFF10BD00B585B00D4A13680E
S214018D70013313600C4B02930C4B019301230093B8
S214018D800B4B80220B490C4802F0ACF90B4B1860D8
S214018D9010B105B05DF804FB0021084600F078F834
S214018DA0F7E700BF4C490020E8410020E0BE002064
S214018DB040D40100FCCB0100598D0100E4410020A4
S214018DC000B583B003230093104B00221146012007
S214018DD001F09EFC0E4B186068B1002300930D4B0A
S214018DE00D4A0421142001F093FC0C4B186038B195
S214018DF003B05DF804FB0021084600F049F8ECE7F3
S214018E000021084600F044F8F2E700BFFC420020CB
S214018E1044430020B042002060420020F842002077
S214018E2010B5044600F036F82046FFF7FFFE10BDE9
S214018E3000B585B00D4A1368013313600C4B0293DD
S214018E400C4B0193022300930B4B4FF480520B49BA
S214018E500B4802F047F90B4B186010B105B05DF8EE
S214018E6004FB0021084600F013F8F7E74C49002000
S214018E7094430020E0C0002050D401000CCC010037
S214018E80218E01009043002008B5FFF799FF08BD29
S214018E9000BE704770B54FF0FF31184B186801F0EF
S214018EA059FE012803D1164B1B7833B170BD002142
S214018EB0124B1868FFF7ECFFF5E7114B01221A7009
S214018EC0FFF7E2FF0F4A1368013B1360002BEDD05A
S214018ED00A4E0024154604E02B68013B2B60002B4C
S214018EE0E4D0234622462146306801F0A1FC012841
S214018EF0F2D021463068FFF7CBFFEDE7444900206A
S214018F00484900204C49002008B500230C4A13604C
S214018F100C4A13700C4A01214FF4807001F06AFC70
S214018F200A4B186038B1FFF71FFFFFF781FF02F009
S214018F3027F9002008BD00210846FFF7A9FFF2E740
S214018F404C49002048490020FC48002044490020A4
S214018F50034B0360034B0B6080231360704700BF15
S214018F608448002084460020034B0360034B0B60BB
S214018F7080231360704700BF0C4600200C4400207D
S214018F8000BEFEE71EF0040F0CBFEFF30880EFF300
S214018F900980014908470000299001000F4B196814
S214018FA0EFF309821EF0100F08BF22ED108A22E9A6
S214018FB0F04FEFF30B8342F8043D0A604FF01000C8
S214018FC080F31188BFF34F8FBFF36F8F02F008FB5A
S214018FD04FF0000080F3118800F002B8949C002046
S214018FE0074801680A6802CA81F30B88B2E8F04FA5
S214018FF01EF0100F08BFB2EC108A82F30988704782
S214019000949C002010B5EFF31184102383F311888C
S21401901002F00CF918B1034B4FF080525A6084F3FA
S214019020118810BD00ED00E008B5836913F8023C15
S214019030022B02D0032B03D808BDFFF7D1FFFBE7B5
S214019040034B044A4FF47E71034800F06FFF00BFE4
S2140190501CCC0100ECD7010030CC010010B44FF05D
S214019060807440F8044C22F0010240F8082C074AAC
S21401907040F80C2C40F8203C6FF0020340F8243CEA
S214019080283140F8481D5DF8044B7047818F010078
S21401909008B5EFF31181102383F311880A4A136888
S2140190A001331360012B00D008BD084B1960084B33
S2140190B05B68C3F30803002BF6D0064B064A40F262
S2140190C0A441064800F032FF5449002050490020D0
S2140190D000ED00E058CC0100D8D7010030CC0100EB
S2140190E008B5094B1B6843B1013B074A13601BB91E
S2140190F0064B1B6883F3118808BD054B054A40F2F1
S214019100AD41054800F012FF5449002050490020A7
S214019110A0CC0100C4D7010030CC01000A4B1B686B
S2140191200A4AA2FB03239B09013BB3F1807F0AD2C3
S2140191304FF0E0225361064BF02183F82310002301
S2140191409361072313617047284B0020D34D6210AB
S21401915000ED00E008B50C4BF02283F82220FFF763
S214019160DDFF0A4A536B43F04043536362B6BFF3D5
S2140191706F8FEFF3148C2CF0040C8CF31488BFF370
S2140191806F8F02DF00BEFDE700ED00E000EF00E0BC
S21401919008B5EFF30383103B5BB2002B05DA0E4BE9
S2140191A0DB6813F4806F0FD108BD03F1604303F54C
S2140191B0614393F800331B09F1D1084B084A40F28A
S2140191C00F61084800F0B2FE074B054A40F22161E4
S2140191D0044800F0ABFE00BF00ED00E0B4CC010097
S2140191E0A4D7010030CC0100ECCC010010B4046A15
S2140191F0A37803F07B03A3700378CBB9837803F0DD
S2140192000303D21A0B440261C360026A937843F0E7
S2140192108003937003783BB9837803F00303022B32
S21401922008D0036A0A78DA7000205DF8044B7047AC
S2140192300B46E8E7026A0B8843F47E43D381F3E7E3
S21401924030B4540902F01F0301259D400E4B203413
S21401925043F82450BFF34F8FBFF36F8F0B4C02F1CF
S214019260C00C54F82C5025F4803544F82C5054F892
S2140192702C400901C9B2134483F80013044B43F888
S214019280220030BC704700BF00E100E000600040F3
S2140192909C49002070B584B005460E469446846A03
S2140192A0CCB194E80F000DF1100E0EE90F00EB693A
S2140192B01B782360A66084F804C0EB6AE3606B6ADF
S2140192C020469847AC6A24B104AB13E90F0084E842
S2140192D00F0004B070BD6C46E9E7FFFFF8B5044621
S2140192E00D460B7801229A4012F0060F06D0CA6985
S2140192F05268127812F0080F40F0958103F580034A
S21401930003F58C531B02236200222270297840F257
S214019310F933CB4003F001031B012370E5616B6950
S2140193206362AB69E362A262A378012262F301037E
S214019330A3706B78002B08BF0222A37862F30103A7
S214019340A37095F90B20A97A2046FFF779FF95F9C6
S214019350052029792046FFF773FF95F90720A9799B
S2140193602046FFF76DFF95F90920297A2046FFF779
S21401937067FFEFF31080012383F31088AB4B5A6825
S2140193802E784FF00041F14022EA01025A605B68F4
S21401939080F31088226A00239370226A1371226A6E
S2140193A05372226A9372226AD372226A53832A788C
S2140193B040F2F933D34013F0010F02D0236A402262
S2140193C0DA74236A06221A772278AAB1013AE36987
S2140193D0DB691B7A13401B0203F47063120392B21B
S2140193E0134343F00101226A43F007039382226A82
S2140193F0938A9BB29942FBD1AA78EB78DB0043EAC9
S21401940002136A78032A00F0B880002A0CBFE22211
S214019410F222216ADBB20B70216AD3B28B71E96941
S2140194200B7B082B00F0AD80226A5B0003F0020381
S21401943053734B78DB01DBB28A78520102F02002CB
S2140194401343226A002010720A78023AD2B2012A25
S21401945000F29B80226AFF2050700A78022A08BF19
S21401946043F01003226ADBB2D3710026E660266160
S2140194706661A661E869017801F00301E36993F981
S21401948005306B4A03F1C00552F8257066F31047A4
S21401949042F8257052F82550BFF35F8F03F01F077F
S2140194A0012505FA07F75B099B0003F1604303F505
S2140194B06143C3F880711F60E36993F90B3003F1D0
S2140194C0C00752F827C066F3104C42F827C052F87E
S2140194D02770BFF35F8F03F01F0705FA07F75B09D5
S2140194E09B0003F1604303F56143C3F880711F607D
S2140194F0E36993F9073003F1C00752F827C066F312
S214019500104C42F827C052F82770BFF35F8F03F064
S2140195101F0705FA07F75B099B0003F1604303F594
S2140195206143C3F880711F60E36993F9093003F161
S214019530C00752F827C066F3104C42F827C052F80D
S2140195402720BFF35F8F03F01F0295405B099B0046
S21401955003F1604303F56143C3F880511D6041F098
S2140195607001236A9970438923814FF6FF729342F3
S21401957022D1304B63600020F8BD43F04003F22255
S21401958047E7236A0A225A7353E7226ADBB2D3718A
S214019590236A4A68917859705078197860F3010106
S2140195A01970D1789974D979127802F05C0201F0B9
S2140195B0A3010A43DA7158E7EFF31082012383F31C
S2140195C010881D4B1B681BB91C4BDE704021D970DF
S2140195D019490B6801330B6082F310882289130A3C
S2140195E017481B0153FA82F250F8223023F0011378
S2140195F023F4404343F0040340F82230EFF3108392
S214019600012282F310880A6812B10A68013A0A60D8
S214019610094A126822B9094A0021D1708021D17005
S21401962083F31088A5E70320A6E700BF00400840A3
S214019630006000405549435398490020000D0840FA
S2140196400008084008B5EFF30383103B5BB23A4AC3
S21401965003F1C00152F8210020F4803042F82100C5
S21401966052F82120354A52F82300C3691B691BB101
S2140196700369002B4ED008BD0369002B4AD003783E
S214019680002B2DD0026AD18AC1F3042199421AD344
S214019690026A137903F07D0343F002031371E7E7CF
S2140196A0026AC3681B8843F47E43D381837803F040
S2140196B003030269D21A0261C2681A44C260013108
S2140196C003788B42E4D90369002BE1D0837803F059
S2140196D00303022BE4D0036AC2681278DA73E5E763
S2140196E0837803F00303022B0DD0036AC268127855
S2140196F0DA70837803F003030269D21A0261C26842
S2140197001A44C260B4E7026AC3681B8843F47E4306
S214019710D381EEE7026A937803F07F0343F00403F4
S21401972093700023C360436A002BA4D080220021DB
S214019730FFF7B0FD9FE700BF006000409C49002096
S21401974010B5EFF30383103B5CB20D4B53F82400C6
S214019750026A937803F07B039370436A1BB102227B
S2140197600021FFF797FD074A04F1C00352F82310C2
S21401977021F4803142F8231052F8233010BD00BF87
S2140197809C4900200060004010B5EFF30383103BB6
S2140197905CB21B4B53F82400037843B9837803F07B
S2140197A00303022B03D0036A5979C9B203E0036AA3
S2140197B0198AC1F30801036A93F804C00CF0380251
S2140197C01CF0100F06D093F81CC01CF0010F08BF48
S2140197D042F0400293F804C00CF0C70C83F804C0B2
S2140197E0436A0BB1FFF756FD064A04F1C00352F86F
S2140197F0231021F4803142F8231052F8233010BD93
S2140198009C49002000600040F0B44FF0C843D3F8F4
S214019810045803689C7C002C42D05B694FF0000C16
S2140198205E68964229D00CF1010C0833A445F7D1A5
S2140198304FF0C842012353610468647B146153618D
S2140198400023136105F1204319440368DB7803F014
S2140198500303032B1FD0C1F307424FF0C8431A611D
S214019860C1F307221A61C9B219614FF0C843012238
S2140198705A6100205861F0BC70471E884FF0C844FA
S2140198800123636107687F7B276163612661B2F10B
S214019890FF3FEAD0D6E70B0E4FF0C8421361DAE776
S2140198A04FF0C84301225A610468647B1C615A6107
S2140198B000221A61C6E7FFFF03460020D860EFF3D7
S2140198C01081012383F31088044B5A6842F040024A
S2140198D05A605B6881F31088704700BF00400840FB
S2140198E010B44FF0C8420124546103689B7B136196
S2140198F0136900688079C340234054610020506199
S2140199000B705DF8044B704710B44FF0C84001244B
S21401991044615AB110464A1E013801444FF0C84C02
S21401992012F8010FCCF810008A42F9D12BB94FF08A
S214019930C84301225A6100225A6100205DF8044B97
S2140199407047FFFF10B40246EFF31084012383F340
S21401995010881D4B586820F0400058605B6884F3FF
S21401996010888C694FF0C8430020986118625863CC
S214019970C3F80408088840F01000186360789860FF
S214019980C87858620B79FF2B14BF023B002343F4BF
S2140199907F434FF0C8408362237843F0300343602F
S2140199A08B7843F04003036011608B7823B1B3FAE0
S2140199B083F3C3F11F03DBB2137100209060034BE6
S2140199C0D3605DF8044B704700400840495053513E
S2140199D030B54FF0C84CDCF8044804F1204E724410
S2140199E00124CCF8144005686D7BCCF81050CCF8F7
S2140199F014400468247BCCF810400068C07800F05E
S214019A00030003281AD0C2F307444FF0C84004618C
S214019A10C2F307240461D2B2026143B14A1E0B4469
S214019A20013B014612F8010F08619A42FAD14FF044
S214019A30C84301225A610020586130BD100ECCF88F
S214019A401000E0E703460020186070470B0A1B0170
S214019A5053FA81F1034B53F82130C3F340031370DB
S214019A600020704700080840090A490101F18041B9
S214019A7001F500214B68138000207047090A49014F
S214019A8001F1804101F5002123EA02001A4042EA71
S214019A9000428A6000207047CBB20120984080B215
S214019AA062B9024600200B0A5B0103F1804303F50D
S214019AB0002340EA02409860002070470022F2E747
S214019AC010B4090A490101F1804101F500210C6831
S214019AD002EA0300204362EA030202400A60002011
S214019AE05DF8044B7047090A490101F1804101F50F
S214019AF000214B68C3F30F431380002070470B0A05
S214019B005B0103F1804303F500235868C9B20123C2
S214019B108B4099B203EA10438B4214BF0023012302
S214019B20137000207047090A490101F1804101F5CF
S214019B30002123EA02001A4042EA0042CA600020DD
S214019B4070470B0A5B0103F1804303F50023C8B29B
S214019B5001218140D868012A07BF20EA014001435C
S214019B60884340EA0141D9600020704710B411F4DF
S214019B70803F0ED0030A0C4A1B0153FA80F352F8B9
S214019B80234024F4803442F8234021F4803442F800
S214019B902340030A1B0153FA80F0034B43F82010BD
S214019BA05DF8044B704700BF000808402DE9F84FE8
S214019BB00388002B4BD007464FF00008DFF898A02B
S214019BC04FF001093EE09AF8BB2409FA04F35FFA64
S214019BD083FB134224D00134032C2ED07B689919C1
S214019BE035F8022B89889142F5D19B5903F0B85379
S214019BF0B3F1807FE7D09AF8BB2409FA04F35FFA41
S214019C0083FB1342E7D0484600F08CFA9AF8BB343F
S214019C1023EA0B038AF8BB34484600F051FADAE728
S214019C20484600F07FFA9AF8BB3443EA0B038AF8F9
S214019C30BB34484600F044FACDE708F101083B88FA
S214019C40434504D94FEAC806024D0024C6E7BDE8DD
S214019C50F88F00BF00D8010000E0014038B5054686
S214019C60FFF7A4FFEFF31081012383F310881A4B4B
S214019C701B6823B9194B0022DA704022DA70164AA3
S214019C8013680133136081F310882B886BB10024AD
S214019C906B6803EBC40253F834109088FFF766FF35
S214019CA001342A88A3B29A42F2D8EFF31083012234
S214019CB082F31088084A12681AB107490A68013AFD
S214019CC00A60054A126822B9044A0021D17080212F
S214019CD0D17083F3108838BD98490020000D0840E4
S214019CE008B5034B03600846FFF7B8FF002008BD20
S214019CF054524F5008B50846FFF7B0FF002008BD84
S214019D0070B586B00C461546ADF8081001920126CE
S214019D10ADF80C6001AB049303A8FFF747FFEFF320
S214019D20108286F31088144B1B6823B9134B00214D
S214019D30D9704021D970104E33680133336082F3F5
S214019D40108829462046FFF711FFEFF31083012202
S214019D5082F31088326812B13268013A3260064ADC
S214019D60126822B9054A0021D1708021D17083F38F
S214019D701088002006B070BD98490020000D0840EC
S214019D80064B93F826101A6AC2F30262044B53F884
S214019D902130D340034A1360704700BF00E0014002
S214019DA05C000020284B00207047FFFF10B5554B84
S214019DB04AF20352A3F8FE23A3F500530122A3F8A7
S214019DC004211A46B2F804319BB2002BFAD10123C2
S214019DD04D4AA2F80031A2F5A832936013604B4BAE
S214019DE04B4A1A604B4A5A604FF400429A604A49FD
S214019DF0D9601A61494A5A61494A9A61FFF7C0FF18
S214019E00404B002283F81324092283F8A22093F8FA
S214019E1080342BB93B4B93F8813413F0030F6BD08E
S214019E20384B93F88034002B58D0364B002283F8F9
S214019E30812483F88024334B002283F832201A468B
S214019E4092F83C3013F0080FFAD02E4B42F2017212
S214019E50A3F84820002283F84A2043F2021119850C
S214019E6083F82A201A4692F83C3013F0200FFAD0D5
S214019E70254B032283F81C21224C2A4B23620523FF
S214019E8084F82630FFF77CFF274AF123137301235A
S214019E901372F021117384F8303084F8523094F83C
S214019EA0743043F0400384F87430224692F87430DC
S214019EB0DB09FBD0134B062283F86C20462183F87E
S214019EC0741083F874201A4692F87430DB09FBD1BB
S214019ED00C4B4FF42542A3F8FE2310BD0121094B7C
S214019EE083F88014C82000F029F8064A92F88034D6
S214019EF0DBB2012BFAD198E74FF47A70FFF754FFE3
S214019F0099E700BF00E0014000C001405C0000206E
S214019F10002D310100127A0000366E0100C2EB0BF3
S214019F20001C4E0E211201200020004000BEFEE75C
S214019F30A0F101000028FBD17047FFFF08B500FB28
S214019F4001F1204B1B682048B0FBF3F0CA0E4B0111
S214019F505B1A62F10002920042EA93729B005B1860
S214019F6042F10002D20042EA5372DB004FF0FF3C9E
S214019F709C454FF0000C7CEB020C06D3B3FBF0F3D0
S214019F80980808B1FFF7D4FF08BD8000B1FBF0F1D7
S214019F90CA0E4B015B1A62F10002920042EA93720A
S214019FA09B005B1842F10002D20042EA5372D800CD
S214019FB04FF0FF3383424FF000039341E1D24FF05D
S214019FC0FF30DFE7284B002000CA9A3B70B50E4BE6
S214019FD0B3F82021B3F84051ADB2154000240B4E22
S214019FE004E0E0B298470134102C09D025FA04F3B6
S214019FF013F0010FF7D056F82430002BF1D1F2E719
S21401A000014BA3F8305170BD006000405849002054
S21401A01030B585B0032000F085F8254B6FF0FF02C0
S21401A0209A644FF0FF33019302930393214C04F19A
S21401A030C005234600224FF0010E02E00132AB427A
S21401A04012D033F8021F0029F8D0510904A800EBFA
S21401A050810102F01F0C0EFA0CFC51F80C0C20EAE0
S21401A0600C0041F80C0CE9E7019A114B1A671249EA
S21401A070C1F88022029959674FF0E022C2F8841392
S21401A08003999967C2F88813032000F019F8002392
S21401A0900A4802E00133AC4208D034F8022F002A05
S21401A0A0F8D003F1C00140F82120F3E705B030BD38
S21401A0B000800040E2D6010000E100E000600040C0
S21401A0C0EFF31082012383F31088134B33F810301B
S21401A0D09BB233B1104931F81030013B9BB221F8E5
S21401A0E010300D4B33F810309BB293B910B40B49B6
S21401A0F0B1F8FE339BB20A4C34F8100043F4254302
S21401A10023EA0003A1F8FE3382F310885DF8044BBE
S21401A110704782F3108870471C4B002000E0014016
S21401A1203CD8010010B4EFF31081012383F31088AB
S21401A1300F4B33F810309BB26BB90E4AB2F8FE33B0
S21401A1409BB20D4C34F810C043EA0C0343F425438C
S21401A1509BB2A2F8FE33064A32F8103001339BB2A6
S21401A16022F8103081F310885DF8044B704700BF69
S21401A1701C4B002000E001403CD8010008B5034616
S21401A1800C4A12685AB10B4A1068033323F00303D2
S21401A1900344094A934206D8064A136008BD054A95
S21401A1A006491160EFE702F05FF80C2303604FF0F9
S21401A1B0FF30F3E7244B0020E0AE0020E09E0020B5
S21401A1C000BE704708B500F003F8FEF79DFEFEE7F7
S21401A1D070B52B4B4FF47002C3F88820294C9C6055
S21401A1E00020FEF7ABFDFFF7E1FD0120FEF7A6FD1F
S21401A1F02368A3F5805383F30A882348234A121A57
S21401A200002102F029F82248224A121A224902F0B5
S21401A21033F8224B224A9B1A002B08DD9E10154666
S21401A220002455F8043B98470134A642F9DCFFF7B1
S21401A230A7FD0320FFF776FF00231A484FF6FF71AC
S21401A24003F1080220F812100133092BF8D103207C
S21401A250FFF736FF0320FFF765FF134B00245C6012
S21401A2609C60DC601C610320FFF72AFF0220FEF7DA
S21401A27065FDFFF7CDFE204600F018F870BD00BF63
S21401A28000ED00E00082010078000020DC9E002046
S21401A290000000205C00002040DB01005800002088
S21401A2A054000020000D084000000E407047FFFFDC
S21401A2B010B4154B1A461B688342FBD35468111918
S21401A2C088420AD0446801198B4210D0036082424A
S21401A2D000D010605DF8044B70474168214451601E
S21401A2E00C4611448B4201D01360F3E71046074930
S21401A2F009688B4205D05B682344436013681B687A
S21401A300E4E70B46E2E700BF404B00203C4B002051
S21401A31070B5044600F07CFF424B1B68ABB1631E70
S21401A32013F10A0F0CD804F1080114F007036FD0DB
S21401A330A3F109028A4203D31034E11A002969DC29
S21401A34001F050F80025284670BD374A12F0070F75
S21401A3501AD0D11D21F0070102F5A042531A0A4670
S21401A36032480260002141601344083B23F0070392
S21401A3702C48036059601960991A516013602C4B80
S21401A38019602C4B1960CAE74FF4A043E8E7224650
S21401A3901C4663688B4202D22368002BF7D1214BFF
S21401A3A01B68A342CCD01568083523681360636820
S21401A3B05B1A102B07D9601810F0070F22D14360E3
S21401A3C06160FFF775FF6268B61A1A490E60184990
S21401A3D009688E423CBF16490E6042F00042626038
S21401A3E000232360144A13680133136000F0FAFF58
S21401A3F015F0070FA7D0114B114A4FF4977111486A
S21401A400FFF794FD104B0E4AEE210E48FFF78EFD26
S21401A410002995DB074B1E688E4291D3034A1468C8
S21401A420B7E700BF3C4B0020484B0020404B0020C4
S21401A430344B0020384B0020304B00208CCD0100DF
S21401A44060D801004CCD010018CD010070B338B5BD
S21401A4500446A0F1080550F8043C002B18DA50F821
S21401A460082CE2B923F0004340F8043C00F0D0FE8B
S21401A4700F4A54F8043C11680B4413602846FFF752
S21401A48017FF0C4A13680133136000F0ABFF38BDA9
S21401A490094B0A4A40F241110948FFF747FD094BAB
S21401A4A0064A4FF4A1710648FFF740FD704700BF0A
S21401A4B0384B00202C4B0020C8CD010054D8010099
S21401A4C04CCD01003CCE010000F1080343604FF083
S21401A4D0FF328260C360036100230360704700237C
S21401A4E00361704730B40D68B5F1FF3F11D000F13C
S21401A4F008031C465B681A68AA42FAD963684B606F
S21401A50099608C606160086103680133036030BC48
S21401A51070470469F2E70369416882688A604168A6
S21401A52051605A68824204BF82685A600022026102
S21401A5301A68013A1A601868704710B50446FEF7A3
S21401A540A7FDA46BFEF7CCFDB4FA84F0400910BD5C
S21401A55070B504461546866B026C5AB903681BB182
S21401A56000200136A66370BD806801F017FA00234B
S21401A570A360F6E76DB9406801F07EFE6368226C61
S21401A58013446360A268934219D323686360284624
S21401A590E7E7C06801F070FE226C5142E3689B1A3F
S21401A5A0E3602268934202D2A3680B44E360022D63
S21401A5B001D00020D5E726B1013E0020D1E728468C
S21401A5C0CFE70020CDE70346026C6AB110B5084616
S21401A5D0D9681144D9609C68A14224BF1968D96022
S21401A5E0D96801F049FE10BD704770B50546FEF703
S21401A5F04FFD95F8454064B2002C0FDD05F12406A9
S21401A60002E0013C64B24CB16B6A3BB1304601F0EA
S21401A61085F80028F5D001F04DF9F2E7FF2385F81B
S21401A6204530FEF75DFDFEF733FD95F8444064B214
S21401A630002C0FDD05F1100602E0013C64B24CB1BE
S21401A6402B693BB1304601F069F80028F5D001F0DE
S21401A65031F9F2E7FF2385F84430FEF741FD70BD7E
S21401A66038B520B30D460446C36B002B3ED0026CB2
S21401A670A2FB0323002B39D1FEF70AFD2268216CC9
S21401A680E36B01FB03F3D018A0600020A0636260B7
S21401A6905B1A1A44E260FF2384F8443084F845309C
S21401A6A0DDB9236953B9FEF71BFD012038BD134BF5
S21401A6B0134A4FF497711348FFF738FC04F1100062
S21401A6C001F02CF80028EED00F4B4FF080525A6064
S21401A6D0BFF34F8FBFF36F8FE5E704F11000FFF76D
S21401A6E0F3FE04F12400FFF7EFFEDCE7074B044A14
S21401A6F040F263110348FFF719FC00BF64CE010066
S21401A70010D901006CCE010000ED00E098CE0100EA
S21401A71030B583B0B3B10D461C4650B3CAB141B390
S21401A72048230193019B482B1CD1019B012184F8EE
S21401A73046102260E06325642046FFF791FF20461D
S21401A74003B030BD0E4B0F4A40F277110E48FFF7AB
S21401A750EDFB71B948230193019B482B02D1019B64
S21401A7602246E3E7094B074A40F289110648FFF7FC
S21401A770DDFB074B034A4FF4D0710348FFF7D6FBC6
S21401A780BCCE0100F4D801006CCE0100CCCE010095
S21401A790E8CE010070B5F8B10C460646A1FB0023D1
S21401A7A0D3B901FB00F010F1490F15D84830FFF777
S21401A7B0AFFD054660B1002380F8463054B100F184
S21401A7C048032B60EE632C6401212846FFF748FFFF
S21401A7D0284670BD0346F4E7034B044A40F21521B0
S21401A7E00348FFF7A3FB00BFE8CE0100E0D8010055
S21401A7F06CCE010010B582B068B10C461346884293
S21401A80009D30222009200221146FFF781FF00B110
S21401A810846302B010BD034B034A40F2473103483C
S21401A820FFF784FBF4CE0100BCD801006CCE01001A
S21401A8302DE9F04784B00192A8B189461D46044629
S21401A840C1B1022D02D1E36B012B1DD101F03EF8FF
S21401A850074600BB019BFBB1524B534A40F2823183
S21401A8605248FFF763FB524B4F4A40F27D314F4847
S21401A870FFF75CFB036C002BE3D04E4B4A4A40F2D9
S21401A8807E314A48FFF752FB4B4B474A40F27F3135
S21401A8904648FFF74BFB00270026DFF8208132E011
S21401A8A02A4649462046FFF753FE636A73B938B114
S21401A8B0424B4FF080525A60BFF34F8FBFF36F8FFA
S21401A8C0FEF70EFC012004B0BDE8F08704F1240079
S21401A8D000F024FF0028F3D0384B4FF080525A6026
S21401A8E0BFF34F8FBFF36F8FEAE7FEF7F9FB002048
S21401A8F0E9E702A800F08AFF12E02046FFF775FE9E
S21401A90000F070FD0127FEF7C3FBA26BE36B9A42D2
S21401A910C6D3022DC4D0019B002BE6D0002FE8D071
S21401A920FEF7DEFB00F074FCFEF7B2FB94F8440081
S21401A93040B2B0F1FF3F08BF84F8446094F8450088
S21401A94040B2B0F1FF3F08BF84F84560FEF7C8FB90
S21401A95001A902A800F066FFE8B9FEF799FBD4F852
S21401A96038A0E76BFEF7BCFBBA45C6D1019904F1E6
S21401A970100000F089FE2046FFF737FE00F032FD9A
S21401A9800028BFD14FF08053C8F80430BFF34F8F73
S21401A990BFF36F8FB6E72046FFF727FE00F022FDD4
S21401A9A0002090E7A4CF0100A8D801006CCE0100DA
S21401A9B064CE0100FCCE010054CF010000ED00E0A2
S21401A9C048B108B5002181600160C1600B460A46A6
S21401A9D0FFF72EFF08BD704710B502460021012083
S21401A9E0FFF7D8FE0446FFF7EBFF204610BDFFFF3A
S21401A9F02DE9F04385B0019278B18846044699B1B5
S21401AA0000F064FF0746C8B9019BC3B14B4B4C4AE3
S21401AA1040F2A5514B48FFF789FA4B4B484A40F2A2
S21401AA209C514848FFF782FA036C002BE8D0474B4D
S21401AA30434A4FF4B4614348FFF778FA00270025EC
S21401AA40DFF80C9135E041462046FFF7BCFD731E4A
S21401AA50A36323692BB9FEF743FB012005B0BDE8CC
S21401AA60F08304F1100000F059FE0028F3D0384BB3
S21401AA704FF080525A60BFF34F8FBFF36F8FEAE7F4
S21401AA80FEF72EFB0020E9E702A800F0BFFE1AE061
S21401AA902046FFF7AAFD00F0A5FC09E02046FFF7D7
S21401AAA0A4FD00F09FFC2046FFF747FD002842D199
S21401AAB00127FEF7EDFAA66B002EC4D1019B002BF1
S21401AAC0DED0002FE0D0FEF70BFB00F0A1FBFEF777
S21401AAD0DFFA94F844305BB2B3F1FF3F08BF84F865
S21401AAE0445094F845305BB2B3F1FF3F08BF84F899
S21401AAF04550FEF7F5FA01A902A800F093FE0028DA
S21401AB00CCD12046FFF719FD0028C1D0019904F1E8
S21401AB10240000F0B9FD2046FFF767FD00F062FC57
S21401AB200028C5D14FF08053C9F80430BFF34F8FCA
S21401AB30BFF36F8FBCE7002090E700BFA4CF0100F2
S21401AB4098D801006CCE010078D0010084D00100B5
S21401AB5000ED00E02DE9F04184B0019180B104469A
S21401AB60036CA3B900F0B2FE0646B8B9019B804655
S21401AB70BBB15B4B5B4A40F237615B48FFF7D6F9E6
S21401AB805A4B584A40F22E615748FFF7CFF9584BB7
S21401AB90544A40F232615448FFF7C8F94FF00008B2
S21401ABA046460025534F43E0013BA36323684BB160
S21401ABB023695BB9FEF794FA4FF00108404604B0EA
S21401ABC0BDE8F08100F0A6FFA060F1E704F11000F7
S21401ABD000F0A4FD0028EDD0464B4FF080525A609D
S21401ABE0BFF34F8FBFF36F8FE4E7FEF779FA4FF0AD
S21401ABF00008E3E702A800F009FE23E0FEF748FAA2
S21401AC00A06800F073FE8046FEF76AFA40E0204630
S21401AC10FFF7EBFC00F0E6FB09E02046FFF7E5FC5A
S21401AC2000F0E0FB2046FFF788FC002844D101260F
S21401AC30FEF72EFAA36B002BB6D1019B002BD4D0C6
S21401AC40002ED7D0FEF74CFA00F0E2FAFEF720FA13
S21401AC5094F844305BB2B3F1FF3F08BF84F8445028
S21401AC6094F845305BB2B3F1FF3F08BF84F8455016
S21401AC70FEF736FA01A902A800F0D4FD0028CCD1CF
S21401AC802046FFF75AFC0028C1D02368002BB5D018
S21401AC90019904F1240000F0F7FC2046FFF7A5FC1B
S21401ACA000F0A0FB0028C2D14FF080537B60BFF3B9
S21401ACB04F8FBFF36F8FBAE7B8F1000F3FF47EAF47
S21401ACC0FEF7E6F9616A19B1236B1968C1F105014E
S21401ACD0A06800F0BDFEFEF703FA4FF000086DE72E
S21401ACE0A4CF010084D801006CCE010078D0010009
S21401ACF0F8CF010000ED00E070B530B1044609B3AD
S21401AD00114B002002461D460EE0104B104A40F63D
S21401AD1015311048FFF70AF90B4800EBC2000FE0A7
S21401AD20013208330A2A0AD05E68A642F4D0002807
S21401AD30F6D155F83260002E08BF1846F0E708B184
S21401AD400160446070BD00BF489B0020E0D0010058
S21401AD5070D801006CCE010070B504460D4616464B
S21401AD60FEF796F994F844305BB2B3F1FF3F04BFA7
S21401AD70002384F8443094F845305BB2B3F1FF3FCA
S21401AD8004BF002384F84530FEF7AAF9A36B1BB174
S21401AD902046FFF72AFC70BD3246294604F12400FE
S21401ADA000F08EFCF4E7FFFF074B1B681B6823B916
S21401ADB0064B4FF0FF321A607047034B1B68DB6887
S21401ADC01A68024B1A607047049C00209C9B002066
S21401ADD02DE9F84307469846089DDDF824900A9C1D
S21401ADE002F18042013A266B06EB820626F0070640
S21401ADF071B10846013904F133031F3011F9012FEF
S21401AE0003F8012F0AB18142F8D1002384F85330A8
S21401AE10042D1BD8E5626565201DFFF760FB04F174
S21401AE201800FFF75CFB2461C5F10505A5616462A6
S21401AE3043463A46216B3046FEF710F92060B9F1D9
S21401AE40000F01D0C9F80040BDE8F883034B044A5F
S21401AE5040F296310348FFF769F800BF1CD10100A4
S21401AE607CDA0100F0D0010070B50446FEF710F957
S21401AE70354A136801331360344B1B68002B3FD0EF
S21401AE80334B1B683BB9314B1B68DA6AE36A9A425B
S21401AE909CBF2E4B1C602F4A136801331360E36A74
S21401AEA02D4A1268934284BF2B4A13602B4A03EB48
S21401AEB0830302EB83035B68A3609868E060211D4F
S21401AEC041609960E36A03EB8301880002EB81012C
S21401AED06161115801311150FEF702F91C4B1B68D4
S21401AEE06BB11A4B1B68DA6AE36A9A4207D21C4BAB
S21401AEF04FF080525A60BFF34F8FBFF36F8F70BD14
S21401AF00124B1C601368012BC5D1144D05F1640664
S21401AF102846FFF7D9FA1435B542F9D1114E304615
S21401AF20FFF7D2FA104D2846FFF7CEFA0F48FFF783
S21401AF30CBFA0F48FFF7C8FA0E48FFF7C5FA0E4BD3
S21401AF401E600E4B1D60A6E7BC9B0020949C002053
S21401AF50B09B0020A09B0020B49B0020309C0020CA
S21401AF6000ED00E01C9C0020089C0020EC9B0020CB
S21401AF70D89B0020C09B0020049C0020009C002041
S21401AF8010B5044690F8753023B1012B09D0022B79
S21401AF900AD110BD006BFFF759FA2046FFF756FAA3
S21401AFA0F7E7FFF753FAF4E7034B044A40F6D97183
S21401AFB00348FEF7BBFF00BF30D101006CDA010089
S21401AFC0F0D0010070B504460D46254B1E68254B92
S21401AFD018680430FFF79FFAB4F1FF3F0DD03444F0
S21401AFE0204B1B685C60A6421CD91F4B18681D4B82
S21401AFF019680431FFF776FA70BD0DB31B4A516824
S21401B000184B1868816018688C68C460186804302A
S21401B01060601868043088601B685A6113680133E1
S21401B0201360E9E7124B18680E4B19680431FFF7F5
S21401B03059FA104B1B68A342DED90E4B1C60DBE7A6
S21401B040731E084A126853609E42CED8084B186891
S21401B050044B19680431FFF745FA064B1B68CBE72A
S21401B060B89B0020949C0020009C0020C09B0020E0
S21401B070049C00209C9B002080B5154C154F164E55
S21401B08009E0164B4FF080525A60BFF34F8FBFF363
S21401B0906F8FFDF7B1FA2368A3B1FDF7F9FFFB68DF
S21401B0A0DD68281DFFF737FA3368013B33602368F4
S21401B0B0013B2360FEF714F82846FFF761FF23687B
S21401B0C0002BEAD1064B1B68012BDAD8E1E700BF5B
S21401B0D0D49B0020D89B0020BC9B002000ED00E004
S21401B0E0309C00202DE9F04387B00F9E109C3EB3A4
S21401B0F00546894690461F464CB378230493049B25
S21401B100782B2BD1049B78220021204601F0A4F84D
S21401B1102663022384F8753000230393029405AB5B
S21401B12001930E9B00933B46424649462846FFF74D
S21401B1304FFE2046FFF798FE059807B0BDE8F0835E
S21401B1400A4B0B4A40F243210A48FEF7EFFE0A4B30
S21401B150074A4FF411710748FEF7E8FE074B044A09
S21401B1604FF413710348FEF7E1FE00BF64D10100FE
S21401B17094DA0100F0D0010084D10100A0D10100D1
S21401B18010B588B000240594069407AA06A905A858
S21401B190FDF7DEFE059B0293069B01930094234672
S21401B1A0079A12491248FFF79DFF30B100F0FEFFE3
S21401B1B0012806D0B0F1FF3F11D00E4B1B6808B036
S21401B1C010BD012383F310880B4A4FF0FF31116045
S21401B1D00A4A13600A4B1C60FDF7BCFFEDE7094BFA
S21401B1E0094A4FF402610948FEF7A0FEE8D10100C2
S21401B1F079B00100A8DA01009C9B0020B09B0020DA
S21401B200B89B0020F0D101004CDA0100F0D001001B
S21401B210024A136801331360704700BF989B0020F1
S21401B220014B1868704700BFB89B00202DE9F84312
S21401B2305E4B1B68002B40F0B2805D4B1C680134EE
S21401B2401C607CB95B4B1B681B68E3B9594A1168E3
S21401B250594B186810601960584A13680133136017
S21401B260FFF7A2FD564B1B68A34200F29180514B9B
S21401B2701B681B6873B100204E490546514E524A61
S21401B280DFF85C9145E0514B514A40F6F4215148B4
S21401B290FEF74CFE00204A4B4FF0FF321A6078E072
S21401B2A0474BC3F800C074E0D3F82CE0D6F8008012
S21401B2B0C64588BFC6F800E00EEB8E0E02EB8E0E7A
S21401B2C0DEF804E0C3F808E0DEF80880C3F80C8076
S21401B2D0C8F804C0CEF808C0D3F82CC00CEB8C0E0E
S21401B2E002EB8E08C3F8148052F82EE00EF1010E20
S21401B2F00CEB8C0C42F82CE0D9F800E0D3F82CC00B
S21401B300DEF82C309C4588BF01200B681B68002B9B
S21401B310C1D00B68DB68DB68D3F804C06445BFD3D3
S21401B320D3F814E0D3F80CC09F68C7F808C09F682C
S21401B330CCF8047003F1040CDEF80470674504BF12
S21401B340DF68CEF804705D61DEF8008008F1FF3832
S21401B350CEF80080D3F828E0BEF1000FA4D0D3F8D1
S21401B3602080DF69C7F80880DF69C8F8047003F138
S21401B3701808DEF80470474504BF1F6ACEF804704B
S21401B3809D62DEF8008008F1FF38CEF800808BE77A
S21401B3900020114B1B68002B18BF012004E00F4A48
S21401B3A01368013313600020BDE8F883989B0020E2
S21401B3B0B89B0020049C0020009C0020A49B002039
S21401B3C09C9B0020B49B0020309C002004D20100EE
S21401B3D028DA0100F0D00100A89B0020AC9B0020D9
S21401B3E0949C00202DE9F8435C4B1B68002B00F071
S21401B3F08E80FDF74DFE594B1A68013A1A601B689C
S21401B400002B40F0A380564B1B68002B00F0A48055
S21401B410544B1B68002B74D052480021524C534A9F
S21401B420534D544F4FF00109C368DB68D3F828C069
S21401B430D3F820E0DE69C6F808E0DE69CEF80460DD
S21401B44003F1180EDCF80460764504BF1E6ACCF8DA
S21401B45004609962DCF800E00EF1FF3ECCF800E0F3
S21401B460D3F814C0D3F80CE09E68C6F808E09E68CE
S21401B470CEF8046003F1040EDCF80460764504BFE0
S21401B480DE68CCF804605961DCF8008008F1FF380A
S21401B490CCF80080D3F82CC0D4F80080C44588BF0F
S21401B4A0C4F800C00CEB8C0C02EB8C0CDCF804C06E
S21401B4B0C3F808C0DCF80880C3F80C80C8F804E0BC
S21401B4C0CCF808E0D3F82CC00CEB8C0E02EB8E08FF
S21401B4D0C3F8148052F82EE00EF1010E0CEB8C0C22
S21401B4E042F82CE0D5F800E0D3F82CC0DEF82C307A
S21401B4F09C4588BFC7F800900368002B94D1FFF7DE
S21401B50053FC1D4B1C68A4B11A4E012508E01B4BC9
S21401B5101B4A40F693011B48FEF708FD013C05D087
S21401B520FFF784FE0028F9D03560F7E7124B0022BA
S21401B5301A60104B1C6854B1134B4FF080525A607E
S21401B540BFF34F8FBFF36F8F012400E00024FDF798
S21401B550C7FD2046BDE8F8830024F8E7989B002045
S21401B560BC9B0020EC9B0020B49B0020309C00205C
S21401B570949C0020A89B0020AC9B00207CD201005C
S21401B5803CDA0100F0D0010000ED00E010B560B13A
S21401B59004460E4B1B688BB9FFF73AFE0021204686
S21401B5A0FFF710FDFFF71EFF38B9094B4FF0805229
S21401B5B05A60BFF34F8FBFF36F8F10BD054B064A1E
S21401B5C04FF4A4610548FEF7B1FC00BF989B00202C
S21401B5D000ED00E0BCD1010060DA0100F0D001000E
S21401B5E008B5214B1B681BB1204B01221A6008BD10
S21401B5F01E4B00221A601E4B1B6803EB830292004F
S21401B6001C498A587AB93BB1013B03EB830251F8D6
S21401B610222042B9002BF7D1174B184A40F6334186
S21401B6201748FEF783FC134A03EB830102EB810103
S21401B63048684068486003EB830102EB81020832E8
S21401B64090420BD003EB83010A4A02EB8102526857
S21401B650D1680C4A1160064A1360C8E7054A02EB36
S21401B6608102D1685160EDE7989B0020A89B0020DD
S21401B670B49B0020309C0020A8D2010014DA0100FF
S21401B680F0D00100949C002010B550B10C46084A39
S21401B69011681831FEF726FF01212046FFF792FCBC
S21401B6A010BD044B044A40F64B410448FEF73EFCED
S21401B6B0949C0020B8D20100FCD90100F0D0010012
S21401B6C038B5E0B18C461146054642680F4B1868FE
S21401B6D0C261186894680462186818306060186857
S21401B6E0183090601B689D622B6801332B6000291F
S21401B6F00CBF60464FF0FF30FFF764FC38BD044BCB
S21401B700044A40F681410448FEF710FC949C002050
S21401B710B8D20100DCD90100F0D0010010B5C36831
S21401B720DB68002B4DD09A6AD869196A8160D8699E
S21401B730486003F118005168814204BF196A5160DC
S21401B74000219962116801391160274A1268002A9E
S21401B7503ED15A699868D968816098684860181D12
S21401B7605168814204BFD96851600021596111684E
S21401B77001391160DA6A1D4909688A4284BF1B498A
S21401B7800A601B4902EB820201EB820252689A6050
S21401B7909468DC6060609060DA6A02EB8200840084
S21401B7A001EB80005861085901300851114A1168AF
S21401B7B0DA6ACB6A9A4283BF01200F4B18600020D9
S21401B7C010BD0E4B0E4A40F6B1410E48FEF7AEFBD9
S21401B7D00D4A5168D9618C681C62606088609A6203
S21401B7E0116801311160E1E7989B0020B49B0020AD
S21401B7F0309C0020949C0020A89B0020C4D201000D
S21401B800C0D90100F0D00100EC9B0020034B1B685F
S21401B8100360034B1B684360704700BFA49B002076
S21401B820B89B002070B5B0B10C460546D1B1FDF706
S21401B8302FFC1A4B1A682368B3F1FF3F28D06968BA
S21401B840174800682E68864213D0914211D800230B
S21401B850236001241DE0134B134A40F62C51134874
S21401B860FEF764FB124B104A40F62D510F48FEF7C7
S21401B8705DFB501A834203D800232360012408E0AD
S21401B8809B1A0B4423602846FFF7C0FF002400E004
S21401B8900024FDF725FC204670BD00BFB89B0020A4
S21401B8A0A49B0020D4D20100A8D90100F0D0010049
S21401B8B0E0D20100014B01221A607047A89B0020CC
S21401B8C0014B1868704700BF949C0020054B1B680D
S21401B8D033B1054B1868B0FA80F040094000704754
S21401B8E001207047B09B0020989B002000284CD078
S21401B8F038B50446C36A264A1268D26A93423BD2D6
S21401B9008269002A05DB224A1268D26AC2F1050260
S21401B910826103EB83031F4A02EB830362699A4247
S21401B92005D01B4B1B68DB6AE36201202CE0251D5A
S21401B9302846FEF7F0FD164B1B68DB6AE362164AE3
S21401B9401268934284BF144A1360124A03EB8303BE
S21401B95002EB83035B68A3609968E1604D609D60BC
S21401B960E36A03EB8301880002EB810161611158F0
S21401B97001311150012007E0054B1B68406DDB6A61
S21401B98098422CBF0020012038BD0020704700BF20
S21401B990949C0020309C0020B49B0020002844D0BA
S21401B9A038B50446234B1B6883420AD1836D7BB1AD
S21401B9B0013B8365C16A426D914238D07BB100205C
S21401B9C038BD1D4B1D4A41F28C011D48FEF7AEFAEB
S21401B9D01C4B1A4A41F28D011948FEF7A7FA051DBC
S21401B9E02846FEF798FD636DE362C3F10502A26186
S21401B9F0154A1268934284BF134A1360134A03EB35
S21401BA00830302EB83035B68A3609968E1604D6082
S21401BA109D60E36A03EB8301880002EB81016161AB
S21401BA201158013111500120CAE70020704700204B
S21401BA30C6E700BF949C0020F0D2010090D9010017
S21401BA40F0D0010008D30100B49B0020309C0020F8
S21401BA5000284FD038B50446826D4AB1436D9942ED
S21401BA6038BF1946C36A8B4201D0012A07D038BDB8
S21401BA70214B224A41F2DC012148FEF757FA214ABE
S21401BA80126882422FD0C1628269002AA4BFC1F126
S21401BA900501816103EB83031B4A02EB83034269C1
S21401BAA09A42E4D1051D2846FEF735FDE36A174A9A
S21401BAB01268934284BF154A1360134A03EB83034B
S21401BAC002EB83035B68A3609968E1604D609D604B
S21401BAD0E36A03EB8301880002EB8101616111587F
S21401BAE001311150C3E70A4B044A41F2F7010448F9
S21401BAF0FEF71CFA704700BF08D301006CD901009D
S21401BB00F0D00100949C0020309C0020B49B0020C3
S21401BB1020D30100054B1B6823B1044B1A68936DB3
S21401BB2001339365014B1868704700BF949C002051
S21401BB3070B5002831D10E4615461C46FDF7A8FA09
S21401BB40244B1B6893F87430DBB2022B0BD0214ACE
S21401BB501068036F23EA060303671368012283F85C
S21401BB607420049B03BBFDF7BBFAFDF791FA1CB1E9
S21401BB70184B1B681B6F2360164B1B6893F87430B9
S21401BB80DBB2022B1DD00024124B1B68002283F867
S21401BB907420FDF7A5FA204670BD0F4B0F4A41F2FF
S21401BBA0E7210F48FEF7C2F911461846FFF70AFAD1
S21401BBB00C4B4FF080525A60BFF34F8FBFF36F8F1D
S21401BBC0D1E7044B1A68136F23EA050313670124B0
S21401BBD0DAE700BF949C002038D3010054D9010055
S21401BBE0F0D0010000ED00E0F8B5069EA9B90446C4
S21401BBF017461D46C0B1FDF74BFA0EB1236F3360F1
S21401BC0094F87430DBB2022284F87420042D26D80E
S21401BC10DFE805F014111B1F21003B4B3B4A41F2A4
S21401BC203F313B48FEF782F93A4B384A4FF49A5176
S21401BC303748FEF77BF9226F3A432267012B19D06A
S21401BC400124FDF74DFA2046F8BD226F0132226726
S21401BC50F4E72767F2E7022B52D02767EEE72E4A72
S21401BC601268002AEAD02D4B284A41F2753128483D
S21401BC70FEF75CF96369A168E2688A60A1685160B1
S21401BC80211D5A688A4204BFE2685A600022626136
S21401BC901A68013A1A60E36A214A1268934284BF1D
S21401BCA01F4A13601F4A03EB830302EB83035B689F
S21401BCB0A3609868E06041609960E36A03EB8301E2
S21401BCC0880002EB81016161115801311150A36AAC
S21401BCD07BB9154B1B68E26ADB6A9A4212D9134B91
S21401BCE04FF080525A60BFF34F8FBFF36F8F01241E
S21401BCF0A7E70F4B054A41F284310548FEF716F9CE
S21401BD0000249EE701249CE74CD3010040D90100A2
S21401BD10F0D0010064D30100B89B002074D3010069
S21401BD20B49B0020309C0020949C002000ED00E095
S21401BD3094D30100F8B5069FD0B116461D460446B9
S21401BD40E9B9FDF725FAEFF31182102383F3118881
S21401BD500FB1236F3B6094F87430DBB2022184F894
S21401BD607410042D25D8DFE805F014111A1E2000E2
S21401BD70434B444A41F2BC314348FEF7D7F8434BA4
S21401BD80404A41F2BD314048FEF7D0F8216F3143B9
S21401BD902167012B18D0012082F31188F8BD216F8D
S21401BDA001312167F5E72667F3E7022B64D02667A2
S21401BDB0EFE7374909680029EBD0364B314A41F2A3
S21401BDC004413148FEF7B2F8A36A002B3FD1324B4B
S21401BDD01B68002B42D16369A068E1688160A06896
S21401BDE04860201D5968814204BFE16859600021FE
S21401BDF06161196801391960E36A284909688B424B
S21401BE0084BF26490B60264903EB830301EB8303BA
S21401BE105B68A3609D68E56068609860E36A03EB11
S21401BE208300850001EB800060614859013048516C
S21401BE301C4B1B68E16ADB6A99421FD9079B13B149
S21401BE40012307990B600120174B1860A4E7174BD5
S21401BE500C4A41F20F410C48FEF768F8144B59683A
S21401BE60E1618D68256204F1180068608860A3624C
S21401BE70196801311960DBE700208DE701208BE7A7
S21401BE8064D3010024D90100F0D001004CD3010095
S21401BE90B89B002074D30100989B0020B49B00201F
S21401BEA0309C0020949C0020A89B002094D3010085
S21401BEB0EC9B002008B54160006191420CD8D21A73
S21401BEC083699A4201D3012008BD011D094B1868F8
S21401BED0FEF708FB0020F7E79A4201D2994206D204
S21401BEE0011D054B1868FEF7FDFA0020ECE701205E
S21401BEF0EAE700BF649D0020689D002070B50446F7
S21401BF000D46164604E0A3691D44236A2046984759
S21401BF10A1692B46324629442046FFF7CBFF00286D
S21401BF20F1D170BD70B505460E460D4B1B68DB683A
S21401BF30DC68201DFEF7EFFA94F8243013F0040FA6
S21401BF4007D123F0010384F82430236A204698475A
S21401BF5070BD324629462046FFF7D0FFF5E700BF01
S21401BF60689D0020F8B50546FFF75AF90446104BC0
S21401BF701B68834205D800232B600D4B1C602046AE
S21401BF80F8BD0C4B1B681A685AB14FF0FF37094EC3
S21401BF90DB6839461868FFF7C5FF33681A68002A58
S21401BFA0F6D1054A10680349086013600123E3E7E8
S21401BFB0589D0020689D0020649D00202DE9F041D9
S21401BFC084B0574F574D3B681E68002E00F08680A0
S21401BFD0DB681E68FFF71CF901A8FFF7C3FF0446DC
S21401BFE0019A4AB9B042C0F08880FFF7FBF92146B2
S21401BFF03046FFF797FF01E0FFF7F4F900242246E9
S21401C00001A92868FEF7F4FC0028DCD0019B002B70
S21401C010F5DB039E736913B1301DFEF77CFA6846A3
S21401C020FFF7A0FF8046019B013B082BE7D8DFE81E
S21401C03003F00505293047050529300096F8243018
S21401C04043F0010386F82430029BB1690246194485
S21401C0503046FFF72FFF0028D1D096F8243013F092
S21401C060040F07D123F0010386F82430336A3046E3
S21401C0709847C4E7B3694246029919443046FFF728
S21401C0803DFFF3E796F8243023F0010386F82430C9
S21401C090B5E796F8243043F0010386F82430029978
S21401C0A0B16131B10346024601443046FFF702FF53
S21401C0B0A5E71D4B1D4A4FF45D711D48FDF736FF80
S21401C0C096F8243013F0020F04D023F0010386F80B
S21401C0D0243094E73046FEF7B9F990E7FFF798F871
S21401C0E001A8FFF73FFF0446019B002B84D1114BAB
S21401C0F01B681A68B2FA82F25209311B2868FEF7E9
S21401C1002BFEFFF76FF900287FF478AF0A4B4FF04C
S21401C11080525A60BFF34F8FBFF36F8F6EE700BF39
S21401C120689D0020609D0020D4D30100ACDA010098
S21401C130FCD30100649D002000ED00E030B583B023
S21401C140FCF7A6FF114B1B681BB1FCF7C9FF03B038
S21401C15030BD0F4D2846FEF7B7F90E4C2046FEF7C8
S21401C160B3F90D4B1D600D4B1C60002300930C4B67
S21401C1700C4A0C210A20FEF7CBFA044B1860002863
S21401C180E3D00949FEF7B8FDDFE700BF609D002058
S21401C190809D00206C9D0020689D0020649D0020ED
S21401C1A0989C0020E09C002028D4010010B588B09F
S21401C1B0FFF7C4FF114B1B68CBB10024059406940E
S21401C1C007AA06A905A8FCF7CFFE059B0293069BC6
S21401C1D00193032300932346079A09490948FEF76A
S21401C1E081FF094B186010B1012008B010BD074B44
S21401C1F0074A40F219110748FDF798FE609D002096
S21401C20030D40100BDBF01005C9D002038D4010080
S21401C210C8DA0100FCD3010000B59BB0009104917F
S21401C2206FF000410591029105490391694600F0BE
S21401C23085F9009B00221A701BB05DF804FB00BF55
S21401C2400802FFFF13460A46014602480068FFF748
S21401C250E3BF00BF0400002002440346934200D11E
S21401C260704703F8011BF9E7014B1868704700BFD8
S21401C27004000020704770470A44431E914200D1D3
S21401C280704710B511F8014B914203F8014FF9D1EF
S21401C29010BDFFFF38B50546002941D051F8043CD2
S21401C2A00C1F002BB8BFE41800F0E0F81D4A136815
S21401C2B033B9636014602846BDE8384000F0DCB846
S21401C2C0A34208D9206821188B4201BF19685B6810
S21401C2D009182160EDE71A465B680BB1A342FAD94B
S21401C2E011685018A0420BD1206801445018116003
S21401C2F08342E0D118685B68084453601060DAE74F
S21401C30002D90C232B60D6E7206821188B4202BF86
S21401C31019685B680918636008BF21605460CAE742
S21401C32038BD00BFD89E002070B50F4E0C4605469E
S21401C330316811B900F0A8FB30602146284600F0AC
S21401C340A3FB431C03D14FF0FF34204670BDC41C31
S21401C35024F00304A042F8D0211A284600F094FBEA
S21401C3600130F2D1EFE700BFD49E00202DE9F8435B
S21401C370CD1C064625F0030508350C2D38BF0C25C7
S21401C380002D01DBA94204D90C2333600020BDE84F
S21401C390F883DFF8D48000F069F8D8F800301C463E
S21401C3A044BB29463046FFF7BFFF431C044658D11D
S21401C3B0D8F800402746002F43D1002C4BD02368E5
S21401C3C03946304604EB030900F05EFB814542D155
S21401C3D0216830466D1A2946FFF7A6FF01303AD08C
S21401C3E023682B442360D8F800305A6862BBC8F82B
S21401C3F000700FE02268521B20D40B2A17D961194E
S21401C400A342256018BF5960636808BFC8F80010CA
S21401C41062514B60304600F02FF804F10B00231DEB
S21401C42020F00700C21A1CBF1B1AA350AFE76268B0
S21401C430A3420CBFC8F800205A60EBE723466468A5
S21401C440AEE73C467F68B6E71A465B68A342FBD177
S21401C45000235360DEE70C233046336000F00CF80F
S21401C46094E70560D6E700BFD89E00200148FFF795
S21401C47001BF00BFD09E00200148FFF7FCBE00BFF1
S21401C480D09E00202DE9F0471F468E6882460C4656
S21401C490BE4290460B682DD8B1F90C2012F4906F6D
S21401C4A026D06569096905EB4505A3EB01097B1CE7
S21401C4B005EBD5754B446D109D4238BF1D4653059F
S21401C4C027D52946FFF752FF064660B34A4621693B
S21401C4D0FFF7D2FEA38923F4906343F08003A38180
S21401C4E026614E446561A5EB090526603E46A560BA
S21401C4F0BE4200D93E4632464146206800F0AAFABE
S21401C500A36800209B1BA360236833442360BDE817
S21401C510F0872A4600F0D6FA06460028E0D12169BF
S21401C5205046FFF7B7FE0C234FF0FF30CAF8003035
S21401C530A38943F04003A381E9E7FFFF2DE9F04F0C
S21401C54098468B899DB007461B060D46144610D5A6
S21401C5500B6973B94021FFF709FF2860286130B9DC
S21401C5600C233B604FF0FF301DB0BDE8F08F402339
S21401C5706B610023CDF80C804FF00109DFF8A08134
S21401C580099320238DF8293030238DF82A3023464D
S21401C5909A4613F8012B0AB1252AF9D1BAEB040BF6
S21401C5A00BD05B46224629463846FFF76BFF013023
S21401C5B000F0A780099A5A4409929AF80030002B95
S21401C5C000F09F8000234FF0FF320AF1010A049326
S21401C5D007938DF853301A93CDE905235446052267
S21401C5E04F4814F8011B00F05FFA049AD8B9D00638
S21401C5F044BF20238DF85330110744BF2B238DF8F9
S21401C60053309AF800302A2B15D0079A544600204A
S21401C6104FF00A0C214611F8013B303B092B4BD950
S21401C620B0B1079214E0A0EB0803A24609FA03F39F
S21401C63013430493D2E7039B191D1B68002B039138
S21401C640BBBF5B4242F0020207930793B8BF049256
S21401C65023782E2B0AD163782A2B32D1039B0234FE
S21401C6601A1D1B6843EAE37303920593DFF8C0A023
S21401C67003222178504600F017FA38B1A0EB0A00E1
S21401C6804022049B013482401343049314F8011B97
S21401C690062224488DF8281000F006FA002836D025
S21401C6A0214B1BBB039B073323F00703083303937C
S21401C6B0099B334409936AE70CFB02320C460120BE
S21401C6C0A8E7002301344FF00A0C194605932046CB
S21401C6D010F8012B303A092A03D9002BC6D0059150
S21401C6E0C4E70CFB012104460123F0E703AB2A460D
S21401C6F004A9384600930D4BAFF30080421C064652
S21401C700D6D1AB895B063FF52DAF09982CE703AB75
S21401C7102A4604A938460093044B00F07DF8EDE75D
S21401C720DEDA0100E8DA01000000000085C401003D
S21401C730E4DA01002DE9F047164698468A6807466E
S21401C7400B690C46DDF820909342B8BF1346336060
S21401C75091F843200AB1013333602368990642BF3A
S21401C760336802333360256815F0060506D104F1F7
S21401C770190AE36832689B1AAB422BDC94F8433003
S21401C7802268003B18BF0123920630D404F143020D
S21401C79041463846C847013023D023681A3454F836
S21401C7A00A2C03F00603042B0ABF54F80E5C00257E
S21401C7B033684FF0000608BFED1A54F8123C08BF64
S21401C7C025EAE5759342C4BF9B1AED18B5421AD106
S21401C7D0002008E00123524641463846C84701304A
S21401C7E003D14FF0FF30BDE8F0870135C1E7E1180E
S21401C7F05A1C30200233224481F8430094F8451035
S21401C80082F84310C2E70123224641463846C8470C
S21401C8100130E6D00136D9E72DE9FF470F7E914674
S21401C82080460C46782F9A460C9E01F1430207D8A3
S21401C830622F0AD8002F00F0D180582F00F0B88060
S21401C84004F1420684F842703AE0A7F16303152B1F
S21401C850F6D801A151F823F0B1C80100C5C80100FE
S21401C86041C8010041C8010041C8010041C801009A
S21401C870C5C8010041C8010041C8010041C8010006
S21401C88041C80100C3C90100EFC801007DC901000C
S21401C89041C8010041C80100E5C9010041C80100C5
S21401C8A0EFC8010041C8010041C8010085C9010067
S21401C8B033681A1D1B68326004F1420684F8423060
S21401C8C001239CE033682068191D3160060601D5F6
S21401C8D01D6803E04506FBD5B3F90050002D03DAC9
S21401C8E02D236D4284F8433058480A2311E021680D
S21401C8F03368080653F8045B02D4490648BFADB254
S21401C9006F2F3360514814BF0A230823002184F88F
S21401C91043106668002EA66005DB21682E4321F0D1
S21401C920040121604BD01646B5FBF3F103FB11570A
S21401C930C75D06F8017D2F460D46BB42F4D9082B8C
S21401C9400BD12368DF0708D5236961689942DEBFEA
S21401C950302306F8013C06F1FF36921B22614B4656
S21401C96003AA21464046CDF800A0FFF7E3FE0130BA
S21401C9704AD14FF0FF3004B0BDE8F087236843F09A
S21401C9802003236078273248236884F845701F0601
S21401C990316851F8045B02D45F0648BFADB231601E
S21401C9A0D90744BF43F0200323601DB11023ADE730
S21401C9B02648E9E7236823F020032360F6E71646B6
S21401C9C0BDE733682568181D616930602E061B684F
S21401C9D001D5196002E06806FBD5198000231646CA
S21401C9E02361BCE7336800211A1D32601E68626845
S21401C9F0304600F059F808B1801B60606368236117
S21401CA00002384F84330AAE7236932464946404664
S21401CA10D0470130ADD023689B0713D4E068039B51
S21401CA209842B8BF1846A6E7012332464946404613
S21401CA30D04701309DD00135E36803995B1AAB42BC
S21401CA40F2DCEBE7002504F11906F5E7EFDA010061
S21401CA5000DB0100884210B501EB020402D98442D2
S21401CA60234607D8431EA14208D011F8012B03F82C
S21401CA70012FF8E7024401468A4200D110BD13F89F
S21401CA80014D02F8014DF7E738B50023054D044680
S21401CA9008462B60FDF772FB431C02D12B6803B1DD
S21401CAA0236038BDCC9E0020C9B20346024410B5AF
S21401CAB09342184601D1002003E0047801338C42EA
S21401CAC0F6D110BD2DE9F041074614460D4621B9B1
S21401CAD01146BDE8F041FFF749BC2AB92546FFF7E4
S21401CAE0D9FB2846BDE8F08100F01AF884420646D4
S21401CAF002D8B4EB500FF4D821463846FFF736FC7F
S21401CB00804608B94546ECE7B4422246294628BF86
S21401CB103246FFF7B1FB29463846FFF7BBFBF1E784
S21401CB2051F8043C181F002BBCBF0B58C0187047A7
S21401CB304275696C7420776974682052656E6573F6
S21401CB40617320416476616E63656420466C657826
S21401CB5069626C6520536F667477617265205061F7
S21401CB60636B6167652076657273696F6E20352E1B
S21401CB70352E3000352E352E30000000000005051C
S21401CB80F8B500BFF8BC08BC9E467047F8B500BFB4
S21401CB90F8BC08BC9E4670470140000055415254FF
S21401CBA02044535053204D435520426F6F74204408
S21401CBB06F776E6C6F616465722053746172740D69
S21401CBC00A000000457261736520537461727469CE
S21401CBD06E670D0A000000004572617365204669A4
S21401CBE06E69736865642E0D0A00000057726974D9
S21401CBF065206572723A2025640D0A00426C696EE2
S21401CC006B79205468726561640000004453505388
S21401CC1020446F776E6C6F6164657200756353565E
S21401CC20434E756D626572203C3D20330000000066
S21401CC302E2E2F72612F6673702F7372632F726D93
S21401CC405F6672656572746F735F706F72742F7052
S21401CC506F72742E630000002828285343425F54E5
S21401CC60797065202A2920282830784530303045CB
S21401CC70303030554C29202B203078304430305518
S21401CC804C2920292D3E494353522026202830780E
S21401CC90314646554C202929203D3D2030000000D4
S21401CCA07578437269746963616C4E657374696EF5
S21401CCB067000000756C43757272656E7450726918
S21401CCC06F72697479203E3D202828282831292949
S21401CCD0203C3C202838202D2034292929203E3E7E
S21401CCE0202838202D203429000000005F5F4E5692
S21401CCF049435F4765745072696F72697479477208
S21401CD006F7570696E672829203C3D202838202DD4
S21401CD10203429202D20310028202820282073693E
S21401CD207A655F7420292070784E6577426C6F6350
S21401CD306B4C696E6B2029202620282030783030F5
S21401CD40303720292029203D3D2030002E2E2F72FD
S21401CD50612F6177732F4672656552544F532F4684
S21401CD6072656552544F532F536F757263652F70FA
S21401CD706F727461626C652F4D656D4D616E672FC4
S21401CD80686561705F342E6300000000282028204B
S21401CD90282073697A655F7420292070765265743D
S21401CDA075726E2029202620282073697A655F74A3
S21401CDB0202920282030783030303720292029209B
S21401CDC03D3D2030000000002820282028207078D3
S21401CDD04C696E6B2D3E78426C6F636B53697A6556
S21401CDE0202920262028202820282073697A655F9C
S21401CDF074202920312029203C3C2028202820731B
S21401CE00697A656F66282073697A655F74202920C0
S21401CE102A202820282073697A655F742029203803
S21401CE2020292029202D20312029202920292021B0
S21401CE303D2030202920213D2030000070784C69AB
S21401CE406E6B2D3E70784E65787446726565426CE1
S21401CE506F636B203D3D202828766F6964202A2960
S21401CE603029000070785175657565002E2E2F7279
S21401CE70612F6177732F4672656552544F532F4663
S21401CE8072656552544F532F536F757263652F71D8
S21401CE90756575652E6300007852657475726E202F
S21401CEA0213D20282028202820426173655479706E
S21401CEB0655F74202920302029202900707853745A
S21401CEC06174696351756575650000007853697A08
S21401CED065203D3D2073697A656F6628205175652A
S21401CEE075655F742029000070784E657751756509
S21401CEF0756500007848616E646C650021282028FD
S21401CF002070764974656D546F5175657565203D61
S21401CF103D202828766F6964202A29302920292077
S21401CF202626202820707851756575652D3E757802
S21401CF304974656D53697A6520213D202820554244
S21401CF40617365547970655F7420292030552029F6
S21401CF5020290000212820282078436F7079506FFF
S21401CF60736974696F6E203D3D2028202820426138
S21401CF707365547970655F74202920322029202931
S21401CF80202626202820707851756575652D3E75FA
S21401CF90784C656E67746820213D20312029202950
S21401CFA0000000002128202820785461736B476513
S21401CFB0745363686564756C65725374617465282F
S21401CFC029203D3D20282028204261736554797030
S21401CFD0655F742029203020292029202626202834
S21401CFE020785469636B73546F5761697420213DCF
S21401CFF02030202920290000707851756575652D2F
S21401D0003E75784974656D53697A65203D3D2030DB
S21401D010000000002128202820707851756575656C
S21401D0202D3E706348656164203D3D202828766F5B
S21401D0306964202A293029202920262620282070C4
S21401D0407851756575652D3E752E7853656D6170E1
S21401D050686F72652E784D75746578486F6C646577
S21401D0607220213D202828766F6964202A293029DC
S21401D0702029202900000000282070785175657548
S21401D08065202900212820282028207076427566F0
S21401D0906665722029203D3D202828766F69642028
S21401D0A02A29302920292026262028202820707881
S21401D0B0517565756520292D3E75784974656D53E2
S21401D0C0697A6520213D202820554261736554798F
S21401D0D070655F7420292030552029202900000022
S21401D0E07851756575650000785461736B000000B2
S21401D0F02E2E2F72612F6177732F467265655254FB
S21401D1004F532F4672656552544F532F536F7572A6
S21401D11063652F7461736B732E63000075785072AC
S21401D120696F72697479203C202835290000000057
S21401D13070785443422D3E7563537461746963611C
S21401D1406C6C79416C6C6F6361746564203D3D2045
S21401D1502820282075696E74385F742029203220B3
S21401D16029000000707578537461636B42756666BA
S21401D170657220213D202828766F6964202A29308F
S21401D1802900000070785461736B4275666665729B
S21401D19020213D202828766F6964202A293029001D
S21401D1A07853697A65203D3D2073697A656F6628F4
S21401D1B0205443425F7420290000000075785363B1
S21401D1C0686564756C657253757370656E646564C5
S21401D1D0203D3D2028205542617365547970655F76
S21401D1E0742029203055000049444C4500000000B9
S21401D1F07852657475726E20213D2028202D3120CD
S21401D200290000002820282028202820707844653E
S21401D2106C617965645461736B4C69737420292D54
S21401D2203E75784E756D6265724F664974656D73AD
S21401D230203D3D2028205542617365547970655F15
S21401D24074202920302029203F20282028204261D0
S21401D2507365547970655F74202920312029203A3E
S21401D260202820282042617365547970655F7420F8
S21401D27029203020292029202900000075785363B1
S21401D280686564756C657253757370656E64656404
S21401D29020213D2028205542617365547970655FD1
S21401D2A074202920305500007578546F70507269CB
S21401D2B06F7269747900000070784576656E744CFB
S21401D2C0697374007078556E626C6F636B65645435
S21401D2D043420000707854696D654F757400000014
S21401D2E070785469636B73546F57616974000000FA
S21401D2F07078544342203D3D2070784375727265C4
S21401D3006E7454434200000070785443422D3E75BB
S21401D310784D75746578657348656C640000000027
S21401D320707854434220213D2070784375727265AF
S21401D3306E745443420000007578496E64657854F3
S21401D3406F57616974203C20283129007578496E31
S21401D350646578546F4E6F74696679203C20283175
S21401D36029000000785461736B546F4E6F746966C0
S21401D37079000000785469636B436F756E74203DC5
S21401D3803D2028205469636B547970655F742029A9
S21401D3902030000028202820262820707854434278
S21401D3A02D3E784576656E744C6973744974656D67
S21401D3B0202920292D3E7078436F6E7461696E6551
S21401D3C0722029203D3D202828766F6964202A296D
S21401D3D0302900002820707854696D65722D3E78DA
S21401D3E054696D6572506572696F64496E546963FC
S21401D3F06B73203E20302029000000002E2E2F7255
S21401D400612F6177732F4672656552544F532F46CD
S21401D41072656552544F532F536F757263652F743F
S21401D420696D6572732E6300546D725100000000C1
S21401D430546D7220537663007852657475726E006F
S21401D4400000000048430020C8D4010008D80100AD
S21401D4500000000000000502FF00000000010000BF
S21401D4600206050020FF040074D4010070D40100F8
S21401D4700700FFFF2000000000100000520000001F
S21401D48000800000D800000000000100C700000076
S21401D490FFFFFFFF000200000C000C010C020C0352
S21401D4A00000000000000000218A010000000000CA
S21401D4B0B4D4010000010000000000200A00FFFFB4
S21401D4C008000000FFFF000042000000D4D4010065
S21401D4D00000000000800000000000000080000046
S21401D4E00100000000400000020000000080000073
S21401D4F003000000040000000400000000400000DB
S21401D500050000000040000006000000008000004A
S21401D51007000000104000000800000004000000A2
S21401D52009000000008000000E00000000800000DE
S21401D5300F0000000000010400010000000C0104BF
S21401D54001010000000001040301000000000100C9
S21401D55008010000000001000901000000000100B0
S21401D5600A010000040000000B0100000400000096
S21401D5700F0100000000010000030000040000008D
S21401D580030300000400000004030000000C011166
S21401D59005030000000C011106030000000C011138
S21401D5A007030000000C011108030000000C011124
S21401D5B009030000000C01110A030000040000002A
S21401D5C00B030000040000000C0300000400000030
S21401D5D00D0300000400000000040000000C011709
S21401D5E001040000000C011702040000050C0000F5
S21401D5F0030400000400000004040000000C0117EE
S21401D60005040000000C01170604000000000113C9
S21401D6100704000000000103080400001040000099
S21401D62009040000104000000E0400000400000081
S21401D6300F040000000001130005000000000113A4
S21401D640010500004000010405050000400001043A
S21401D65006050000000401070B0500000004010791
S21401D6600C050000040000000B060000040000008A
S21401D6700C060000000001050D0600000000010573
S21401D6800E060000000C011700070000000C011731
S21401D69001070000000C011702070000000C01172B
S21401D6A003070000000C011704070000000C011717
S21401D6B00507000004000000080700000400000041
S21401D6C009070000040000000A070000040000002B
S21401D6D00C070000040000000D0700000000010414
S21401D6E00008000080018101820183010000000022
S21401D6F00000000000000000000000000000000024
S21401D7000000000000000000000000000000000013
S21401D7100000000000000000000000000000000003
S21401D72000000000000000000000000000000000F3
S21401D73000000000000000000000000000000000E3
S21401D74000000000000000000000000000000000D3
S21401D75000000000000000000000000000000000C3
S21401D76000000000000000000000000000000000B3
S21401D77000000000000000000000000000000000A3
S21401D7800000000000000000000000000000000093
S21401D7900000000000000000000000000000000083
S21401D7A00000000076506F727456616C6964617493
S21401D7B065496E746572727570745072696F7269BC
S21401D7C0747900FF76506F72744578697443726994
S21401D7D0746963616C00FFFF76506F7274456E74F6
S21401D7E06572437269746963616C00FF76506F728B
S21401D7F07453564348616E646C65725F4300FFFF65
S21401D800020403040404FFFFE19C0100459A0100A1
S21401D810F59C0100019D0100FF9A0100439B010058
S21401D8204D9A0100999A0100C19A0100E79A0100F8
S21401D830279B0100699A01007D9A01000100020000
S21401D84008001000030000004CD801000F04040477
S21401D8500004FFFF76506F72744672656500FFFF25
S21401D8607076506F72744D616C6C6F6300FFFFFFD2
S21401D870765175657565416464546F526567697361
S21401D8807472790078517565756553656D61706858
S21401D8906F726554616B6500785175657565526583
S21401D8A0636569766500FFFF78517565756547653F
S21401D8B06E6572696353656E6400FFFF7851756526
S21401D8C07565437265617465436F756E74696E67DD
S21401D8D053656D6170686F72655374617469630036
S21401D8E078517565756547656E65726963437265DE
S21401D8F06174650078517565756547656E65726911
S21401D9006343726561746553746174696300FFFFF4
S21401D91078517565756547656E657269635265739D
S21401D920657400FF785461736B47656E6572696351
S21401D9304E6F7469667946726F6D49535200FFFFE8
S21401D940785461736B47656E657269634E6F74696F
S21401D950667900FF785461736B47656E657269631B
S21401D9604E6F746966795761697400FF7654617306
S21401D9706B5072696F72697479446973696E686510
S21401D980726974416674657254696D656F75740069
S21401D990785461736B5072696F72697479446973F4
S21401D9A0696E686572697400785461736B43686563
S21401D9B0636B466F7254696D654F757400FFFFFFA8
S21401D9C0785461736B52656D6F766546726F6D45FF
S21401D9D076656E744C69737400FFFFFF765461734D
S21401D9E06B506C6163654F6E4576656E744C6973FA
S21401D9F074526573747269637465640076546173F6
S21401DA006B506C6163654F6E4576656E744C6973D9
S21401DA107400FFFF765461736B53776974636843D0
S21401DA206F6E7465787400FF785461736B496E632A
S21401DA3072656D656E745469636B00FF785461732B
S21401DA406B526573756D65416C6C00FF765461733E
S21401DA506B53746172745363686564756C657200A8
S21401DA60765461736B44656C617900FF707276441D
S21401DA70656C65746554434200FFFFFF707276491A
S21401DA806E697469616C6973654E65775461736B11
S21401DA9000FFFFFF785461736B43726561746553D1
S21401DAA0746174696300FFFF0400000070727650B1
S21401DAB0726F636573735265636569766564436FF8
