S026000072615F6D6375626F6F745F7261366D345F737761705F656E635F717370692E73726563FF
S31500000000102900201DB5000045B3000019B50000F9
S3150000001019B5000019B5000019B5000019B50000A2
S3150000002000000000000000000000000019B50000FC
S3150000003019B500000000000019B5000019B5000050
S315000000400348044B834202D0034B03B11847704761
S315000000509C0700209C07002000000000064B074973
S31500000060C91A891048BF0131491003D0044B0BB19E
S3150000007001481847704700BF9C0700209C070020D6
S315000000800000000010B5064C237843B9FFF7D8FFEF
S31500000090044B13B10448AFF300800123237010BD55
S315000000A0B807002000000000D0F4000008B5054B9A
S315000000B01BB105490548AFF30080BDE80840FFF7CE
S315000000C0CDBF00BF00000000BC070020D0F4000038
S315000000D0002300B585B068468DF8003002F010F9AF
S315000000E048B901A801F002F858B901A802F004FCC9
S315000000F005B05DF804FB1421054B064A06480BF0D3
S31500000100EDF82821054B034A03480BF0E7F800BF3A
S3150000011090D70000C4D90000B4D70000C8D70000AB
S31500000120FFF7D6BF022800D07047024B0248596835
S315000001300AF02ABED8D90000D407002008B5FFF778
S31500000140EFFF002008BD00BF08B5B921024B034AE6
S3150000015003480BF0C3F800BFDCD7000098DA0000B4
S3150000016008D800000DF04EBA2A2303FB00F000F574
S31500000170207070470878032805D00138012894BFFD
S315000001802A204FF0FF30704710B5044602F056FBA8
S315000001902378032B1ABF2A23434300EB4003A068AE
S315000001A003F52073834201D8C01A10BDFFF7CCFFB8
S315000001B040F20313F0B50C4687B0144E01AD0DF1B5
S315000001C00607ADF80430214615F8010B02F0F4F9E4
S315000001D0A0B920681023816802AA103902F030FA0B
S315000001E078B91022314602A80DF00CFA08B907B00A
S315000001F0F0BD206802F022FABD42E4D14FF0FF3094
S31500000200F5E7206802F01AFAF8E700BFD4DA000032
S3150000021070B50D46044600F02DF801462A462046E4
S31500000220BDE870400423803902F00ABA10B582B0E6
S315000002300446019100F01EF8042301460DEB03026B
S315000002402046803900F068F802B010BD10B50446AB
S3150000025002F0F4FA2378032B1ABF2A23434300EB58
S315000002604003A06803F52073984201D3C01A10BD5D
S31500000270FFF76AFF8068903820F07F00A0F5807055
S31500000280704700BF04280AD0052804D0401AB0FAE7
S3150000029080F040097047481E18BF012070470120B2
S315000002A0704700BFA1B138B515460AB9002038BD60
S315000002B00C46013D02F0FAFA631E611901E08B4219
S315000002C004D013F8012F8242F9D0EFE7012038BDA0
S315000002D00020704730B58168A1B0103921F07F0445
S315000002E0054602F0E3FA7022014668460DF09AF9D7
S315000002F0084B0DF1800C0FCB0CE90F0080236A46EA
S315000003002146284602F00CFA003818BF012021B019
S3150000031030BD00BFD4DA00002DE9F0411D46A0B083
S3150000032006460F46904602F089FA6C1E0444C0F158
S31500000330000C04EA0C04802C04D94FF0FF3020B0E6
S31500000340BDE8F081304602F0B1FA414680462A46C1
S3150000035068460DF087F94146621B0DEB05000DF06E
S3150000036061F923466A463946304602F0D9F9003823
S3150000037018BF012020B0BDE8F08100BF012300B501
S31500000380816883B0903901AA21F07F018DF804308D
S31500000390FFF7C2FF03B05DF804FB00BF38B50C469B
S315000003A0816801239039224621F07F01054602F03B
S315000003B047F900280BDB64B1284602F077FA237868
S315000003C0834208BF032305D12370002038BD0120D6
S315000003D038BD2378012B18BF0223F5E730B50D464B
S315000003E0816887B0102302AA1039044602F028F962
S315000003F000284FDB204602F059FA02AB06A901E0BD
S315000004008B424AD013F8012B9042F9D02D4B029A19
S315000004109A4244D002232B70A1680123903921F01F
S315000004207F0120460DF10702A1F5807102F008F95F
S3150000043000282FDB9DF80730204603F00F021B092A
S315000004402B716A7002F032FA9DF80730834234D17C
S31500000450012200236A702B71A2680123903A22F0D0
S315000004607F012046AA1C803902F0EAF8002811DB39
S31500000470204602F01BFAAB78984208BF032302D04D
S31500000480012B18BF02232046AB70E91CFFF786FF3D
S3150000049007B030BD012007B030BD0323BBE70A4BD0
S315000004A0039A9A42B6D1094B049A9A42B2D1084BA2
S315000004B0059A9A42AED10123ADE76B78042BCBD9CE
S315000004C0C6E700BF80002DE15D29410B8D77679C53
S315000004D0110F1F8A10B582B00C46C0B201A902F0F6
S315000004E06BF818B10124204602B010BD21460198D0
S315000004F0FFF774FF0446019802F0A0F8204602B008
S3150000050010BD00BF00B50E2A83B014D80E2919D825
S31500000510836841EA021CA3F1900121F07F010123C7
S315000005200DF10702A1F580718DF807C0FFF7F4FE03
S3150000053003B05DF804FB4FF4C171064B064A074849
S315000005400AF0CCFE4FF4C171054B034A03480AF08A
S31500000550C5FE00BF44D80000A8DA000058D8000045
S3150000056094D8000030B587B0012004A902F024F821
S3150000057010B1FF2007B030BD049802A9FFF72EFF87
S315000005800446049802F05AF8002CF2D1022001A980
S3150000059002F012F8002847D003231C468DF81330CA
S315000005A09DF80800284BB0F1010C18BF4FF0010C64
S315000005B09DF80BE003F112011A78042A06D0052AE9
S315000005C018D0121AB2FA82F252096AB15A78042A7B
S315000005D005D0052A23D1621E18BF012222B19A78BE
S315000005E0042A09D0724507D006338B42E4D1012094
S315000005F007B030BD6246E8E7DA78042A03D09DF8F2
S3150000060013509542F0D11A79042A03D09DF80A5066
S315000006109542E9D15879831E022BABD9A9E7121B63
S31500000620B2FA82F25209D9E704A90198FFF7D6FE79
S315000006300446019802F002F8012CADD0002C98D1A6
S315000006409DF81040ACE700BFC0DA0000012300B5FA
S31500000650816883B0903921F07F0101AA80398DF835
S315000006600430FFF759FE03B05DF804FB2DE9F04FA7
S31500000670ADB09DF8D8703649DFF8E4A001EBC704A9
S31500000680646851F837102468054601EB04080BA886
S3150000069016461C460391DAF800B00CF019FD30231B
S315000006A0414604AA03A80AF0E5FF002845D1DDE982
S315000006B0032302EB0309494603A808AB05AA0BF07E
S315000006C061F8002839D1069A072A36D121490798B8
S315000006D00CF098FF88BB099A082A2ED11E490A9861
S315000006E00CF090FF48BB494604AA03A80BF024F877
S315000006F018BBDDE90373FA1891451ED1412B1CD1B5
S3150000070003210BA801F0B8FDF0B93A46A8EB0703A0
S3150000071026A90BA801F078FCB0B926A90BA801F010
S3150000072037FD88B933462946202200940BA80CF0E1
S31500000730C5FC48B9094BD3F800B00BA80CF0CAFCAD
S3150000074058462DB0BDE8F08FDAF800B0F5E700BFE7
S3150000075030DA0000F0DA0000E4DA000020080020B9
S315000007601C0700202DE9F04F8A49DBB00968669C1A
S315000007703AA803919046DDE964571E46DDF8A0913C
S3150000078001F0C8FD00213AA801F0C8FD1CB1679B25
S31500000790002B00F39380B8F80A30B8F808201A4402
S315000007A0D8F80C3013EB020A18BF4FF0000B08D133
S315000007B01BE0224629463AA8A34401F00DFEDA457D
S315000007C013D9AAEB0B04BC4228BF3C462A4659461D
S315000007D03046234601F034FF0028EAD06D4B1B68F3
S315000007E0039303985BB0BDE8F08F0DA93AA801F01A
S315000007F043FEB9F1000F12D00DAC0FCCC9F80000C2
S31500000800C9F80410C9F80820C9F80C300FCCC9F88B
S315000008101000C9F81410C9F81820C9F81C300023B4
S315000008204146009332464FF6FF7307A801F006F9DA
S3150000083007460028D2D130460C9CFFF707FD8442BC
S31500000840CCD84FF0FF344FF6FF75DFF854810DF129
S31500000850160305AA06A907A801F03AF90028BDDB88
S3150000086040F09380069907A801F092F9002844D039
S31500000870BDF81630102B27D0012B49D0222BE6D1FC
S31500000880002C7FDBD8F80030A3427BDDBDF81430A6
S31500000890802BA3D8304606993AAA01F0D1FE00284B
S315000008A09CD1E4B22021BDF8143000943AAA0DA8D8
S315000008B0FFF7DCFE03904FF0FF34C8E721461A46E7
S315000008C03AA801F089FD66E7BDF81470202F85D19E
S315000008D03B46304606993AAA01F0B2FE00287FF45C
S315000008E07DAF3A463AA90DA8FFF73CFC2A4B1B6898
S315000008F083427FF473AF0127A9E70123BDF81610E1
S31500000900264A9942B6D032F8023FAB42F9D165E7A2
S31500000910BDF81430202B3FF661AF304606993AAA4F
S3150000092001F08EFE044600287FF458AF9DF814B0FF
S31500000930BBF1200F26D8D8F800A0BAF1000F21DDB0
S31500000940DFF860901DA801F0E5FC00211DA801F06C
S31500000950E5FCD9F80430D9F800101A681DA801F092
S315000009603BFD15A91DA801F087FD5A463AA915A811
S315000009700CF048FE09F1080900283FF468AF01347D
S31500000980A245DFD14FF0FF3461E7002F7FF429AF96
S3150000099024E700BF1C07002020080020F8DA00002A
S315000009A02CDA000030DA0000F0B5044683B00020EF
S315000009B00D46164601F070FF6946C0B201F0FCFD17
S315000009C030B10125009801F039FE284603B0F0BD8C
S315000009D02C21042301FB0544E168278900980F4474
S315000009E039460DEB030201F02BFE05460028E8D13F
S315000009F046F60812BDF8043064899342009814D074
S31500000A006CB946F60712934209D1BDF80630234465
S31500000A103B44336001F012FE284603B0F0BD0325C7
S31500000A2001F00CFE284603B0F0BDBDF806309C422E
S31500000A30F5D1042301AAE11901F002FE0028C0D174
S31500000A40BDF804300098DCE7002370B54A7984B01D
S31500000A50012A0C460546CDE9023318D0002001A92B
S31500000A60FFF7A6FB0198002842D004F10801FFF722
S31500000A70CFFB002835D10198A66801F0DFFD284696
S31500000A803246214600F086FD002004B070BD0A689B
S31500000A90012AE3D10A79012AE0D101681B4A914271
S31500000AA006D0EA6A194B9A420FD0039EA660E6E783
S31500000AB0194603AAFFF778FF0028F2D040F2F45156
S31500000AC0134B144A14480AF009FC0121284602AACD
S31500000AD0FFF76AFF98B9DDE902639E4238BF1E46FA
S31500000AE0E4E740F22E610A4B0A4A0B480AF0F6FB8D
S31500000AF040F22C61094B074A07480AF0EFFB40F227
S31500000B000B61034B034A04480AF0E8FB3DB8F39631
S31500000B10A8D8000028DB0000B0D80000E4D8000008
S31500000B202DE9F0433A4B89B0064600200D461C6875
S31500000B3001F0B2FE06A9C0B201F03EFD18B1204692
S31500000B4009B0BDE8F083294601F0A6FE6F4207F022
S31500000B502C0707A9C0B2374401F02EFD78B90798D3
S31500000B6001F0A4FE0446079801F068FD7B1EF91CFF
S31500000B7001E08B4218D013F8012FA242F9D04FF0B2
S31500000B802C0808FB05F806EB0809D9F8102006988A
S31500000B9012F0100111D055B91E4A146801F04EFD2D
S31500000BA0204609B0BDE8F0830698002DF4D0014632
S31500000BB0304600F0A9FA0698EEE703464FF4807037
S31500000BC0019015483A460090CDE903110846029176
S31500000BD0FFF7C8FD0446114B56F8082006989A42BE
S31500000BE00CD1D9F80C20B9F808309B1806D28268C7
S31500000BF0934203D20A4B1B68A342CFD015B9054BCB
S31500000C001C68CBE70021826801F0E2FD0698F6E752
S31500000C101C07002018070020240800203DB8F39682
S31500000C202008002070B504460E2582B00120626AB5
S31500000C3001A9019501F00AFE30BB019B0220226D3D
S31500000C4001A9A362019501F001FEC8B9019B032029
S31500000C50E26D01A96365019501F0F8FD054698B9B5
S31500000C60019B206A236601F0E9FD0646A06D01F0AE
S31500000C70E5FD864238BF06462846A66602B070BD28
S31500000C800925284602B070BD0125284602B070BD70
S31500000C9070B50C46A379A2B0002B054601A90CBF7E
S31500000CA00120032001F088FC18B10124204622B05F
S31500000CB070BD0198FFF768FA0346A96E20461D46E7
S31500000CC000F0BAFB034601981D4401F0B7FD064645
S31500000CD0019801F0EBFD7F2201460DF109000CF0B1
S31500000CE0A1FC24793346294602AA01988DF80840CA
S31500000CF001F016FD0446003C18BF0124019801F0DE
S31500000D009DFC204622B070BD01F062BD2DE9F84F72
S31500000D10DDE90AB616B38846924699460024114F75
S31500000D2008E02B463A46504601F0FAFC2C4490B9AE
S31500000D30A64213D9351BB5F5806F28BF4FF48065E1
S31500000D4004EB09013A4640462B4601F079FC04EBD8
S31500000D500B010028E5D00120BDE8F88F0020BDE892
S31500000D60F88F00BF740A00202DE9F0430F460021DA
S31500000D70AB4AAC4BAC4D044687B0C56542620365D1
S31500000D80084601F089FD04F12001C0B201F014FC0F
S31500000D90002840F09481012101F07EFD04F14C0110
S31500000DA0C0B201F009FC002840F08981032004F15B
S31500000DB0580101F001FC002840F07A812046FFF737
S31500000DC031FF20B10123984284F8643051D00023CA
S31500000DD022462046194600F0B3FA054660B904F1EA
S31500000DE02C08034642460121204600F0A9FA204677
S31500000DF000F02EFB00283ED102AE012384F86430B9
S31500000E0001220023DFF844928DF80F200193002180
S31500000E102046FFF785FE0546D9F800308342834B0E
S31500000E200DD11B6883420BD0814A1268824252D090
S31500000E30019B01330193019B012B13D0FEE71D6833
S31500000E400023A06D0293C6E90133F36001F0F6FBBF
S31500000E50E06C01F0F3FB206A01F0F0FB284607B0D6
S31500000E60BDE8F083236A5A783A715B683C60BB60E0
S31500000E70E6E702AEC4E701236E4A02AE31462046DB
S31500000E80CDE904550392029300F0CCF90028B4D1C1
S31500000E909DF80D30012B2DD031462046FFF7D4FDAD
S31500000EA0002840F0F7809DF80F30DA1E012A84F8FA
S31500000EB0643012D9022B68D1002000F009FA00280C
S31500000EC061D0FF2384F8643040F2D3615A4B5B4A09
S31500000ED05B480AF003FA1D46B2E700F00FFA002855
S31500000EE04CD0FF229DF80F3084F86420023B022B81
S31500000EF0E2D9E9E7029B012BCED19DF80C1001291E
S31500000F00CAD19DF80F90B9F1010F4FD02046FFF7D7
S31500000F1007FEDFF83891D9F8003098427CD00523D7
S31500000F2084F864308DF80F30002000F0E7F9C0B97E
S31500000F3094F86420FF2A17D00023012A01930BD0CE
S31500000F4019462246204600F0FBF9034698B9424668
S31500000F500121204600F0F4F9DFF8F09057E7052B61
S31500000F60E2D0FF2384F8643040F6D201324B354A92
S31500000F7033480AF0B3F92D4B1D6861E79DF80F3031
S31500000F80023B022B98D994F86430FF2B9CD0334651
S31500000F9022460021204600F0D3F9002873D13346BB
S31500000FA042460121204600F0CBF926E7FFF7DAFAA0
S31500000FB0831E022B05464BD9C3B2042B84F864303A
S31500000FC08DF80F30CBD8012B1BD931462046FFF7C1
S31500000FD03BFD002865D194F86420D31E012B16D959
S31500000FE0022AA7D1002000F073F90028A0D0FF251F
S31500000FF040F6BB01144B134A114884F864500AF0BA
S315000010006DF9AED1DFF8449000230193FFE600F0BE
S3150000101075F90028EBD1E5E79DF80F30CDE700BF65
S31500001020040A002094090020240900201C0700203F
S315000010301807002001010001F0D8000038DB00008D
S31500001040B0D8000074DB0000A8D8000020080020FB
S3150000105049462046FFF764FDDFF88C90D9F800205A
S3150000106090420AD0194A126890427FF458AF012381
S3150000107084F864308DF80F30C6E7EBB284F864303C
S315000010808DF80F30A1E740F28271114B114A1248D8
S315000010900AF024F940F2BB610D4B104A0E480AF0E3
S315000010A01DF94FF4CF610A4B0D4A0B480AF016F9A9
S315000010B040F66801064B0B4A07480AF00FF940F65E
S315000010C05D01034B074A04480AF008F91807002097
S315000010D0A8D8000054DB0000B0D8000038DB0000C0
S315000010E014DB000074DB000020080020054B10B55F
S315000010F06C220446002118460CF094FA2146FFF7AC
S3150000110033FE10BD740E00202DE9F8430F46002172
S315000011108146084601F0C0FB04460121002001F08B
S31500001120BBFB3B78A3422BD0834226D101222C2342
S31500001130D9F8680003FB0299D9F82840FFF714F89C
S31500001140013C00258046E40004E03544A845A4F1AE
S31500001150080413D9D9F8243038461A19195956688B
S315000011601B683246C91AFFF7CFFD0028EDD049218A
S31500001170044B054A05480AF0B1F80120BDE8F8839A
S315000011800022D4E7A8D80000ACDB0000F4D80000A9
S3150000119030B583B00C46022069461546FFF79AF92A
S315000011A070BBE97901290ED19DF80330012B16D0C9
S315000011B02046A968FFF73AF8E0B92046FFF78AF813
S315000011C020BB03B030BD02462046FFF79BF900283E
S315000011D0EAD06921104B114A11480AF07FF82046DF
S315000011E0FFF7CCF80028E3D06E210B4B0B4A0C48D6
S315000011F00AF074F87221084B084A09480AF06EF89A
S315000012006521054B054A06480AF068F87D21024B20
S31500001210024A03480AF062F8A8D8000098DB0000EA
S31500001220F4D8000070B582B00D46064600F06CF9A1
S315000012300128E8601DD00228044604D000283BD1CE
S31500001240204602B070BD012001A901F0B5F960B9D0
S315000012502A463146019800F091F8044658B10198A3
S3150000126001F0ECF9204602B070BD0124204602B020
S3150000127070BD0320E8E70198FEF7FCFF0123014655
S315000012800DF10302019801F0DBF9044660B9012271
S3150000129001980DF10301FFF705F838B10122134655
S315000012A08DF80320EB71DAE70124D8E79DF80330C7
S315000012B003F00F03EB71D2E79B21024B024A03486E
S315000012C00AF00CF8F0D8000084DB0000F4D8000027
S315000012D010B582B0012001A901F06EF918B1012400
S315000012E0204602B010BD0198FFF7B0F904460198F8
S315000012F001F0A4F9204602B010BD00BF10B584B0BD
S31500001300012001A901F058F918B10124204604B0C2
S3150000131010BD019802A9FFF761F8044648B99DF887
S315000013200B30032B07D0019801F088F9204604B052
S3150000133010BD0124F7E70198FFF720F80446F2E70D
S3150000134010B5002082B0144601F0A6FA01A9C0B279
S3150000135001F032F910B1012002B010BD224601465B
S315000013602023019801F06CF90446019801F066F912
S31500001370201E18BF012002B010BD00BF2DE9F04F9E
S3150000138083B0054689469346FEF7FEFE294680460B
S315000013900020FEF7EFFE061E42DB39D00024A246EF
S315000013A0274607E01FB1BAF1000F08BFA246013475
S315000013B0A6422CD0D9F868100123284601FB0481E7
S315000013C00DF1070201F03CF9002825DB0122284631
S315000013D00DF10701FEF766FF0028E3D197B1BAF1D8
S315000013E0000FE4D05646134B83FB0623A3EBE673AC
S315000013F003EB4302B61A01330136CBF800308BF803
S31500001400046005E00134A6424FF00107D2D15FB96E
S31500001410002003B0BDE8F08F012003B0BDE8F08FD7
S31500001420072003B0BDE8F08FBAF1000F18BF56468B
S31500001430D9E700BF5655555503790068013B01FBB6
S3150000144003F3013801EB410101FB0030704700BF97
S315000014502DE9F047846A0E2C2FD8476D0E2F2CD815
S315000014604FF0000C836DE646D3F808806146664669
S31500001470E24662466346A14201D3BE4519D2934273
S315000014801ED02DD2456ABCF1020F05EBC109D9F871
S3150000149004904B4411D04FF0010C61449342EAD1C1
S315000014A043459A441E4408D84FF0000C62466346F2
S315000014B0E1E7A14201D1BE4520D00020BDE8F0877A
S315000014C0456A05EBC109D9F80490056D4B4405EB57
S315000014D0CE09D9F8049001314A440EF1010EDDE738
S315000014E0056DBCF1010F05EBCE09D9F804904A440D
S315000014F0E3D04FF0020C0EF1010ECFE7AAEB060087
S31500001500B0FA80F04009D9E7F0B585B0012002A90C
S31500001510FEF7E0FF78BB03206946FEF7DBFF0646D1
S3150000152010BB184F05463C469DF808102078FEF77C
S31500001530A9FE38B90135042D04F10404F4D130466E
S3150000154005B0F0BD9DF800106078FEF79BFE002800
S31500001550F0D0A378042B03D09DF80A209A42E9D153
S3150000156007EB8507FE78EAE74FF4BF71064B074A9B
S31500001570074809F0B3FE4FF4BD71034B034A044814
S3150000158009F0ACFEF0DB0000A8D80000DCDB0000B0
S315000015902CD900002DE9F04700250F46AC462B4616
S315000015A02C460646406A88B000F1040E93423BD3AF
S315000015B0634539D394454ED363454CD8D6F858C0C5
S315000015C0E1004318DCF808205D684FF00008AA42E5
S315000015D0D7F800E021D300F1040C05E05CF83430C4
S315000015E02B449A4204D31D462146013CF6D20021E3
S315000015F00EF1FF3EC64537D9631C08F1010800F01D
S315000016008980D6F858C0D7F800E0E100706ADCF8A7
S31500001610082043185D68AA42DDD20EF1FF33434528
S3150000162020D908F10108F1E75EF8341094450B441F
S3150000163006D39C4504D39A420AD901340835B5E746
S31500001640316D9A42294449688C44F6D89445F4D3BE
S315000016506345F2D1B2E7316D294449688C4494451B
S31500001660EBD3F5E70025611C50F831200368B06E16
S31500001670A2EB0309FEF778FDD6E909C3013B0CEBA3
S31500001680C30EDEF80420DB00904208D9083B634411
S3150000169059689E460A449042A3F10803F8D8DCF83C
S315000016A00020DEF800309B1A09EB05029A4234D975
S315000016B03B68A5EB000A012B00F0108100230120F6
S315000016C003A9BB7100F078FF002840F04681022094
S315000016D004A900F071FF002840F03881032005A915
S315000016E000F06AFF002840F046813B79012B17D0B5
S315000016F0022B37D0032B55D0039800F09FFF049898
S3150000170000F09CFF059800F099FF631C08F10108A2
S315000017107FF477AF08B0BDE8F087AA460023CEE78E
S31500001720014605988268FFF7EFFA002840F03881F5
S315000017303B68059A012B00F0D680002330460093C3
S3150000174004994B46CDF804A0FFF7E0FA002840F0D4
S31500001750208139463046FFF79BFA02233B71002869
S3150000176040F0A0802A4649460498FFF7CDFA0028A3
S3150000177040F04081DDE903124B463046CDE9009A40
S31500001780FFF7C4FA002840F02E813B68012B00F0D9
S31500001790938039463046FFF77BFA03233B710028D6
S315000017A040F085802A4649460398FFF7ADFA03467E
S315000017B0002840F0D9803046CDE9009A039A059971
S315000017C0FFF7A4FA002840F0DD80BB79002B58D043
S315000017D00598FEF7D9FC03460AEB09000090B26EA5
S315000017E03046520001920599039AFFF78FFA18B115
S315000017F08E4A136801331360059806A9FEF7EEFDBD
S31500001800002840F0E9809DF81B300398012B74D026
S315000018109DF81910012906D00022FEF773FE002854
S3150000182040F0C5800398B968FEF700FD002840F037
S31500001830C5800398FEF74EFD002840F0C680BD79AE
S315000018403946B8713046FFF723FA01233B713B68EE
S3150000185001333B6018B1754A136801331360002DDC
S315000018603FF44AAF059800218268FFF74DFA002839
S315000018703FF442AF40F2A5216D4B6E4A6E4809F027
S315000018802DFD39463046FFF703FA01233B713B68CD
S3150000189001333B6000283FF42FAF644A13680133DD
S315000018A0136029E7614A1368013313605AE75F4AF8
S315000018B013680133136075E7BB79002B7FF469AFBA
S315000018C030460499FFF720FC00283FF462AF40F24F
S315000018D05E21574B574A584809F000FDBAEB0503FD
S315000018E018BF0123EBE6114630463A46FFF750FC97
S315000018F028BBBB7943B1059A1FE7FEF73FFD0028D9
S3150000190040F08D80039883E730460399FFF7FCFB90
S3150000191000287DD13A4630460399FFF739FC002866
S315000019206FD1059800218268FFF7EEF90028E2D012
S315000019304FF411713E4B3F4A3F4809F0CFFC4FF43C
S315000019400D713B4B3B4A3C4809F0C8FC4FF409710A
S31500001950374B384A384809F0C1FC4FF40871344B0C
S31500001960344A354809F0BAFC4FF41A71304B314A03
S31500001970314809F0B3FC40F227212D4B2D4A2E4861
S3150000198009F0ACFC40F26F21294B2A4A2A4809F09B
S31500001990A5FC40F24A21264B264A274809F09EFC20
S315000019A04FF40B71224B234A234809F097FC40F26F
S315000019B085211F4B1F4A204809F090FC40F28921DF
S315000019C01B4B1C4A1C4809F089FC40F29321184B1A
S315000019D0184A194809F082FC40F27B21144B154A3B
S315000019E0154809F07BFC40F25721114B114A124869
S315000019F009F074FC40F253210D4B0E4A0E4809F0D3
S31500001A006DFC40F23F210A4B0A4A0B4809F066FC7E
S31500001A104FF40F71064B074A074809F05FFC40F286
S31500001A207F21034B034A044809F058FCE00E0020CE
S31500001A30A8D80000C8DB00002CD900002DE9F0472B
S31500001A4082B09DF828A000283FD00D4600293CD042
S31500001A501746D2B30E899946CB6804461E44042322
S31500001A60314638460DEB030200F0EAFD804660BBC6
S31500001A7046F60811BDF804306A898B4217D022BB9E
S31500001A8046F60712934220D16760A4F808902560B5
S31500001A9084F80AA06B89BDF8062033441A4404363C
S31500001AA0C4E90462E360404602B0BDE8F087BDF8D1
S31500001AB00610914209D10423384601AA314400F0A8
S31500001AC0BFFD10B9BDF80430DAE74FF0FF38EAE79A
S31500001AD0002859D02DE9F0431F460368044683B019
S31500001AE0002B39D04068002836D09046D4E90452FD
S31500001AF0954245D289464FF6FF761EE004232169BA
S31500001B000DEB030200F09CFD30BBA37A226913B1F2
S31500001B10E368934234D92389BDF80610B34201F134
S31500001B2004051ED0BDF804C09C451AD0636915444F
S31500001B309D42256124D2D4E900305B89002BDDD09B
S31500001B40E368AB42DAD10423291D21610DEB0302C0
S31500001B5000F076FD0028D8D04FF0FF3003B0BDE886
S31500001B60F08317B1BDF804303B800432C9F8002079
S31500001B702369A8F800102B44236103B0BDE8F08365
S31500001B80012003B0BDE8F0834FF0FF30704700BF7F
S31500001B9048B103683BB143682BB1C068884294BF23
S31500001BA00020012070474FF0FF3070472DE9F04FBD
S31500001BB0057885B0032D04D03F4C204605B0BDE81E
S31500001BC0F08F1F46436B0446002BF5D0C56B0E46BF
S31500001BD00735ED08012105EB850093460BF07EFAEB
S31500001BE08046002865D0422D00EB450A00EB8509AA
S31500001BF027D0284683455A4628BF0246801A3146D2
S31500001C0048440BF02FFD2378072B22D8052B15D837
S31500001C10033B012B22D80023029300232A46414688
S31500001C203846039309F054FFD8B16FF007044046D5
S31500001C300BF05AFA204605B0BDE8F08F4FF08073DE
S31500001C40EAE740F20923E06B98420CBF40204220AD
S31500001C50D0E70C2B02D14FF00073DDE74FF0FF34D5
S31500001C60E5E72A4607F1080008EB050109F030FF11
S31500001C700028DAD12A4651460E9809F029FF002895
S31500001C80D3D10AEB05062A4631460F9809F020FF04
S31500001C9004460028C9D14B4642460196CDF800A01D
S31500001CA003A902A800F00EF8044B002818BF1C4632
S31500001CB0BDE7034C81E700BF80B1FFFF00B2FFFF25
S31500001CC080B2FFFF2DE9F0410646A8B02E9D0F46D3
S31500001CD02868696896469846AA68EB680DF10C0C68
S31500001CE0ACE80F0028696969AA69EB692F9CACE822
S31500001CF00F0020686168A268E368ACE80F00E3693A
S31500001D0020696169A269ACE80F003368A3B1B3F139
S31500001D10807F114B114D12BF22211D461C2100232D
S31500001D2013AC01201A46CDF800E0019408F0BAFE83
S31500001D3028B128B0BDE8F0811621094DEFE722460B
S31500001D4003AC4346394630460195009408F0D2FE6E
S31500001D5028B0BDE8F08100BF30F300002CF300008E
S31500001D6034F300008B6C70B50D460446002B3ED054
S31500001D70B0F90430002B33DB204609F087FEEB6B0D
S31500001D80B0EB430F31D82046AB6C9847064610BBE4
S31500001D9004350AE00021204609F058FFA8B12A467A
S31500001DA0214620460AF036F8B8B9B4F90430002BBB
S31500001DB0F0DB2946204609F0F7FE00280BDB2A4611
S31500001DC02146204609F0A0FF38B92946204609F0E9
S31500001DD0EBFE0028F3DA304670BD0646304670BD8D
S31500001DE0002109F033FF0028C6D0044EF3E72A1D70
S31500001DF00146BDE870400AF02DBB00BF80B0FFFF72
S31500001E00C3682DE9F04106460D461746EBB300F1CF
S31500001E100C02084609F0FEFF044698BB06F10408CA
S31500001E2006E042462946284609F06EFF044648BBAE
S31500001E304146284609F0B8FE0028F2DA3A46294615
S31500001E4028460AF029F80446E0B931462846FFF745
S31500001E5089FF0446B0B92946284606F1140209F05E
S31500001E60D9FF044670B906F1040805E04246294642
S31500001E70284609F049FF28BB4146284609F094FE4A
S31500001E800028F3DA2046BDE8F0810322084609F06F
S31500001E90E5FF04460028F5D106F104080DE000210F
S31500001EA0284609F0D3FE0028C8D0424629462846CF
S31500001EB009F0B0FF04460028E4D1B5F90430002B40
S31500001EC0EDDBBBE704462046BDE8F08138B50025CA
S31500001ED0044600F8045B09F0B5FC04F10C0009F0B7
S31500001EE0B1FC04F1140009F0ADFC04F11C0009F08A
S31500001EF0A9FC04F1240009F0A5FC04F12C0009F06A
S31500001F00A1FC04F1340009F09DFCC4E91155C4E9B3
S31500001F101355C4E91555C4E90F55E56538BD00BF2D
S31500001F2010B50446FFF7D2FF04F1640009F08AFCFD
S31500001F3004F16C0009F086FC04F1740009F082FCDF
S31500001F4004F17C00BDE8104009F07CBC002841D0BB
S31500001F50436C70B5012B064621D1B06DC8B1F36D47
S31500001F60BBB1002505EB450410EBC4040CD020469C
S31500001F7009F06EFC04F1080009F06AFC04F1100097
S31500001F8009F066FCD6E916030135AB42EAD80BF038
S31500001F90ABF83046BDE8704064210BF0ABB80C30AE
S31500001FA009F056FC06F1140009F052FC06F11C007B
S31500001FB009F04EFC06F1240009F04AFC06F12C005B
S31500001FC009F046FC06F1340009F042FC301D09F028
S31500001FD03FFCC2E7704700BFA8B110B50446FFF743
S31500001FE0B5FF04F1640009F033FC04F16C0009F05C
S31500001FF02FFC04F1740009F02BFC04F17C00BDE811
S31500002000104009F025BC70472DE9F04F87B0002B32
S3150000201071D0044600F1040948461E460F46904614
S3150000202009F038FDE3698346002B4FD0636A002B25
S315000020304CD098F8003063B9012E5CD13146384651
S3150000204009F0E2FC0546002845D0284607B0BDE861
S31500002050F08F00F1010AB2454DD8024608F10101A0
S31500002060384609F01FFD05460028EED1012107F18B
S31500002070100009F0C9FC05460028E6D198F80030A2
S31500002080042B039371D0039B023B012B33D8B2453B
S3150000209031D10021484609F0E9FC0128014607F143
S315000020A0080613D1484609F0E1FC012880460DD107
S315000020B004A809F0C7FB3A463946304609F0ECFE5B
S315000020C00546D0B104A809F0C3FBBEE72E4D28464D
S315000020D007B0BDE8F08F314607F1080009F094FC1F
S315000020E005460028B1D1014607F1100007B0BDE84A
S315000020F0F04F09F089BC254DA7E721463046FFF78A
S3150000210031FE05460028DDD13A4620463146FFF726
S3150000211077FE05460028D5D14246494604A809F06F
S3150000212081FE05460028CDD1022104A809F0F4FC61
S3150000213005460028C6D100904B463146304604AAD3
S315000021400AF0D4F905460028BCD10146304609F00C
S315000021508DFC039B03F0010B8345B3D03246494601
S31500002160304609F05BFE0546ACE74FEA4B03013308
S31500002170B342C0D15A4608EB0A0107F1080007B07E
S31500002180BDE8F04F09F08EBC80B1FFFF80B0FFFFC5
S31500002190F0B50D46064685B0012105F1100009F09F
S315000021A055FD002862D1F369002B5BD0736A002BC2
S315000021B058D001460446284609F048FD002855DB5C
S315000021C005F108072146384609F040FD00284DDB99
S315000021D0341D2146284609F0E7FC002846DA214648
S315000021E0384609F0E1FC002840DA684609F02AFB87
S315000021F002A809F027FB3A463946684609F04CFE24
S31500002200044640B1684609F023FB02A809F020FB0A
S31500002210204605B0F0BD31466846FFF7A3FD0446EB
S315000022200028EFD12A46294602A809F035FE0446C1
S315000022300028E7D1314602A8FFF794FD044600289E
S31500002240E0D12A46304602A9FFF7DAFD0446002807
S31500002250D8D1684602A909F0A7FC054B041E18BF91
S315000022601C46CFE7034C204605B0F0BD004CCFE737
S3150000227080B3FFFF80B0FFFF38B504460D46FFF779
S3150000228065FE2046FFF722FE032D257023D14FF071
S315000022900112134B13481449C4E90103C4E9051399
S315000022A012481349C4E90D03C4E90713114812493A
S315000022B0C4E909032263E162201D09F0E7FB034636
S315000022C004F13400E36309F0E1FB01230246002038
S315000022D0C4E9102338BD00232370084838BD00BF69
S315000022E00100080080DC000060DC000000DC00006B
S315000022F040DC000020DC0000A0DC000080B1FFFF15
S3150000230008B508F0A1FB002814BF6FF06F0000208D
S3150000231008BD00BF742200210BF084B901293AD808
S3150000232003461E48002910B499661D4908BF014698
S315000023301C4A4FF00100D9601B491C4C18BF1446BB
S315000023401B4A18BF0A4683F870001A489C601A4C4C
S3150000235018BF0446A0F121501A61A0F56D30174A46
S31500002360A0F28F20164918BF1146164A18BF02461A
S31500002370C3E90541DA61144C144A154815491CBFD6
S31500002380204611460022C3E90801C3E9002210468F
S315000023905DF8044B70476FF073007047BB67AE85FE
S315000023A0367CD507C1059ED83070DD176A09E66709
S315000023B03C6EF372F70E5939A54FF53AFFC00B3153
S315000023C0510E527F9B05688C64F98FA7BEFA4FA405
S315000023D01F83D9AB5BE0CD19002A4AD02DE9F8431B
S315000023E00368054603F03F079B1803604FF002039E
S315000023F00E46144680F8703002D3436801334360BA
S315000024006FB1C7F1400844451BD205F128002246AA
S31500002410314638440BF026F90020BDE8F8833F2CFE
S31500002420F3D924F03F073A463146284600F07AF8B9
S315000024300028F2D104F03F043E44002CECD00027E3
S31500002440E3E705F128094246314609EB07000BF0A0
S3150000245009F940224946284600F064F80028DCD1F4
S315000024602744A7F140043F2C4644DAD8002CD3D0A9
S31500002470E5E70020704700BFF8B5044680220368F0
S315000024800D4603F03F03581C3828234483F82820C0
S3150000249004F1280731D8C0F13802002138440BF086
S315000024A0C1F8D4E90030032284F870205A0F42EABA
S315000024B0C002DB0012BA1BBA226639464022204609
S315000024C0636600F02FF8064688B9A3682B60E368B8
S315000024D06B602369AB606369EB60A3692B61E36999
S315000024E06B61236AAB61A36E0BB9636AEB6120462D
S315000024F074210AF0FFFD3046F8BDC0F1400200210C
S3150000250038440BF08FF840223946204600F00AF88E
S3150000251006460028EBD10146382238460BF082F8F1
S31500002520BFE700BFF0B5064691B008AC0F461546AA
S315000025300021202220460BF075F896F8700008F06E
S31500002540D7FA0590B06E012818BF022008F0D0FA1D
S315000025503A460027EB1C9B0806F1080503930490F6
S3150000256006930194009506AB05A904A8029708F006
S31500002570B7FA80B9A4460446BCE80F00B060F16023
S3150000258032617361BCE80F00B061F161326273625F
S31500002590204611B0F0BD6FF06F04F9E708B540F2C0
S315000025A07921024B024A034808F098FE68D90000D8
S315000025B0A4DC000074D9000070B5154E04463378CB
S315000025C00D466BB1012C18D0022C1AD0032C1AD050
S315000025D00024D5210F4B104A10482C6008F07EFECF
S315000025E00F4A104B1168186808F0ECFC68B90E4BDE
S315000025F00E4A5A6001233370E4E70D4B00202B602E
S3150000260070BD0C4BFAE70C4BF8E74FF0FF3070BD8E
S31500002610E40E0020A0D90000E0DC000074D9000020
S31500002620E4D90000E8D9000020070020E80E0020C9
S31500002630F0DC0000FCDC000008DD0000704700BF95
S315000026402DE9F84390F801C0DFF880E04FEADC1C82
S315000026505EF82C801F46D8F80030044601330D463C
S31500002660164622D0EFF31089012383F310884378AE
S315000026707F2B0BD04FF0FF33C8F8003089F310885A
S31500002680EF210E4B0E4A0F4808F028FE0E4BD8E9F4
S3150000269000211868802308F009FD4FF0FF33C8F8C1
S315000026A0003089F310880028EAD161683A4630463E
S315000026B029440AF0D7FF0020BDE8F88368D9000056
S315000026C0D0DC000074D90000E8D9000014DD000059
S315000026D038B54378104ADB0952F8234023680133A2
S315000026E00FD0EFF31085012383F3108843787F2BF7
S315000026F009D04FF0FF304FF0FF33236085F3108889
S3150000270038BD002038BD0549802322680868616805
S3150000271008F0CCFCEFE700BF14DD0000E8D90000AC
S315000027202DE9F0471E464378254C17467F2B4FEA86
S31500002730D31254F8228004D1DFF89090214BC9F8C7
S315000027400030436816F07F0501EB030414D0D8F877
S31500002750003024F07F0A53451BD10025DFF86C902A
S31500002760D9F8000004F07C043246394620440AF0C9
S3150000277079FF2846BDE8F087EFF31088012383F33D
S31500002780108843787F2B12D088F310882846BDE83E
S31500002790F087FFF79DFFDFF8349005468022FF2182
S315000027A0D9F800000AF03EFFC8F800A0D8E70648AE
S315000027B0334622463946006808F078FC0546E3E7CA
S315000027C014DD0000E80E0020E8D9000028070020EC
S315000027D010B51446427843687F2A01D0062010BD02
S315000027E019440CB30023B1F5803F34BF4FF40050B9
S315000027F04FF400401A4603449C4202F10102FAD803
S31500002800EFF31084012383F31088084B186808F04F
S3150000281061FC84F310880028E1D04FF4DF71044B8B
S31500002820044A054808F05AFD2246E9E7E8D90000BF
S31500002830B0D90000BCDC000074D900004078A0F1DB
S315000028407F00B0FA80F04009C0017047431E012B9B
S3150000285010B404D9032818D000235B78FFDE0020CB
S315000028604FF40044034602F1040C42F8330000F52D
S315000028700040B0F5E02F4CF8334003F10103F4D1EA
S3150000288000205DF8044B0B60704700244FF40040B5
S315000028900123C2E90040F3E729B101290CBF022058
S315000028A04FF0FF3070470120704700BFFF20704790
S315000028B010B50A4C23780BB9002010BD0848FFF765
S315000028C007FF48B9074B186808F0C2FA08B9207024
S315000028D0F2E74FF0FF3010BDFFF760FEE40E002078
S315000028E0F0DC0000E8D9000081F30888BFF34F8FC1
S315000028F0BFF36F8F004700BF70B502688368128907
S31500002900D418D6586568FFF7D3FF054A00239460AC
S3150000291083F30A8831462846BDE87040FFF7E4BFD6
S3150000292000ED00E0F8B5804A804B8149814802F00D
S3150000293097FE4BF240554FF4E87042F613037E4C77
S315000029407E497F4AC4F8EC50C4F8EC00C4F8E010A5
S31500002950C4F8C420236023689F01FCD44FF4C055FB
S31500002960784B794AE5617949794802F079FE42F671
S315000029701303784A704DC4F8C42023602B689E0167
S31500002980FCD44FF4C054744B744A75497548EC61D5
S3150000299002F066FE4BF240564FF4E07042F6130327
S315000029A07149724A644CC5F8EC60C5F8EC00C5F88C
S315000029B0E010C5F8C4202B6023689D01FCD44FF4B9
S315000029C0C0556B4B6B4A6C496C48E56102F048FE9A
S315000029D040F68C3042F60703694A5749C4F8C400EA
S315000029E0C4F8E02023600B689C01FCD44FF4C0546B
S315000029F048F213236348504ACC61C1F8E0000B60EB
S31500002A0013689801FCD44FF4C05E48F6405C6FF042
S31500002A107F4749F240164FF0807552204FF08041B3
S31500002A20594B454CC2F81CE0C2F8ECC0C2F8EC7039
S31500002A30C2F8EC60C2F8EC50C2F80401C2F8D0103B
S31500002A40C2F8C430D4F80431002BFBDA002008F0B9
S31500002A504FF84FF0804648F6956542F613034B490A
S31500002A60354AC4F80001C4F8D060C4F8C450C4F8AC
S31500002A70E010236013689901FCD44FF4C05E48F659
S31500002A80405C6FF07F4749F240164FF000755220C8
S31500002A904FF080413C4B284CC2F81CE0C2F8ECC019
S31500002AA0C2F8EC70C2F8EC60C2F8EC50C2F804014F
S31500002AB0C2F8D010C2F8C430D4F80431002BFBDAC7
S31500002AC0002008F015F84FF0804642F6130330490F
S31500002AD02E4A194DC4F80001C4F8D060C4F8C410D9
S31500002AE0C4F8E02023602B689A01FCD44FF4C0544C
S31500002AF0284B294A29492A48EC6102F0B1FD42F2E5
S31500002B0013230F490C4AC5F8C4102B6013689B01A8
S31500002B10FCD44FF4C05047F61D41224BD061C2F899
S31500002B20EC10D361F8BD00BFC5E73E41829DE18B45
S31500002B305C6EE0A6C1173076001016400A00888148
S31500002B4005080800EEDAE2E467901CDBDD16021FDA
S31500002B50D313186605080900A9ABCE9ACA9B9F55E0
S31500002B6043F53732F150D5410A00848105080C003F
S31500002B7052B96A6E37989D645796EB597FE6783757
S31500002B80E000018140010480048A44004001048180
S31500002B90158E09000940CC5D54EE3707B7EF25BC0A
S31500002BA02DD2BA1B00206000F8B5494A494B4A4964
S31500002BB04A4802F055FD48F6E0456FF07F42484C22
S31500002BC04FF0807349F2E000C4F8EC505221C4F88B
S31500002BD0EC204FF08042C4F8EC00C4F8EC30414BD6
S31500002BE0C4F80411C4F8D020C4F8C430D4F80431B1
S31500002BF0002BFBDA002007F07BFF4FF0804648F6FB
S31500002C00946542F607033849354AC4F80001C4F80A
S31500002C10D060C4F8C450C4F8E0102360136899016A
S31500002C20FCD44FF4C05E48F6E04C6FF07F4749F2A3
S31500002C30E0064FF0007552204FF08041294B284C9A
S31500002C40C2F81CE0C2F8ECC0C2F8EC70C2F8EC6046
S31500002C50C2F8EC50C2F80401C2F8D010C2F8C43071
S31500002C60D4F80431002BFBDA002007F041FF4FF0C7
S31500002C70804642F607031D491B4A194DC4F8000158
S31500002C80C4F8D060C4F8C410C4F8E02023602B68F0
S31500002C909A01FCD44FF4C054154B164A16491748EE
S31500002CA0EC6102F0DDFC42F2132315490C4AC5F82B
S31500002CB0C4102B6013689B01FCD44FF4C05047F638
S31500002CC01D41104BD061C2F8EC10D361F8BD00BFB6
S31500002CD0AA090FF3C90201CDEFABAE0912662BCCE0
S31500002CE000101640048A4400E0000181148E090099
S31500002CF038CD2D4DE914ECDCE4AE2A8AE309FE99C1
S31500002D000508080000206000682210B5074B084C33
S31500002D10C4F80421C4F8E030D4F80431002BFBDAFF
S31500002D20006807F0E5FEC4F8000110BD0000018050
S31500002D3000101640682210B5074B084CC4F8042151
S31500002D40C4F8E030D4F80431002BFBDA006807F051
S31500002D50CFFEC4F8000110BD8000018000101640AF
S31500002D6000224FF0805310B50549064CC4F83811BF
S31500002D70C4F8F020636107F0BBFEC4F80C0110BD77
S31500002D806A8097F50010164000214FF00112044B9F
S31500002D900448C3F83801C3F8F010C3F80C21704793
S31500002DA0001016406A8097F538B50546FFF7ECFF28
S31500002DB001230A4C2846A36207F09AFE002343F239
S31500002DC0080143F21802E06361616261C4F8D03120
S31500002DD0C4F8D0312368002BFCDB38BD0010164048
S31500002DE038B50546FFF7D0FF01230B4C2846C4F83B
S31500002DF0803007F07DFE002343F2080143F21802FB
S31500002E00C4F88C0061616261C4F8D031C4F8D03175
S31500002E102368002BFCDB38BD0010164038B50D4684
S31500002E2007F066FE0346064C2846636107F060FE1F
S31500002E3000236061C4F8D031C4F8D03138BD00BF7A
S31500002E40001016402DE9F04FB64B06460D461446C7
S31500002E50B549B64AB64883B002F002FC40F2613189
S31500002E60B44AB54BC2F80411C2F8A430D2F8043102
S31500002E70002BFBDA51213368AE4FC2F8003173687C
S31500002E80C2F80031B368C2F80031F368C2F8003105
S31500002E90AA4BC2F80411C2F8A430D7F80431002BAB
S31500002EA0FBDA002007F024FEC7F8000102F05EFC02
S31500002EB05222A34B9F4EC7F80421C7F8C430D6F858
S31500002EC00431002BFBDA002007F012FE48F207233C
S31500002ED09C4A9849C6F80001C6F8E02033600B68A2
S31500002EE09801FCD44FF4C05040F20F23914AC861B8
S31500002EF00B6013689901FCD44FF4C05743F2E040CD
S31500002F005821914B8B4ED761C2F8EC00C2F80411E0
S31500002F10C2F8E030D6F80431002BFBDAFF2007F0C8
S31500002F20E7FD0746894B8A4A8A498B48C6F80071ED
S31500002F3002F0C4FBFFF7F6FC43F2E4415822824B51
S31500002F40DFF8F081C6F8EC10C6F80421C6F8E030C8
S31500002F50D8F80431002BFBDAFE2007F0C9FD06463F
S31500002F607E4B7F4A7F498048C8F8006102F0A6FB85
S31500002F70FFF71AFE7D4B7E4A7E497F4802F070FBC2
S31500002F8052227E4B6B4FC8F80421C8F8C430D7F8DC
S31500002F900431002BFBDA002007F0AAFD5222674B12
S31500002FA0644EC7F80001C7F80421C7F8C430D6F844
S31500002FB00431002BFBDA002007F09AFDC6F8000169
S31500002FC002F092FA00274FF4C00347F60142C6F812
S31500002FD0EC20F361C6F8D071F369B3F1807FC0F0DD
S31500002FE0DB80F36903F07F43B3F1206F00F0FC81CF
S31500002FF0F36903F07F43B3F1306F00F05E81F3694C
S3150000300003F07F43B3F1406F00F0A482F36903F04D
S315000030107F43B3F1506F00F0A383F36903F07F435E
S31500003020B3F1905F00F0F7834FF00C094FF0080AF8
S315000030304FF0040B10234E465746D8460195009391
S315000030404F4B504A5049514802F00AFB522140F674
S315000030508443384AC2F80411C2F8C430D2F80431A5
S31500003060002BFBDA002007F043FD4FF0804E48F6B8
S31500003070C51C42F213232F49C1F80001C1F8D0E064
S31500003080C1F8C4C00B600B689801FCD44FF4C05360
S31500003090CB6140F21223274A4B6053685900FCD596
S315000030A040F2613144F6A513D2F8000144F8080055
S315000030B0D2F80001E051D2F80001A051D2F8000187
S315000030C0009EA051C2F80411C2F8A430194AD2F8E1
S315000030D00431002BFBDA019B2D481B68C2F8003136
S315000030E055F80B30C2F8003141F2131355F80A10A7
S315000030F0C2F8001155F809400E49C2F80041C2F85D
S31500003100A40013600B689B01FCD44FF4C05047F633
S315000031101C42204BC861C1F8EC20CB6103B0BDE86E
S31500003120F08F00BF7EF3909C9E4BF0B19BFF5494B2
S3150000313080C21FF3001016400508040004080500AD
S31500003140840C000100000180A003018059E93B388E
S315000031503F395A2FBFA16AFA84B147AB3D67D37294
S31500003160F12D2283FCBB7002EAD3798596AC38D167
S315000031704C39F141FA719ECD19FEB40904080400D8
S315000031806C0E5B81DCE09F2352F24AD26D1C37D372
S31500003190450C900000206000754B764A76497748CA
S315000031A002F05EFAB123764A4FF080413260C6F8EB
S315000031B00431744B744AC6F8A4304FF44243C6F83F
S315000031C0D010C6F8C420714A7360D2F80431002BBF
S315000031D0FBDA2B686E4FC2F800316B68C2F800311B
S315000031E0AB68C2F80031EB68C2F8003139680829CB
S315000031F000F0A583204629464FF0140C0026634BA9
S31500003200D3F80421002AFBDA0A6906F1040EC3F892
S3150000321000214A69C3F800218A69C3F80021CA69F6
S31500003220C3F800215A685200FCD5D3F800210CF1EE
S3150000323010084260D3F8002110318260D3F80021D3
S31500003240C260D3F8002140F8102F3A68083A964534
S3150000325002D2C4467646D3E708364FEA860909F114
S3150000326010030CF104010CF1080009F1040809F13E
S31500003270080709F10C060093444A53685B00FCD525
S31500003280D2F8003144F80C30D2F800316350D2F84D
S3150000329000312350D2F8003144F8093002F0CAFA5E
S315000032A03C4B3D4A3D493E4802F008FA05EB09030E
S315000032B0BA46B146C3460193C2E63A4B3A4A3B493F
S315000032C03B4802F0CDF943F283191423394A3846B4
S315000032D0B2622946C6F80090F36200F0B3FC42F2EF
S315000032E083382423C6F800803846F362214600F06E
S315000032F0EBFC314A314B3249324802F0B1F9112325
S31500003300C6F800902020F362294600F09BFC21239A
S31500003310C6F800802020F362214600F0D5FC2A4A38
S315000033202A4B2B492B4802F09BF900F075FC22230F
S31500003330C6F800804020F362214600F0C5FC264B0B
S31500003340264A2749274802F0B9F94FF4C873009373
S3150000335005F580734FF486794FF4847A4FF4827BB7
S315000033604FF4C6764FF4C4774FF4C278019367E6FC
S31500003370A20B8EA4B12E8470401C4E1035F363D878
S3150000338000210080A649D000B687E0020010164052
S31500003390680F002097C7599A010B6542A6EFE8BF50
S315000033A03176A64C96B97693866EE533E01DB2BDAE
S315000033B003AEC00E01009F007E0B80C579973B408F
S315000033C079BB5279530E7504390D35222ACAF11488
S315000033D04F1BD8257F70F9F17775A2450FE331AA07
S315000033E0A2ECC3CE23D0DA03B34BB44AB449B548F2
S315000033F002F036F943F283121423B3493846B16218
S3150000340032602946F36200F01DFC242742F2833C19
S31500003410AE48AF4940F28223C6F800C0F762C6F84C
S31500003420D000C6F8C4102146AA4A736004F1800091
S3150000343053685B00FCD5D2F800314B60D2F80031FE
S315000034408B60D2F80031CB60D2F8003141F8103FE2
S315000034508142EDD19F4E33689F01FCD44FF4C05793
S315000034609D4B9E4A9E499F48F76102F0F9F840F24B
S3150000347061319D4B974AC6F80411C6F8A430D2F8BC
S315000034800431002BFBDA4FF0804142F21313D5F8DA
S315000034908000C2F80001D5F88400C2F80001D5F812
S315000034A08800C2F80001D5F88C00C2F80001C2F805
S315000034B0D0108E49C2F8C410864913600B68980173
S315000034C0FCD44FF4C05040F21223824AC8614B60CC
S315000034D053685900FCD5D2F800317E4EC4F88430CA
S315000034E0D2F80031C4F88830D2F80031C4F88C30F4
S315000034F0D2F80031C4F89030D6F8C8305A06FBD45A
S315000035007B4B7C4A7C497D4802F0AAF800F084FB9C
S3150000351042F28332222332602420F362214600F0F5
S31500003520D3FB774B774A7849784802F0C7F84FF4CF
S315000035309073009305F190034FF09C094FF0980AA1
S315000035404FF0940B4FF48E764FF48C774FF48A78C5
S31500003550019375E56E4B6F4A6F49704802F080F82B
S3150000356014236F4A6F493846B16232602946F362C6
S3150000357000F0EAFB24226C4940F202233160214626
S31500003580F2626A4A04F58070C6F8D020504AC6F83E
S31500003590C420504A736053685B00FCD5D2F80031F2
S315000035A04B60D2F800318B60D2F80031CB60D2F894
S315000035B0003141F8103F8842EDD1464E33689F01F5
S315000035C0FCD44FF4C0575A4B5A4A5B495B48F761E3
S315000035D002F046F840F26131434B3E4AC6F8041108
S315000035E0C6F8A430D2F80431002BFBDA4FF0804144
S315000035F042F21313D5F80001C2F80001D5F8040110
S31500003600C2F80001D5F80801C2F80001D5F80C018E
S31500003610C2F80001C2F8D0103449C2F8C4102D49CE
S3150000362013600B689E01FCD44FF4C05040F2122385
S31500003630284AC8614B6053685800FCD5D2F800315F
S31500003640244EC4F80431D2F80031C4F80831D2F857
S315000036500031C4F80C31D2F80031C4F81031D6F874
S31500003660C8305906FBD4364B364A3749374801F03D
S31500003670F7FF00F0D1FA22232B4A4420326021467C
S31500003680F36200F0A5FB324B324A3349334802F06D
S3150000369015F84FF40873009305F588734FF48E7987
S315000036A04FF48C7A4FF48A7B4FF407764FF4067703
S315000036B04FF405780193C3E420B0E841F7217ADCA2
S315000036C0BA232893FC0093C301009F000007004023
S315000036D08788E002001016403DB3E1654A5CDBDAFC
S315000036E0FC2DEDFE8A8EFE4EA549D0008588E000B1
S315000036F09801B92305DE0D4A8FC76C3895CE93A382
S315000037005AA504469C1158A0587C509ABE408EB7C4
S3150000371064AE085DF2BD53A2FDEC74CC83F3B840F1
S31500003720033101000100BF0003230100000F004028
S31500003730BDE39CA00AA118DF8E9EA028000256D5E4
S31500003740A4A43F763D9418A6B299A2DDD86456B5D6
S315000037507A23153A5A1B56CA86E64126D40C7C199A
S315000037607D4B7E4A7E497F4801F07AFF14237E4ACC
S31500003770DFF85C92B2623846C6F800902946F362DA
S3150000378000F0E2FA2423DFF84C823846C6F80080BF
S315000037902146F36200F01CFB744A754B7549764866
S315000037A001F05EFF1023C6F800904020F362294620
S315000037B000F0CAFA2023C6F800804020F3622146B2
S315000037C000F006FB6D4A6E4B6E496F4801F048FFEC
S315000037D000F022FA2223C6F800808020F3622146F8
S315000037E000F0F6FA694B6A4A6A496B4801F066FFCF
S315000037F04FF44473009305F500734FF403794FF4C7
S31500003800027A4FF4017B4FF443764FF442774FF43C
S315000038104178019314E4614B614A6249624801F0C0
S315000038201FFFB123614A4FF080413260C6F8043170
S315000038305F4B604AC6F8A4304FF44243C6F8D01036
S31500003840C6F8C4205C4A7360D2F80431002BFBDA58
S315000038502B685A4FC2F800316B68C2F80031AB686A
S31500003860C2F80031EB68C2F800313968082931D056
S31500003870204629464FF0140C00264F4BD3F804215E
S31500003880002AFBDA0A6906F1040EC3F800214A6928
S31500003890C3F800218A69C3F80021CA69C3F8002168
S315000038A05A685200FCD5D3F8002110314260D3F893
S315000038B000210CF110088260D3F80021C260D3F811
S315000038C0002140F8102F3A68083A964526D2C44699
S315000038D07646D3E720231C2618274FF014084FF00E
S315000038E010090C204FF0040C0093334A53685B0018
S315000038F0FCD5D2F8003144F80C30D2F800316350D0
S31500003900D2F800312350D2F8003144F8093001F0E2
S3150000391091FF2B4B2B4A2C492C48C5E408364FEA1D
S31500003920860909F110030CF104010CF1080009F1F4
S31500003930040809F1080709F10C060093D5E72023CE
S315000039401C2618274FF014084FF010090C204FF0D2
S31500003950040C009390E400BF1366CCC3B66239161C
S31500003960C79D3B64900798BE0100BF0036027B836B
S31500003970D1357CE44D6A92A63A312B7E1E5252997D
S315000039802F1EEFF6E86C11C6E5767BEE0C1A602466
S31500003990AAE9E14C607CF08B1E01BC0BB5938DD778
S315000039A00FA8FCB1D4D0358FC5E302DB002100801F
S315000039B0A649D0008688E00200101640680F002055
S315000039C0F35E6B96C2E23977959A6DD785D352002E
S315000039D00331010003230100F8B56E4A6E4B04461D
S315000039E00D466E486E4901F03BFE6E4E6E4BC6F8B4
S315000039F0C430D6F80431002BFBDA002007F078F843
S31500003A006A4B684FC6F80001C6F8C430D7F80431CF
S31500003A10002BFBDA664807F06BF80646654B664AEC
S31500003A206649C7F80061664801F01AFE49F22001AE
S31500003A304FF08072634B5B4EC7F8EC10C7F8EC2072
S31500003A40C7F8C430D6F80431002BFBDA002007F0A3
S31500003A504FF842F607035C495C4A524FC6F800012C
S31500003A60C6F8C410C6F8E02033603B689A01FCD45F
S31500003A704FF4C056564BFE61564A5749574801F017
S31500003A80EFFD574B474EC7F8A430D6F80431002B4C
S31500003A90FBDA544F544A57F825305449C6F80031DA
S31500003AA06B1C57F823305248C6F80031AB1C57F848
S31500003AB02330C6F80031EB1C57F82330C6F8003126
S31500003AC04C4B01F0CDFD40F2BD73364AC6F8A4302A
S31500003AD0D2F80431002BFBDA2B1D57F82330464968
S31500003AE0C2F800316B1D57F82330C2F80031AB1D08
S31500003AF057F8236041F21313073557F82500C2F82B
S31500003B000061C2F80001C2F8A410264913600B68D0
S31500003B109B01FCD44FF4C05040F26132374B214D2B
S31500003B20C861C1F80421C1F8A430D5F80431002BCE
S31500003B30FBDA2268324BC5F800216168314AC5F8C4
S31500003B400011A1683048C5F80011E168C5F80011F8
S31500003B502E4901F085FD40F261312D4B114AC5F821
S31500003B600411C5F8A430D2F80431002BFBDA47F66D
S31500003B701D412069274BC2F800016069C2F80001A7
S31500003B80A069C2F80001E069C2F80001C2F8EC10B1
S31500003B90D361F8BDFD617A3B10662E3697789AF0B0
S31500003BA023A0A7A3001016400C3A44001C3E0C00AC
S31500003BB08AD0740112992DBBA37ADC8C57DD279A23
S31500003BC0CC3344880C0A44001C0E0C0020000181F2
S31500003BD06583B1DAD772017C4F0CC295A4E863A362
S31500003BE03D07FB021CDD00000A1F310BC70D5219F1
S31500003BF03FD413C1C5B3B807450C8000057A080049
S31500003C00058F45E2B79041A409576281E25CA98F0E
S31500003C10057A090000206000042144F20443084AA2
S31500003C209161536293695905FCD444F6040304492F
S31500003C3053628B69C3F380225B05FAD48A617047AD
S31500003C400010164030B441F661754FF4E0641C4A2A
S31500003C501C4B10F1210FC2F80451C2F8B040C2F853
S31500003C60A43024D800F12003041DA34234BF01234D
S31500003C70082301EB800C00EB830001EB8001D2F8F6
S31500003C800431002BFBDADCF800300CF1100CC2F822
S31500003C9000315CF80C3C6145C2F800315CF8083C28
S31500003CA0C2F800315CF8043CC2F80031E7D1044A9E
S31500003CB013689B01FCD430BC4FF4C053D3617047EA
S31500003CC000101640A7C9D00040F2822310B41B4A48
S31500003CD01B4C10F1210FC2F8D0401A4CC2F8C44058
S31500003CE0536021D800F12003041DA34234BF0123F1
S31500003CF0082301EB800C00EB830001EB8001536885
S31500003D005800FCD5D2F80031CCF80430D2F8003196
S31500003D10CCF80830D2F80031CCF80C30D2F80031AB
S31500003D204CF8103F6145EAD1044A13689B01FCD464
S31500003D304FF4C0535DF8044BD36170470010164032
S31500003D4000070040B787E00030B443F661754FF4D2
S31500003D5070641D4A1D4B10F1410FC2F80451C2F8A0
S31500003D60B040C2F8A43025D800F1040C00F140039D
S31500003D70634534BF0123102301EB800C00EB830065
S31500003D8001EB8001D2F80431002BFBDADCF80030BD
S31500003D900CF1100CC2F800315CF80C3C6145C2F81D
S31500003DA000315CF8083CC2F800315CF8043CC2F80B
S31500003DB00031E7D1044A13689B01FCD430BC4FF4B0
S31500003DC0C053D361704700BF00101640A7C9D0008A
S31500003DD040F2022310B41C4A1C4C10F1410FC2F8E9
S31500003DE0D0401B4CC2F8C440536022D800F1040CEA
S31500003DF000F14003634534BF0123102301EB800C1F
S31500003E0000EB830001EB800153685800FCD5D2F823
S31500003E100031CCF80430D2F80031CCF80830D2F8B2
S31500003E200031CCF80C30D2F800314CF8103F614527
S31500003E30EAD1054A13689B01FCD44FF4C0535DF8E0
S31500003E40044BD361704700BF00101640000F0040BE
S31500003E50B787E0002DE9F843B84AB94B04460E4649
S31500003E60B848B94901F0FCFB01F080FC5222B74D7D
S31500003E70B74BC5F80421C5F8C430D5F80431002B7A
S31500003E80FBDA002006F034FE48F20723B14AAF49B8
S31500003E90C5F80001C5F8E0202B600B689801FCD43A
S31500003EA04FF4C05040F20F23A84AC8610B60136854
S31500003EB09901FCD44FF4C05743F2E0405821A64B79
S31500003EC0A24DD761C2F8EC00C2F80411C2F8E03086
S31500003ED0D5F80431002BFBDA112006F009FE07465F
S31500003EE09E4B9F4A9F49A048C5F8007101F0E6FB2A
S31500003EF0FEF718FD43F2E4415822974BDFF84C8257
S31500003F00C5F8EC10C5F80421C5F8E030D8F804313E
S31500003F10002BFBDA112006F0EBFD0546934B944A85
S31500003F2094499548C8F8005101F0C8FBFEF73CFEDD
S31500003F30924B934A9349944801F092FB5222934B39
S31500003F40824FC8F80421C8F8C430D7F80431002BD2
S31500003F50FBDA002006F0CCFD52228D4B7B4DC7F8D4
S31500003F600001C7F80421C7F8C430D5F80431002B86
S31500003F70FBDA002006F0BCFDC5F8000101F0B4FA3A
S31500003F8000274FF4C00347F60142C5F8EC20EB6169
S31500003F90C5F8D071EB69B3F1807F6ED3EB6903F09E
S31500003FA07F43B3F1206F00F08881EB6903F07F4314
S31500003FB0B3F1306F00F03081EB6903F07F43B3F16A
S31500003FC0406F00F07982EB6903F07F43B3F1506FE5
S31500003FD000F01B83EB6903F07F43B3F1905F00F0C1
S31500003FE0658310240C2508274FF00408694B6A4A9C
S31500003FF06A496B4801F034FB522240F68443DFF8ED
S315000040004C91C9F80421C9F8C430D9F80431002B01
S31500004010FBDA002006F06CFD4FF0804C48F6C51127
S3150000402042F21323494AC9F80001C9F8D0C0C9F8B9
S31500004030C410C9F8003013689901FCD44FF4C0537A
S31500004040D36140F212235360404A53685B00FCD5AB
S3150000405047F61C41D2F8003146F80830D2F8003154
S31500004060F351D2F800317351D2F8003133514D4B30
S31500004070C2F8EC10D361BDE8F8834B4B4B4A4C4970
S315000040804C4801F0EDFAB12240F686034A494FF05A
S3150000409080402960C5F80421C5F8A4304FF4424396
S315000040A046492A4AC5F8D000C5F8C4106B60D2F854
S315000040B00431002BFBDA2368414DC2F800316368F6
S315000040C0C2F80031A368C2F80031E368C2F80031D3
S315000040D0D5F800C0BCF1040F00F0DA8331464FF08A
S315000040E0140C0020194BD3F80421002AFBDA2269AC
S315000040F0071DC3F800216269C3F80021A269C3F84D
S315000041000021E269C3F800215A685200FCD5D3F8B1
S3150000411000210CF1100E4A60D3F8002110348A6099
S31500004120D3F80021CA60D3F8002141F8102F2A687D
S31500004130043A974246D2F4463846D4E757FA307DD9
S31500004140EE85F8DD430FA2233B011EB30010164097
S31500004150840C000100000180A003018074AAEF55C1
S31500004160ED9FEDABCDB4B4A02EF6C8AB4DB9627DD4
S3150000417033B91044B7F4A8016F83DA7951B62A5BD4
S31500004180A4DC6FD6C3F5785ED1FDF7FE0408040003
S31500004190040805006C0E5B81DCE09F2352F24AD2D4
S315000041A06D1C37D30020600016AC2C9D0A7D65F28D
S315000041B03FCEEDFDC7B2313B00210080B687E0025D
S315000041C0680F002000F108039B000CF1040E0CF1AF
S315000041D0080003F1040803F1080703F10C0503F1D5
S315000041E010048C494A685200FCD5D1F8002146F8E3
S315000041F00C20D1F8002146F80E20D1F800213250CB
S31500004200D1F80021F25001F015FB834B834A844913
S31500004210844801F053FAE9E6834B844A8449854889
S3150000422001F01EFA43F283191423834A2146AA6237
S315000042303846C5F80090EB6200F03EFB42F2833848
S315000042402423C5F800803846EB623146FFF73CFD73
S315000042507A4A7B4B7B497C4801F002FA11232146BE
S31500004260C5F800902020EB6200F026FB2123C5F85C
S3150000427000802020EB623146FFF726FD734A744B1F
S315000042807449754801F0ECF9FFF7C6FC2223C5F81E
S3150000429000804020EB623146FFF716FD6F4B704AF7
S315000042A07049714801F00AFA4FF4C8744FF4C675A4
S315000042B04FF4C4774FF4C27898E66C4B6C4A6D495C
S315000042C06D4801F0CDF943F2831214235A4938465A
S315000042D0A9622A602146EB6200F0EEFA242742F238
S315000042E0833C6648664940F28223C5F800C0EF6207
S315000042F0C5F8D000C5F8C4103146464A6B6006F1D1
S31500004300800053685B00FCD5D2F800314B60D2F8D0
S3150000431000318B60D2F80031CB60D2F8003141F821
S31500004320103F8842EDD13B4D2B689F01FCD44FF4E2
S31500004330C057544B544A55495548EF6101F090F91E
S3150000434040F2613140F68503324AC5F80411C5F8DA
S31500004350A430D2F80431002BFBDA4FF0804042F251
S315000043601313D4F88010C2F80011D4F88410C2F8E0
S315000043700011D4F88810C2F80011D4F88C10C2F8D5
S3150000438000114449C2F8D000C2F8C4102149136094
S315000043900B689801FCD44FF4C05040F212231D4A1A
S315000043A0C8614B6053685900FCD5D2F80031194CEE
S315000043B0C6F88430D2F80031C6F88830D2F8003119
S315000043C0C6F88C30D2F80031C6F89030D4F8C83030
S315000043D05A06FBD4304B314A3149324801F040F994
S315000043E0FFF71AFC42F28332222322602420E36282
S315000043F03146FFF769FC2C4B2C4A2D492D4801F01C
S315000044005DF94FF490744FF48E754FF48C774FF43A
S315000044108A78EBE5001016403B3E7D620A57B21FD4
S3150000442050D0B24D03304826CBDEE29DD5A62FFCF8
S315000044302EBEFA049386276501009F00AF0EE9366B
S315000044404BDCF19129F51735A1D5A07F4022FFC598
S31500004450BD71707F2B1C69D650BBA3CA00E4340C17
S315000044607605041D7E83E17169D02784698C0EC4AC
S315000044702A4620EBAA8E5BF008CAE82B000700400C
S315000044808788E00225AD1EBED53D3E01D66A5004A2
S3150000449053F77FC48588E00066183CFF4E0FF74B44
S315000044A062EA00B6611E863B9C8019B5E514650775
S315000044B04D7E65742EFBE823AC4BAD4AAD49AE4844
S315000044C001F0CEF81423AD4AAD493846A9622A60F8
S315000044D02146EB6200F032FA2422AA4940F2022376
S315000044E029603146EA62A84A06F58070C5F8D020F0
S315000044F0A64AC5F8C420A64A6B6053685B00FCD583
S31500004500D2F800314B60D2F800318B60D2F800311E
S31500004510CB60D2F8003141F8103F8842EDD19C4D76
S315000045202B689F01FCD44FF4C0579A4B9A4A9B497B
S315000045309B48EF6101F094F840F2613140F6850343
S31500004540934AC5F80411C5F8A430D2F80431002BFB
S31500004550FBDA4FF0804042F21313D4F80011C2F890
S315000045600011D4F80411C2F80011D4F80811C2F8E9
S315000045700011D4F80C11C2F800118A49C2F8D00013
S31500004580C2F8C410824913600B689C01FCD44FF436
S31500004590C05040F212237E4AC8614B6053685800EF
S315000045A0FCD5D2F800317A4CC6F80431D2F8003185
S315000045B0C6F80831D2F80031C6F80C31D2F800310D
S315000045C0C6F81031D4F8C8305906FBD4764B774A72
S315000045D07749784801F044F8FFF71EFB2223694A21
S315000045E0442022603146E362FFF7F2FB724B734AC6
S315000045F07349744801F062F84FF408744FF4077574
S315000046004FF406774FF40578F0E46F4B6F4A704924
S31500004610704801F025F81423594ADFF86091AA6220
S3150000462021463846C5F80090EB6200F087F924234E
S31500004630DFF850813846C5F800803146EB62FFF757
S31500004640C7FB654A654B6649664801F009F81023C1
S315000046502146C5F800904020EB6200F06FF9202358
S31500004660C5F800804020EB623146FFF7B1FB5E4A99
S315000046705E4B5F495F4800F0F3FFFFF7CDFA222358
S31500004680C5F800808020EB623146FFF7A1FB5A4B4C
S315000046905A4A5B495B4801F011F84FF444744FF4F1
S315000046A043754FF442774FF441789FE4564B574A8F
S315000046B05749584800F0D4FFB12240F686035649C0
S315000046C04FF080402960C5F80421C5F8A4304FF4A6
S315000046D0424352492E4AC5F8D000C5F8C4106B6053
S315000046E0D2F80431002BFBDA23684D4DC2F80031B5
S315000046F06368C2F80031A368C2F80031E368C2F803
S3150000470000312868042800F08D80314614200027E7
S315000047101F4BD3F80421002AFBDA226907F1040CA7
S31500004720C3F800216269C3F80021A269C3F8002119
S31500004730E269C3F800215A685200FCD5D3F800217B
S3150000474010344A60D3F8002100F1100E8A60D3F8C5
S315000047500021CA60D3F8002141F8102F2A68043AD4
S31500004760944580F0858070466746D2E73DA68DF376
S31500004770F16E6F190548E910B97660A203310100A0
S315000047800100BF0003230100000F00408788E002FC
S3150000479000101640A555FB048FB3D064076548F496
S315000047A05D7D6BA58588E0006CF3562BE710E6CEA1
S315000047B02EFFD8E50519ED4AA6CADFEAB7B79DEC84
S315000047C0A08347687CBB3D954E0CAEB9A5760166C5
S315000047D053A9584C5599A60D8F8DA39F8F9029BE2E
S315000047E0102E75D4974C7558970A6E472076D59D2E
S315000047F0489BED514846B33AA9ACFC45CB9141657F
S31500004800958AC8D22C8DDB257967B901FE1D175410
S31500004810FA67AB4FE4426D54002100808688E002BF
S31500004820680F002020241C2518274FF01408102399
S315000048304FF00C0C4FF0080E1A494A685200FCD58E
S31500004840D1F800213250D1F8002146F80E20D1F8D7
S31500004850002146F80C20D1F80021F25000F0EAFFC2
S31500004860114B124A1249134800F028FFFFF7BEBB4E
S3150000487007F108039B0000F1040E00F1080C03F198
S31500004880040803F1080703F10C0503F11004D3E74C
S3150000489020241C2518274FF0140810230C204FF055
S315000048A0080E9EE400101640407D41020F47C639AF
S315000048B0BAAAA4C42FBFFC0A30B448F6870341F64F
S315000048C061754FF4E0641C4A10F1210FC2F80451DF
S315000048D0C2F8B040C2F8A43024D800F12003041D69
S315000048E0A34234BF0123082301EB800C00EB8300B5
S315000048F001EB8001D2F80431002BFBDADCF8003042
S315000049000CF1100CC2F800315CF80C3C6145C2F8A1
S3150000491000315CF8083CC2F800315CF8043CC2F88F
S315000049200031E7D1044A13689B01FCD430BC4FF434
S31500004930C053D361704700BF0010164030B448F62C
S31500004940870343F661754FF470641C4A10F1410FFA
S31500004950C2F80451C2F8B040C2F8A43025D800F11C
S31500004960040C00F14003634534BF0123102301EB1F
S31500004970800C00EB830001EB8001D2F80431002BA0
S31500004980FBDADCF800300CF1100CC2F800315CF8F0
S315000049900C3C6145C2F800315CF8083CC2F80031B5
S315000049A05CF8043CC2F80031E7D1044A13689B0165
S315000049B0FCD430BC4FF4C053D3617047001016408E
S315000049C0F8B54BF2C0738022CC4DCD490446C5F8EC
S315000049D0EC10CC49CC48C5F8EC10CC4FCC49CD4EA8
S315000049E0C5F8EC30C5F8EC70C5F8EC10C5F8EC303D
S315000049F0C5F8EC60C5F8EC00C748C5F8EC00C74838
S31500004A00C5F8EC00C648C5F8EC30C5F8EC00C5F8AA
S31500004A10EC10C449C5F8EC30C5F8EC10C249C5F82D
S31500004A20EC10C249C5F8EC30C5F8EC1003F5870365
S31500004A30BF4903F51373C5F8EC20C5F8EC20A9624D
S31500004A40C5F8C430D5F80431002BFBDA002006F097
S31500004A504FF842F60703B74EB74AA849C5F8000112
S31500004A60C5F8C460C5F8E0202B600B689801FCD43B
S31500004A704FF4C05642F662754FF43060AF4B9F4A12
S31500004A80CE61C1F80451C1F8D000C1F8C430D2F8E3
S31500004A900431002BFBDAAA4B04F1440004F1450172
S31500004AA053F8200053F82110C2F80001C2F8001193
S31500004AB004F1460004F1470153F8211053F8200091
S31500004AC0C2F80001C2F800118C49D1F80421002A6D
S31500004AD0FBDA43F22320152204F1480553F825504A
S31500004AE0C1F8005104F1490553F82550C1F80051A9
S31500004AF004F14A0553F82550C1F8005104F14B055D
S31500004B0053F82550C1F8005108607C48CA62026813
S31500004B109201FCD44FF4C0527849C261D1F8042105
S31500004B20002AFBDA04F14C0004F14D0253F8200090
S31500004B3053F82220C1F80001C1F8002104F14E000B
S31500004B4004F14F0253F8200053F82220C1F8000167
S31500004B50C1F800216949D1F80421002AFBDA43F2A1
S31500004B6023209A2204F1500553F82550C1F800512C
S31500004B7004F1510553F82550C1F8005104F15205CE
S31500004B8053F82550C1F8005104F1530553F8255048
S31500004B90C1F8005108605948CA6202689701FCD4FE
S31500004BA04FF4C0525549C261D1F80421002AFBDAFC
S31500004BB004F1540004F1550253F8200053F8222062
S31500004BC0C1F80001C1F8002104F1560004F15702B2
S31500004BD053F8200053F82220C1F80001C1F8002143
S31500004BE04649D1F80421002AFBDA43F223201D228C
S31500004BF004F1580553F82550C1F8005104F1590540
S31500004C0053F82550C1F8005104F15A0553F82550C0
S31500004C10C1F8005104F15B0553F82550C1F8005165
S31500004C2008603648CA6202689601FCD44FF4C05246
S31500004C303249C261D1F80421002AFBDA04F15C0092
S31500004C4004F15D0253F8200053F82220C1F8000158
S31500004C50C1F8002104F15E0004F15F0253F8200060
S31500004C6053F82220C1F80001C1F800212349D1F8E8
S31500004C700421002AFBDA43F223209D2204F1600579
S31500004C8053F82550C1F8005104F1610553F8255039
S31500004C90C1F8005104F1620553F82550C1F80051DE
S31500004CA004F1630553F82550C1F800510860134814
S31500004CB0CA6202689501FCD44FF4C0520F49C26122
S31500004CC0D1F80421002AFBDA04F1640004F165023C
S31500004CD053F8200053F82220C1F80001C1F8002142
S31500004CE004F1660004F1670253F8200053F822200D
S31500004CF0C1F80001C1F80021004923E00010164068
S31500004D0040330030200005004000070045EC31012B
S31500004D104000030010B64B0180330030200007002E
S31500004D2014265401FE24BA0140000500D659BB01E1
S31500004D30010087001C3E0C00C0030181BF87F00202
S31500004D401CDD0000D1F80421002AFBDA43F22320FF
S31500004D50142204F1680553F82550C1F8005104F1F6
S31500004D60690553F82550C1F8005104F16A0553F856
S31500004D702550C1F8005104F16B0553F82550C1F8D0
S31500004D80005108603D48CA6202689101FCD44FF4A4
S31500004D90C0523A49C261D1F80421002AFBDA04F173
S31500004DA06C0004F16D0253F8200053F82220C1F87C
S31500004DB00001C1F8002104F16E0004F16F0253F8FE
S31500004DC0200053F82220C1F80001C1F800212B4928
S31500004DD0D1F80421002AFBDA43F223201A2204F137
S31500004DE0700553F82550C1F8005104F1710553F8C8
S31500004DF02550C1F8005104F1720553F82550C1F849
S31500004E00005104F1730553F82550C1F800510860AC
S31500004E101A48CA6202689201FCD44FF4C05540F2A7
S31500004E20BD721649C561C0F8C420D1F80421002A14
S31500004E30FBDA42F2132004F1740253F82220C1F87F
S31500004E40002104F1750253F82220C1F8002104F173
S31500004E507602773453F8225053F82420084BC1F8D1
S31500004E600051C1F80021054AC1F8C4300860136832
S31500004E709B01FCD44FF4C053D361F8BD001016401B
S31500004E80450C8000F8B54BF2C0738022C84DC94965
S31500004E900446C5F8EC10C849C848C5F8EC10C84F18
S31500004EA0C849C94EC5F8EC30C5F8EC70C5F8EC1029
S31500004EB0C5F8EC30C5F8EC60C5F8EC00C348C5F899
S31500004EC0EC00C348C5F8EC00C248C5F8EC30C5F89C
S31500004ED0EC00C5F8EC10C049C5F8EC30C5F8EC108C
S31500004EE0BE49C5F8EC10BE49C5F8EC30C5F8EC1063
S31500004EF003F58703BB4903F51373C5F8EC20C5F822
S31500004F00EC20A962C5F8C430D5F80431002BFBDAD1
S31500004F10002005F0EDFD42F60703B34EB34AA4495F
S31500004F20C5F80001C5F8C460C5F8E0202B600B6821
S31500004F309E01FCD44FF4C05643F662754FF4706080
S31500004F40AB4B9B4ACE61C1F80451C1F8D000C1F801
S31500004F50C430D2F80431002BFBDAA64B601CA11C2E
S31500004F6053F8200053F8211053F82450C2F800518A
S31500004F70C2F80001C2F80011E11C53F821008C4967
S31500004F80C2F80001D1F80421002AFBDA43F22320FB
S31500004F901A22251D53F82550C1F80051651D53F8F6
S31500004FA02550C1F80051A51D53F82550C1F80051F0
S31500004FB0E51D53F82550C1F8005108607C48CA62C7
S31500004FC002689501FCD44FF4C0527949C261D1F808
S31500004FD00421002AFBDA04F1080004F1090253F85F
S31500004FE0200053F82220C1F80001C1F8002104F185
S31500004FF00A0004F10B0253F8200053F82220C1F8EE
S315000050000001C1F800216A49D1F80421002AFBDA1F
S3150000501043F223201B2204F10C0553F82550C1F856
S31500005020005104F10D0553F82550C1F8005104F163
S315000050300E0553F82550C1F8005104F10F0553F839
S315000050402550C1F8005108605948CA6202689101AA
S31500005050FCD44FF4C0525649C261D1F80421002A4B
S31500005060FBDA04F1100004F1110253F8200053F8A2
S315000050702220C1F80001C1F8002104F1120004F158
S31500005080130253F8200053F82220C1F80001C1F89A
S3150000509000214749D1F80421002AFBDA43F22320F4
S315000050A0982204F1140553F82550C1F8005104F173
S315000050B0150553F82550C1F8005104F1160553F8AB
S315000050C02550C1F8005104F1170553F82550C1F8D1
S315000050D0005108603648CA6202689201FCD44FF457
S315000050E0C0523349C261D1F80421002AFBDA04F127
S315000050F0180004F1190253F8200053F82220C1F8D1
S315000051000001C1F8002104F11A0004F11B0253F852
S31500005110200053F82220C1F80001C1F800212449DB
S31500005120D1F80421002AFBDA43F22320992204F164
S315000051301C0553F82550C1F8005104F11D0553F81C
S315000051402550C1F8005104F11E0553F82550C1F849
S31500005150005104F11F0553F82550C1F800510860AD
S315000051601348CA6202689701FCD44FF4C052104932
S31500005170C261D1F80421002AFBDA04F1200004F10F
S31500005180210253F8200053F82220C1F80001C1F88B
S31500005190002104F1220004F1230253F8200053F801
S315000051A02220C1F80001C1F80021014924E000BF16
S315000051B00010164040330030200005004000070074
S315000051C03A427D014000030037C763018033003057
S315000051D020000700D8677C01B5DD260140000500E8
S315000051E036FABC01010087001C3E0C00C003018199
S315000051F0BF87F0021CDD0000D1F80421002AFBDA8B
S3150000520043F22320942204F1240553F82550C1F8D3
S31500005210005104F1250553F82550C1F8005104F159
S31500005220260553F82550C1F8005104F1270553F817
S315000052302550C1F8005108608348CA620268960189
S31500005240FCD44FF4C0528049C261D1F80421002A2F
S31500005250FBDA04F1280004F1290253F8200053F880
S315000052602220C1F80001C1F8002104F12A0004F14E
S315000052702B0253F8200053F82220C1F80001C1F890
S3150000528000217149D1F80421002AFBDA43F22320D8
S31500005290952204F12C0553F82550C1F8005104F16C
S315000052A02D0553F82550C1F8005104F12E0553F889
S315000052B02550C1F8005104F12F0553F82550C1F8C7
S315000052C0005108606048CA6202689501FCD44FF438
S315000052D0C0525D49C261D1F80421002AFBDA04F10B
S315000052E0300004F1310253F8200053F82220C1F8AF
S315000052F00001C1F8002104F1320004F1330253F831
S31500005300200053F82220C1F80001C1F800214E49BF
S31500005310D1F80421002AFBDA43F223209C2204F16F
S31500005320340553F82550C1F8005104F1350553F8FA
S315000053302550C1F8005104F1360553F82550C1F83F
S31500005340005104F1370553F82550C1F800510860A3
S315000053503D48CA6202689101FCD44FF4C0523A49F2
S31500005360C261D1F80421002AFBDA04F1380004F105
S31500005370390253F8200053F82220C1F80001C1F881
S31500005380002104F13A0004F13B0253F8200053F8DF
S315000053902220C1F80001C1F800212B49D1F80421CF
S315000053A0002AFBDA43F223209D2204F13C0553F840
S315000053B02550C1F8005104F13D0553F82550C1F8B8
S315000053C0005104F13E0553F82550C1F8005104F18F
S315000053D03F0553F82550C1F8005108601A48CA62C3
S315000053E002689201FCD44FF4C05540F2BD721649D2
S315000053F0C561C0F8C420D1F80421002AFBDA42F2C4
S31500005400132004F1400253F82220C1F8002104F1D0
S31500005410410253F82220C1F8002104F1420243342C
S3150000542053F8225053F82420084BC1F80051C1F814
S315000054300021054AC1F8C430086013689B01FCD4FA
S315000054404FF4C053D361F8BD00101640450C8000E0
S31500005450F0B54BF2C0721C274FF0220C16268021A5
S3150000546014251224194BDFF878E01948C3F8ECE04C
S31500005470DFF870E0C3F8ECE0C3F8EC20C3F8ECC04A
S31500005480C3F8EC00C3F8EC20C3F8EC70114FC3F876
S31500005490EC70114FC3F8EC70104FC3F8EC70C3F802
S315000054A0EC20C3F8EC60C3F8EC0000F50030C3F85C
S315000054B0EC20C3F8EC50C3F8EC00C3F8EC20C3F8BA
S315000054C0EC40C3F8EC10C3F8EC10F0BD0010164029
S315000054D04000030040000700803300302000070032
S315000054E0403300302000050043F224422DE9F0410C
