S026000072615F6D6375626F6F745F7261366D345F737761705F656E635F717370692E73726563FF
S31500000000103B0020510C0100790A01004D0C010043
S315000000104D0C01004D0C01004D0C01004D0C010072
S315000000200000000000000000000000004D0C010070
S315000000304D0C0100000000004D0C01004D0C0100AC
S315000000400348044B834202D0034B03B11847704761
S31500000050F4070020F407002000000000064B0749C3
S31500000060C91A891048BF0131491003D0044B0BB19E
S3150000007001481847704700BFF4070020F407002026
S315000000800000000010B5064C237843B9FFF7D8FFEF
S31500000090044B13B10448AFF300800123237010BD55
S315000000A01008002000000000986C010008B5054B00
S315000000B01BB105490548AFF30080BDE80840FFF7CE
S315000000C0CDBF00BF0000000014080020986C01009E
S315000000D0002300B585B068468DF8003003F082F93C
S315000000E048B901A801F042FD58B901A803F01AFD6C
S315000000F005B05DF804FB2021054B064A064810F0C2
S3150000010087FC3421054B034A034810F081FC00BFED
S31500000110584D0100105001007C4D0100904D01002A
S3150000012008B50B490B480FF0C7FF002301220A4907
S3150000013008480FF0A9FF38B90346032207490548C6
S315000001400FF0A2FF00B1FEE7BDE80840FFF7C0BF11
S315000001505C50010078080020695001001807002053
S31500000160022800D07047024B0248596810F0A6B921
S31500000170245001002C08002008B5FFF7D1FF00200D
S3150000018008BD00BF08B5B921024B034A034810F069
S315000001903FFC00BFA44D01006C510100D04D010091
S315000001A014F00CBD542303FB00F000F5607070479B
S315000001B00878032805D00138012894BF54204FF051
S315000001C0FF30704710B5044603F0F8FB2378032B85
S315000001D01ABF5423434300EB4003A06803F5607342
S315000001E0834201D8C01A10BDFFF7CCFF40F20313BB
S315000001F0F0B50C4687B0144E01AD0DF10607ADF80B
S315000002000430214615F8010B03F05EFAA0B9206808
S315000002101023816802AA103903F0E0FA78B9102297
S31500000220314602A814F0CAFC08B907B0F0BD206830
S3150000023003F098FABD42E4D14FF0FF30F5E72068AD
S3150000024003F090FAF8E700BFA851010070B50D461B
S31500000250044600F05BF801462A462046BDE8704099
S315000002600423803903F0BABA70B50C461546064623
S3150000027000F04CF804F1010C4FEACC1CA0EB0C0189
S31500000280ACF1740230462A448023BDE870408039C0
S3150000029003F0A4BA10B582B00446019100F036F816
S315000002A0042301460DEB03022046803900F080F856
S315000002B002B010BD70B50C461546064600F026F88D
S315000002C004F1010C4FEACC1CA0EB0C01ACF174025A
S315000002D0802330462A44803903F0A0FA003818BF3C
S315000002E0012070BD10B5044603F068FB2378032B8C
S315000002F01ABF5423434300EB4003A06803F5607321
S31500000300984201D3C01A10BDFFF73CFF80689038B1
S3150000031020F07F00A0F58070704700BF04280AD047
S31500000320052804D0401AB0FA80F040097047481EEC
S3150000033018BF012070470120704700BFA1B138B532
S3150000034015460AB9002038BD0C46013D03F090FB66
S31500000350631E611901E08B4204D013F8012F82421B
S31500000360F9D0EFE7012038BD0020704730B581682D
S31500000370A1B0103921F07F04054603F079FB702205
S315000003800146684614F02AFC084B0DF1800C0FCB91
S315000003900CE90F0080236A462146284603F03EFA00
S315000003A0003818BF012021B030BD00BFA8510100A0
S315000003B02DE9F0411D46A0B006460F46904603F0D3
S315000003C0FDFA6C1E0444C0F1000C04EA0C04802CF7
S315000003D004D94FF0FF3020B0BDE8F081304603F07D
S315000003E047FB414680462A46684614F021FC4146B2
S315000003F0621B0DEB050014F0F1FB23466A463946F5
S31500000400304603F00BFA003818BF012020B0BDE8D3
S31500000410F08100BF012300B5816883B0903901AA3D
S3150000042021F07F018DF80430FFF7C2FF03B05DF8BD
S3150000043004FB00BF38B50C4681680123903922467B
S3150000044021F07F01054603F0C9F900280BDB64B1F2
S31500000450284603F00DFB2378834208BF032305D10A
S315000004602370002038BD012038BD2378012B18BF2A
S315000004700223F5E730B50D46816887B0102302AA3E
S315000004801039044603F0AAF900284FDB204603F092
S31500000490EFFA02AB06A901E08B424AD013F8012B12
S315000004A09042F9D02D4B029A9A4244D002232B70E7
S315000004B0A1680123903921F07F0120460DF1070242
S315000004C0A1F5807103F08AF900282FDB9DF807302B
S315000004D0204603F00F021B092B716A7003F0C8FA5D
S315000004E09DF80730834234D1012200236A702B71B4
S315000004F0A2680123903A22F07F012046AA1C803987
S3150000050003F06CF9002811DB204603F0B1FAAB7852
S31500000510984208BF032302D0012B18BF02232046AE
S31500000520AB70E91CFFF786FF07B030BD012007B0AE
S3150000053030BD0323BBE70A4B039A9A42B6D1094B57
S31500000540049A9A42B2D1084B059A9A42AED1012337
S31500000550ADE76B78042BCBD9C6E700BF80002DE151
S315000005605D29410B8D77679C110F1F8A10B582B0EC
S315000005700C46C0B201A903F0A7F818B10124204621
S3150000058002B010BD21460198FFF774FF044601989A
S3150000059003F0E8F8204602B010BD00BF00B50E2AF1
S315000005A083B014D80E2919D8836841EA021CA3F136
S315000005B0900121F07F0101230DF10702A1F5807161
S315000005C08DF807C0FFF7F4FE03B05DF804FB4FF4A7
S315000005D0C171064B064A074810F01AFA4FF4C1716A
S315000005E0054B034A034810F013FA00BF0C4E0100F6
S315000005F07C510100204E01005C4E010030B587B0F1
S31500000600012004A903F060F810B1FF2007B030BD47
S31500000610049802A9FFF72EFF0446049803F0A2F8F7
S31500000620002CF2D1022001A903F04EF8002847D091
S3150000063003231C468DF813309DF80800284BB0F1B3
S31500000640010C18BF4FF0010C9DF80BE003F11201ED
S315000006501A78042A06D0052A18D0121AB2FA82F29B
S3150000066052096AB15A78042A05D0052A23D1621E96
S3150000067018BF012222B19A78042A09D0724507D000
S3150000068006338B42E4D1012007B030BD6246E8E76D
S31500000690DA78042A03D09DF813509542F0D11A79DE
S315000006A0042A03D09DF80A509542E9D15879831E51
S315000006B0022BABD9A9E7121BB2FA82F25209D9E78B
S315000006C004A90198FFF7D6FE0446019803F04AF8FC
S315000006D0012CADD0002C98D19DF81040ACE700BF9E
S315000006E094510100012300B5816883B0903921F04F
S315000006F07F0101AA80398DF80430FFF759FE03B057
S315000007005DF804FB32B10023013901F8013F0133E2
S315000007109A42FAD10020704738B54FF492741346C6
S31500000720802201FB04F402FB0131054620440C3112
S31500000730043002F08FF800280CBF012300232B554C
S3150000074018BF4FF0FF3038BD2DE9F04F8A46AE4B4B
S31500000750ADF5277DD3E90042136806941C4406468E
S315000007603023214627AA06A8CDF814A010F06AFB6C
S31500000770002840F02F81069B279A13449C4240F0A4
S31500000780AE812F9021462FAA06A810F099FB2F9B29
S31500000790184340F0B0815EAD2B4621463BAA06A821
S315000007A010F0DCFB002840F0C5813C9A072A40F097
S315000007B0A58196493D9814F001FA002840F09E81E3
S315000007C06A68082A40F091819149A86814F0F6F900
S315000007D0002840F08A810423214627AA06A810F0A3
S315000007E031FB002840F08D813023214627AA06A838
S315000007F010F028FB002840F08781002321462FAA0D
S3150000080006A82F9310F05CFB002840F06B812F9B0D
S31500000810012B40F067812146042327AA06A810F081
S3150000082011FB002840F08981279B202B40F0608136
S31500000830069F17AC38687968BA68FB680FC479698F
S31500000840BA69FB6938690FC45AA810F0E7FB5CA8BF
S3150000085010F0E4FB3BA802F0A1FA54A802F090FACB
S3150000086003213BA802F07AFD002840F031814123A4
S31500000870324654A93BA802F049FB002840F04781C4
S3150000088054A93BA802F006FC0446002840F03F812C
S31500000890202217A95CA810F0F1FC5E4B019400938E
S315000008A054AA5CAB5AA93BA802F080F80446202261
S315000008B00FA95AA810F0F8FC5CA810F0B5FB5AA8CE
S315000008C010F0B2FB3BA802F0B9FA54A802F0A6FA5F
S315000008D0002C7FD10BA811F0EDFF202221461FA886
S315000008E014F07CF94C4812F0B7F8012201460BA827
S315000008F012F014F800286AD120221FA90BA812F0C2
S31500000900CBF8002863D120220FA90BA812F062F9B8
S3150000091000285CD127A90BA812F06EF9002856D141
S315000009204FF0010A0BA811F0CBFF30275446DFF831
S31500000930E880DFF8E8900DF1BC0B0BA88DF820A03D
S3150000094011F0B8FF404612F087F8012201460BA8C5
S3150000095011F0E4FF00283AD1202227A90BA812F0B3
S315000009609BF8A0BB2CB9202229460BA812F032F91D
S3150000097068BB102249460BA812F02CF938BB01229D
S3150000098008A90BA812F026F908BB29460BA812F0F5
S3150000099033F90446D8B90BA811F092FF102FA7F12E
S315000009A020031DD0AE460BF1200BABF1200C9FB2FD
S315000009B0BEE80F00ACE80F009EE80F009DF820A0EF
S315000009C08CE80F000AF1010A5FFA8AFAB5E70BA86C
S315000009D011F076FF4FF0FF300DF5277DBDE8F08F63
S315000009E095E80F008BE80F0008A811F063FF0A488E
S315000009F012F032F80122014608A811F08FFF78B1F3
S31500000A0008A811F05DFFE5E7F8500100D451010098
S31500000A10C851010005070000704E0100784E010024
S31500000A20202233A90DEB020012F036F80028E7D198
S31500000A3006F161043A46214608A812F0CBF80028D0
S31500000A40DED127A908A812F0D7F80028D8D127ABFD
S31500000A50413656F8042B53F8041BB44282EA0102CD
S31500000A6040EA0200F5D1C0F307230343C0F307426F
S31500000A70134343EA1063DBB2002BC1D108A811F07F
S31500000A801FFF284601F012FE802228462FA901F0FA
S31500000A90E1FE00289ED1059B1FAACDE90143CDE9C1
S31500000AA00B00CDE90D0000920790102128460BABF4
S31500000AB007AA01F001FE00288CD1284601F026FF86
S31500000AC0003818BF012040420DF5277DBDE8F08FA4
S31500000AD03BA802F0B3F954A802F0A0F9C7E66FF0FC
S31500000AE0010079E76FF0090076E76FF0060073E71B
S31500000AF06FF00B0070E76FF002006DE76FF0050016
S31500000B006AE76FF0070067E76FF0080064E73BA845
S31500000B1002F094F954A802F081F95CA810F084FA66
S31500000B205AA810F081FA3BA802F088F954A802F0FE
S31500000B3075F94FE76FF004004EE76FF00A004BE7D8
S31500000B402DE9F0410446A8B0084619781D46164618
S31500000B5002F084FF00280BDB4FF49273C7B207FB49
S31500000B6003F314F803801C44B8F1000F03D00120EE
S31500000B7028B0BDE8F081201D01F098FD32233146F2
S31500000B802A46CDF8008005A801F0D8FC0346D8B95E
S31500000B9005A80DF10E0204A901F01AFD0028E7D1FF
S31500000BA0BDF80E30712B0FD1284604990BAA02F01E
S31500000BB015FE48B92E9B0BA803EBC7110C31FFF7A6
S31500000BC0C3FD28B0BDE8F0814FF0FF30D0E700BF8D
S31500000BD010B504460846117802F040FF031E08DBF4
S31500000BE04FF4927202FB03F3E05C003818BF012059
S31500000BF010BD002010BD00BF70B58EB0129C0CB9A0
S31500000C000EB070BD05460846117800221E0F4FEA49
S31500000C10135ECDE90622089266F307024FEA133CFB
S31500000C206EF30F221B096CF3174263F31F620992DE
S31500000C3002F014FF00281ADB4FF4927300FB03F353
S31500000C40EA18EB5C012B19D12146149C151DCDE940
S31500000C5001440AAA139C06AB0092284605AA0594ED
S31500000C6001F02AFD284601F051FE0EB070BD40F29B
S31500000C70C721064B064A07480FF0CAFE4FF43371E8
S31500000C80054B034A03480FF0C3FE00BF8C4E01001C
S31500000C90B8510100904E0100C84E01002DE9F04FF9
S31500000CA0ADB09DF8D8703649DFF8E4A001EBC70473
S31500000CB0646851F837102468054601EB04080BA850
S31500000CC016461C460391DAF800B011F0EDFD30230C
S31500000CD0414604AA03A810F0B5F8002845D1DDE97D
S31500000CE0032302EB0309494603A808AB05AA10F043
S31500000CF035F9002839D1069A072A36D121490798AD
S31500000D0013F05CFF88BB099A082A2ED11E490A985F
S31500000D1013F054FF48BB494604AA03A810F0F8F89C
S31500000D2018BBDDE90373FA1891451ED1412B1CD17E
S31500000D3003210BA802F012FBF0B93A46A8EB070311
S31500000D4026A90BA802F0E2F8B0B926A90BA802F072
S31500000D50A1F988B933462946202200940BA811F040
S31500000D6099FD48B9094BD3F800B00BA811F09EFDC8
S31500000D7058462DB0BDE8F08FDAF800B0F5E700BFB1
S31500000D8004510100E8510100DC51010088080020EF
S31500000D906C0700202DE9F04FA44DDFB02D681746F3
S31500000DA005951D461B78689E022B6A9CDDF8B0B13E
S31500000DB00690079108D1136913F00C0F04D02A4648
S31500000DC0FFF706FF00287FD03EA802F015FB0021A2
S31500000DD03EA802F01BFB1CB16B9B002B00F3BE80F0
S31500000DE0B7F808A0FA68798902EB0A0911EB090835
S31500000DF045D0CDF8B0B10024DDF8A4B1049707E0E2
S31500000E003A4631463EA83C4402F05EFBA04533D943
S31500000E10A8EB04075F4528BF5F46544504D2E31993
S31500000E209A4538BFAAEB04074C4504D2E319994505
S31500000E3038BFA9EB04073B4632462146284602F056
S31500000E40CDFC002840D12B78022BD9D1049B1B69FD
S31500000E5013F00C0FD4D05445D2D34C45D0D2DDE993
S31500000E600601A4EB0A0303F00F02019202962A463A
S31500000E700097FFF7C1FEC3E7049FDDF8B0B111A9E3
S31500000E803EA802F071FBBBF1000F12D011AC0FCCE3
S31500000E90CBF80000CBF80410CBF80820CBF80C30C8
S31500000EA00FCCCBF81000CBF81410CBF81820CBF8E9
S31500000EB01C300023394600932A464FF6FF730BA8D1
S31500000EC001F03CFB074630B1584B1B68059305986B
S31500000ED05FB0BDE8F08F2846109CFFF703FA844206
S31500000EE0F2D84FF0FF344FF6FF76DFF84C810DF164
S31500000EF0260309AA0AA90BA801F06AFB0028E3DB6E
S31500000F0040F08F800A990BA801F0C2FB002842D05E
S31500000F10BDF82630102B27D0012B47D0222BE6D147
S31500000F20002C7BDBD8F80030A34277DDBDF82430F7
S31500000F30802BC9D828460A993EAA02F04FFC002801
S31500000F40C2D1E4B22021BDF8243000943EAA11A8F3
S31500000F50FFF7A4FE05904FF0FF34C8E721461A4676
S31500000F603EA802F0B1FA3BE7BDF82470202FABD1C2
S31500000F703B4628460A993EAA02F030FC0028A3D137
S31500000F803A463EA911A8FFF70BF9294B1B68834285
S31500000F909AD10127ABE70123BDF82610254A9942CD
S31500000FA0B8D032F8023FB342F9D18DE7BDF824300C
S31500000FB0202B89D828460A993EAA02F00FFC04463F
S31500000FC0002881D19DF824B0BBF1200F26D8D8F88F
S31500000FD000A0BAF1000F21DDDFF8609021A802F031
S31500000FE00BFA002121A802F011FAD9F80430D9F839
S31500000FF000101A6821A802F067FA19A921A802F0C0
S31500001000B3FA5A463EA919A813F0D8FD09F1080902
S3150000101000283FF46CAF0134A245DFD14FF0FF3416
S3150000102065E7002F7FF453AF4EE700BF6C07002043
S3150000103088080020F0510100005101000451010010
S31500001040F0B5044683B000200D46164602F0FCFCBF
S315000010506946C0B202F038FB30B10125009802F0B3
S3150000106081FB284603B0F0BD2C21042301FB054477
S31500001070E168278900980F4439460DEB030202F018
S31500001080ADFB05460028E8D146F60812BDF8043047
S3150000109064899342009814D06CB946F607129342BD
S315000010A009D1BDF8063023443B44336002F05AFBB5
S315000010B0284603B0F0BD032502F054FB284603B0D2
S315000010C0F0BDBDF806309C42F5D1042301AAE11912
S315000010D002F084FB0028C0D1BDF804300098DCE79C
S315000010E0F0B5044683B000200E4602F0ADFC01A91F
S315000010F0C0B202F0E9FAA0B90746019802F0B8FCBE
S315000011000546019802F02EFB714201F02C012144A4
S315000011104B1E033101E08B4205D013F8012FAA4282
S31500001120F9D04FF0FF37384603B0F0BD00232DE964
S31500001130F0414A7986B0012A0C460646CDE90433C9
S315000011403DD0002003A9FFF751F80398002800F0CE
S31500001150CF8004F10801FFF779F80546002840F032
S31500001160C080A36804F10B0705935FFA85F8224651
S3150000117041460398FFF778F8002840F09D803B46EB
S3150000118013F801CFBCF1FF0F12D101301028F7D1AF
S3150000119080370DB90125E8E7039802F0E3FA059ACE
S315000011A03046214600F056FF002006B0BDE8F0812B
S315000011B04146224606F16C00FFF7AEFAE8E70A68F8
S315000011C0012ABED10A79012ABBD101684C4A914253
S315000011D065D0336913F00C0F45D0336A06F16C0500
S315000011E000213246284600940393FFF7A9FC011E0E
S315000011F070DB1DD0F26A424B9A4242D0F36B06F185
S315000012002C0213F00C0F35D0F36C06F16C0500219F
S31500001210284600940393FFF793FC002853DB14D071
S31500001220DDE90432934284BF1A460593A260B7E70C
S3150000123022462846FFF770FA0028DBD040F2FF511D
S31500001240304B314A31480FF0E3FB22460121284654
S31500001250FFF762FA0028E3D040F21761294B2A4AC9
S315000012602A480FF0D5FB8022FF2104F10C0013F071
S31500001270B5FCBFE78022FF2104F18C0013F0AEFC21
S31500001280CEE70121304604AAFFF7DAFE0028B5D0E2
S3150000129040F20B611B4B1C4A1C480FF0B9FB194668
S315000012A005AAFFF7CDFE002893D040F2F451154B66
S315000012B0154A16480FF0ACFB40F23561114B124A45
S315000012C012480FF0A5FB40F21361114B0E4A0F486E
S315000012D00FF09EFB40F2FB510D4B0B4A0B480FF0F3
S315000012E097FB40F22E61074B074A08480FF090FB28
S315000012F040F22C61074B044A04480FF089FB00BFFB
S315000013003DB8F396D84E010030520100E04E010080
S31500001310144F01001C4F01002DE9F047DFF8108142
S3150000132088B0044600200D461746D8F8006002F043
S315000013308BFB07A9C0B202F0C7F918B1304608B056
S31500001340BDE8F08729462046FFF7CAFE30B12C23B8
S3150000135003FB0543186910F010010AD0002D41D196
S315000013602F4B07981E6802F0FDF9304608B0BDE81D
S31500001370F087C5F1000909F02C09DDF81CA0A1448D
S315000013809AF80030D8F80060022B30D110F00C0F1C
S315000013902DD004F16C0853464A4640460097FFF7A5
S315000013A0CFFB002806DB24D13A4601214046FFF751
S315000013B0B3F9F0B12C2305FB03F31A4AE158079859
S315000013C091421C440AD1E26823899B1806D282689E
S315000013D0934203D2144B1B68B342C4D0CDB9104B11
S315000013E01E68C0E72046079900F0D0FBB8E704F175
S315000013F06C084FF48076002101960C4E53460096F9
S315000014004A464046CDE903110291FFF7C3FC064662
S31500001410D0E70021826802F089FA0798DFE700BF6B
S31500001420680700203DB8F396880800208C08002045
S315000014306C07002070B504461C2582B00120626A44
S3150000144001A9019502F0C6FA30BB019B0220226D6C
S3150000145001A9A362019502F0BDFAC8B9019B032058
S31500001460E26D01A96365019502F0B4FA054698B9E3
S31500001470019B206A236602F0A1FA0646A06D02F0DF
S315000014809DFA864238BF06462846A66602B070BD5B
S315000014900925284602B070BD0125284602B070BD58
S315000014A070B50C46A379A2B0002B054601A90CBF66
S315000014B00120032002F008F918B10124204622B0C9
S315000014C070BD0198FEF77EFE0346A96E20461D46B6
S315000014D000F012FD034601981D4402F06FFA06461D
S315000014E0019802F0C5FA7F2201460DF1090013F0BA
S315000014F075FB24793346294602AA01988DF80840DF
S3150000150002F08CF90446003C18BF0124019802F051
S3150000151029F9204622B070BD02F008BA2DE9F04F35
S315000015208BB00590DDE914A9B9F1000F79D09B467F
S31500001530059B0E466C3317460025DFF8F0800993AD
S315000015400DE0022A6AD023464246384605EB0A01D8
S3150000155002F064F9002854D12544A94561D9A9EBC4
S315000015600504B4F5806F28BF4FF4806442463046C8
S31500001570234605EB0B0102F031F9002841D13378FF
S315000015803A78022BDDD1022ADDD05A46059B03F1BB
S315000015902C00036913F00C0FD5D001892A4491421F
S315000015A002EB040C31D96145CDD2204BA1EB020EE2
S315000015B01FFA8EFE73440793531A7344069300234F
S315000015C0ACEB010E0893C0680844604505D2824220
S315000015D02CBF4FF0000EA0EB020E079B3246029383
S315000015E0089B0021CDE900E30998069BFFF704FB61
S315000015F023464246384605EB0A0102F00FF9002859
S31500001600AAD001200BB0BDE8F08F531A069303F061
S315000016100F03A646CDF81C800893D4E752460598DA
S31500001620B7E700200BB0BDE8F08F00BF2C0C002000
S315000016302DE9F04F8A460021934A944B944DCBB046
S315000016400446C565426203650846CDF80CA002F063
S31500001650FBF904F12001C0B202F036F8002840F090
S315000016605B82012102F0F0F904F14C01C0B202F0F4
S315000016702BF8002840F05082032004F1580102F0B4
S3150000168023F8002840F041822046FFF7D3FE20B120
S315000016900123984284F8643059D00023224620461C
S315000016A0194600F0ADFB06AD064668B904F12C0BF1
S315000016B003465A460121204600F0A2FB204600F0D0
S315000016C027FC06AD002844D1012384F864300123A9
S315000016D000220DF11409EB71C9F800200022204602
S315000016E01146FFF719FE06466A4B1B6883426A4B92
S315000016F014D01E682A4600234AA902F8013B8A42F2
S31500001700FBD1A06D02F02EF8E06C02F02BF8206AF7
S3150000171002F028F830464BB0BDE8F08F1B688342D4
S31500001720E8D05E4A1268824248D0D9F800300133C8
S31500001730C9F80030D9F80030012B00D0FEE7236A43
S3150000174003995A780A715B680C608B60D2E706AD24
S31500001750BDE7FF214FF4807209A813F03FFA012379
S3150000176029462B60204603F10123AE60C5F80C61C3
S315000017706B6000F0B5FA0028A6D16B79012B2BD04F
S3150000178029462046FFF7D2FC002840F0A981EB79D4
S31500001790DA1E012A84F8643012D9022B62D10020A5
S315000017A000F0F6FA00285BD0FF2384F8643040F29C
S315000017B0D3613B4B3B4A3C480FF02AF91E4699E75A
S315000017C000F0FCFA002847D0FF22EB7984F8642069
S315000017D0023B022BE3D9EAE72B68012BD0D129790A
S315000017E00129CDD1EF79012F62D02A462046FFF795
S315000017F093FD284B1B68984200F01881052384F856
S315000018006430EB71002000F0D9FAC0B994F8642076
S31500001810FF2A17D00023012A0DF11409C9F8003058
S315000018203FF45CAF19462246204600F0E9FA03462B
S3150000183078B95A460121204600F0E2FA4EE7FF2326
S3150000184084F8643040F6D201154B184A16480FF05A
S31500001850DFF8114B1E684DE7EB79023B022B9ED950
S3150000186094F86430FF2BA2D02B4622460021204656
S3150000187000F0C6FA002840F02C812B465A4601217A
S31500001880204600F0BDFA1FE74C0B00206C0A002032
S315000018908C090020880800206C07002068070020BB
S315000018A08C4E010040520100E04E01007C520100C6
S315000018B0FEF7A4FE831E022B064640F2B980C3B291
S315000018C0012B84F8643000F0C480052BEB7199D0AD
S315000018D0B5D8023B022BB2D800212046FFF700FC08
S315000018E0064600212A462046FFF716FD26B1954BEF
S315000018F01B68984200F09380012004A901F0E4FEE1
S31500001900002840F0FB800DF114094946022001F041
S31500001910DBFE0746002840F0EA80D4F82880B8F1BC
S31500001920000F00F0BF800646636A394603EBC60324
S31500001930D3F804A00498524601F0F8FF002840F0BE
S31500001940C1800136B0455744EED1E26BD9F800307C
S3150000195012F00C0F0AD004F16C065A4600213046EC
S315000019600095FFF7EDF800280ADB50D00023019719
S31500001970D9F800102046049A0093FFF7CFFD30B146
S315000019804FF4CF61704B714A71480FF041F8236DE7
S3150000199001465A68D9F8000001F0C8FF002840F057
S315000019A0C980636D226D013B52F8331002EBC3030D
S315000019B01268D9F80000891A5A6801F0B7FF0028A2
S315000019C040F0B180049801F0CDFED9F8000001F096
S315000019D0C9FE94F86420D31E012B12D9022A7FF483
S315000019E017AF002000F0D4F900283FF40FAFFF2511
S315000019F040F6BB01544B574A554884F864500FF0E3
S31500001A0007F8002000F0DAF90028F0D1E9E73046BF
S31500001A102A460121FEF780FE0028A7D0B0E7294616
S31500001A202046FFF783FB0028D3D0A9E7EB7947E7E9
S31500001A3039462A462046FFF76FFC424A1268904212
S31500001A4032D0454A126890427FF4D8AE012384F81A
S31500001A50643000212046FFF743FB064600212A4654
S31500001A602046FFF759FC1EB1364A1268904208D04C
S31500001A70E66A01212A462046FFF74EFC374A96427F
S31500001A8017D094F86430052BEB713FF4BBAE3FF6EC
S31500001A90D6AE012B7FF41DAF00230DF11409C9F852
S31500001AA000301BE6474650E7F3B284F86430EB712A
S31500001AB00FE7244A12689042E3D1042384F8643085
S31500001AC0EB7109E740F261511F4B254A20480EF0A1
S31500001AD09FFF40F282711C4B224A1D480EF098FF70
S31500001AE040F2BB61184B204A19480EF091FF40F2B4
S31500001AF05B51154B1A4A16480EF08AFF40F25751B1
S31500001B00114B174A12480EF083FF40F668010E4B40
S31500001B10104A0F480EF07CFF40F65D010A4B0D4A55
S31500001B200B480EF075FF40F2C151074B0C4A0848AE
S31500001B300EF06EFF40F2B751034B094A04480EF00F
S31500001B4067FF00BF88080020D84E01001C52010024
S31500001B50E04E01007C520100680700203DB8F39674
S31500001B600C5201005C52010040520100064B10B5B8
S31500001B704FF42D7204460021184613F02FF8214623
S31500001B80FFF756FD10BD00BF2C1000202DE9F843CD
S31500001B900F4600218146084601F056FF0446012102
S31500001BA0002001F051FF3B78A3422BD0834226D17F
S31500001BB001222C23D9F8680003FB0299D9F82840A2
S31500001BC0FEF7F0FA013C00258046E40004E03544C7
S31500001BD0A845A4F1080413D9D9F8243038461A19AF
S31500001BE0195956681B683246C91AFFF795FC002832
S31500001BF0EDD04921044B054A05480EF009FF0120A6
S31500001C00BDE8F8830022D4E7D84E0100B4520100A3
S31500001C10284F010030B583B00C46022069461546B0
S31500001C20FEF7A4FC00283CD1E97901291CD19DF8D6
S31500001C300330012B24D0A9682046FEF72BFB014672
S31500001C4048BB2A462046FEF735FB00283BD12A46EC
S31500001C5001212046FEF72EFB00282ED12046FEF756
S31500001C6085FB20BB03B030BD02462046FEF796FC3E
S31500001C700028DCD06921174B174A18480EF0C8FE19
S31500001C802046FEF7C7FB0028D5D06E21114B124A1D
S31500001C9012480EF0BDFE72210E4B0F4A0F480EF091
S31500001CA0B7FE65210B4B0C4A0C480EF0B1FE7D21A8
S31500001CB0084B094A09480EF0ABFE7921054B064A46
S31500001CC006480EF0A5FE7621024B034A03480EF0A5
S31500001CD09FFE00BFD84E0100A0520100284F010010
S31500001CE070B582B00D46064600F06EF90128C5F8BB
S31500001CF00C011DD00228044604D000283BD1204602
S31500001D0002B070BD012001A901F0DEFC60B92A46CF
S31500001D103146019800F092F8044658B1019801F056
S31500001D2021FD204602B070BD0124204602B070BDE0
S31500001D300320E8E70198FEF7E9FA012301460DF1D1
S31500001D400302019801F04AFD044660B90122019898
S31500001D500DF10301FEF7F2FA38B1012213468DF8B0
S31500001D600320EB71DAE70124D8E79DF8033003F08E
S31500001D700F03EB71D2E79B21024B034A03480EF097
S31500001D8047FE00BF8C4E01008C520100284F010017
S31500001D9010B582B0012001A901F096FC18B101240A
S31500001DA0204602B010BD0198FEF79CFC044601983F
S31500001DB001F0D8FC204602B010BD00BF10B584B0BB
S31500001DC0012001A901F080FC18B10124204604B0CD
S31500001DD010BD019802A9FEF74DFB044648B99DF8CF
S31500001DE00B30032B07D0019801F0BCFC204604B051
S31500001DF010BD0124F7E70198FEF70CFB0446F2E755
S31500001E0010B5002082B0144601F01EFE01A9C0B232
S31500001E1001F05AFC10B1012002B010BD2246014665
S31500001E202023019801F0DAFC0446019801F09AFC9F
S31500001E30201E18BF012002B010BD00BF2DE9F04FD3
S31500001E4083B0054689469346FEF7BCF92946804687
S31500001E500020FEF7ADF9061E42DB39D00024A2466B
S31500001E60274607E01FB1BAF1000F08BFA2460134AA
S31500001E70A6422CD0D9F868100123284601FB04811C
S31500001E800DF1070201F0AAFC002825DB01222846F5
S31500001E900DF10701FEF752FA0028E3D197B1BAF126
S31500001EA0000FE4D05646134B83FB0623A3EBE673E1
S31500001EB003EB4302B61A01330136CBF800308BF838
S31500001EC0046005E00134A6424FF00107D2D15FB9A4
S31500001ED0002003B0BDE8F08F012003B0BDE8F08F0D
S31500001EE0072003B0BDE8F08FBAF1000F18BF5646C1
S31500001EF0D9E700BF5655555503790068013B01FBEC
S31500001F0003F3013801EB410101FB0030704700BFCC
S31500001F102DE9F047846A1C2C2FD8476D1C2F2CD82E
S31500001F204FF0000C836DE646D3F80880614666469E
S31500001F30E24662466346A14201D3BE4519D29342A8
S31500001F401ED02DD2456ABCF1020F05EBC109D9F8A6
S31500001F5004904B4411D04FF0010C61449342EAD1F6
S31500001F6043459A441E4408D84FF0000C6246634627
S31500001F70E1E7A14201D1BE4520D00020BDE8F087AF
S31500001F80456A05EBC109D9F80490056D4B4405EB8C
S31500001F90CE09D9F8049001314A440EF1010EDDE76D
S31500001FA0056DBCF1010F05EBCE09D9F804904A4442
S31500001FB0E3D04FF0020C0EF1010ECFE7AAEB0600BC
S31500001FC0B0FA80F04009D9E7F0B585B0012002A942
S31500001FD0FEF7CCFA78BB03206946FEF7C7FA064639
S31500001FE010BB184F05463C469DF808102078FEF7B2
S31500001FF095F938B90135042D04F10404F4D13046BD
S3150000200005B0F0BD9DF800106078FEF787F900284E
S31500002010F0D0A378042B03D09DF80A209A42E9D188
S3150000202007EB8507FE78EAE74FF4BF71064B074AD0
S3150000203007480EF0EDFC4FF4BD71034B034A04480C
S315000020400EF0E6FCF8520100D84E0100E452010001
S31500002050604F01002DE9F04700250F46AC462B46A0
S315000020602C460646406A88B000F1040E93423BD3E4
S31500002070634539D394454ED363454CD8D6F858C0FA
S31500002080E1004318DCF808205D684FF00008AA421A
S31500002090D7F800E021D300F1040C05E05CF83430F9
S315000020A02B449A4204D31D462146013CF6D2002118
S315000020B00EF1FF3EC64537D9631C08F1010800F052
S315000020C08980D6F858C0D7F800E0E100706ADCF8DD
S315000020D0082043185D68AA42DDD20EF1FF3343455E
S315000020E020D908F10108F1E75EF8341094450B4455
S315000020F006D39C4504D39A420AD901340835B5E77C
S31500002100316D9A42294449688C44F6D89445F4D3F3
S315000021106345F2D1B2E7316D294449688C44944550
S31500002120EBD3F5E70025611C50F831200368B06E4B
S31500002130A2EB0309FEF736F8D6E909C3013B0CEB1F
S31500002140C30EDEF80420DB00904208D9083B634446
S3150000215059689E460A449042A3F10803F8D8DCF871
S315000021600020DEF800309B1A09EB05029A4234D9AA
S315000021703B68A5EB000A012B00F02181002301201A
S3150000218003A9BB7101F0A0FA002840F05881022093
S3150000219004A901F099FA002840F04A81032005A914
S315000021A001F092FA002840F058813B79012B17D0B4
S315000021B0022B37D0032B55D0039801F0D3FA04989D
S315000021C001F0D0FA059801F0CDFA631C08F1010878
S315000021D07FF477AF08B0BDE8F087AA460023CEE7C4
S315000021E0014605988268FFF797F9002840F04A8172
S315000021F03B68059A012B00F0E780002330460093E8
S3150000220004994B46CDF804A0FFF788F9002840F062
S31500002210328139463046FFF743F902233B710028E5
S3150000222040F0B1802A4649460498FFF775F9002820
S3150000223040F05281DDE903124B463046CDE9009A63
S31500002240FFF76CF9002840F040813B68012B00F055
S31500002250A48039463046FFF723F903233B71002853
S3150000226040F096802A4649460398FFF755F90346FB
S31500002270002840F0EB803046CDE9009A039A059994
S31500002280FFF74CF9002840F0EF80BB79002B69D0AE
S315000022900598FDF797FF03460AEB09000090B26E1A
S315000022A03046520001920599039AFFF737F918B1A3
S315000022B09E4A136801331360059806A9FEF7DAF8FB
S315000022C0002840F017819DF81B300398012B00F081
S315000022D085809DF81910012906D00022FEF75EF9C7
S315000022E0002840F0D6800398B968FDF7D3FF014671
S315000022F0002840F0D5803A460398FDF7DBFF00281A
S3150000230040F0D5803A4601210398FDF7D3FF002817
S3150000231040F0D4800398FEF729F8002840F0E380C7
S31500002320BD793946B8713046FFF7BAF801233B71DB
S315000023303B6801333B6018B17C4A13680133136074
S31500002340002D3FF439AF059800218268FFF7E4F8C5
S3150000235000283FF431AF40F2A521754B754A764807
S315000023600EF056FB39463046FFF79AF801233B71CB
S315000023703B6801333B6000283FF41EAF6B4A13688D
S315000023800133136018E7694A13680133136049E79C
S31500002390664A13680133136064E7BB79002B7FF448
S315000023A058AF30460499FFF7F1FB00283FF451AFD0
S315000023B040F25E215E4B5F4A5F480EF029FBBAEBA6
S315000023C0050318BF0123DAE6114630463A46FFF701
S315000023D021FC30BBBB7943B1059A0EE7FEF71AF82C
S315000023E0002840F09C80039873E730460399FFF776
S315000023F0CDFB002840F08C803A4630460399FFF723
S3150000240009FC00287DD1059800218268FFF784F831
S315000024100028E1D04FF41171454B464A46480EF06C
S31500002420F7FA4FF40D71424B424A43480EF0F0FA68
S315000024304FF409713E4B3F4A3F480EF0E9FA4FF41C
S3150000244008713B4B3B4A3C480EF0E2FA4FF41A71D6
S31500002450374B384A38480EF0DBFA40F22721344B26
S31500002460344A35480EF0D4FA40F26F21304B314AE7
S3150000247031480EF0CDFA40F24A212D4B2D4A2E4816
S315000024800EF0C6FA4FF40B71294B2A4A2A480EF071
S31500002490BFFA40F28521264B264A27480EF0B8FAA5
S315000024A040F28921224B234A23480EF0B1FA40F22A
S315000024B08D211F4B1F4A20480EF0AAFA4FF42471B3
S315000024C01B4B1C4A1C480EF0A3FA40F25721184B2E
S315000024D0184A19480EF09CFA40F25321144B154A3B
S315000024E015480EF095FA40F29321114B114A124805
S315000024F00EF08EFA40F27B210D4B0E4A0E480EF07E
S3150000250087FA40F23F210A4B0A4A0B480EF080FA3E
S315000025104FF40F71064B074A07480EF079FA40F25E
S315000025207F21034B034A04480EF072FAE0120020A2
S31500002530D84E0100D0520100604F01002DE9F0474E
S3150000254082B09DF828A000283FD00D4600293CD037
S315000025501746D2B30E899946CB6804461E44042317
S31500002560314638460DEB030201F038F9804660BB70
S3150000257046F60811BDF804306A898B4217D022BB93
S3150000258046F60712934220D16760A4F808902560AA
S3150000259084F80AA06B89BDF8062033441A44043631
S315000025A0C4E90462E360404602B0BDE8F087BDF8C6
S315000025B00610914209D10423384601AA314401F09C
S315000025C00DF910B9BDF80430DAE74FF0FF38EAE745
S315000025D0002859D02DE9F0431F460368044683B00E
S315000025E0002B39D04068002836D09046D4E90452F2
S315000025F0954245D289464FF6FF761EE004232169AF
S315000026000DEB030201F0EAF830BBA37A226913B19D
S31500002610E368934234D92389BDF80610B34201F129
S3150000262004051ED0BDF804C09C451AD06369154444
S315000026309D42256124D2D4E900305B89002BDDD090
S31500002640E368AB42DAD10423291D21610DEB0302B5
S3150000265001F0C4F80028D8D04FF0FF3003B0BDE831
S31500002660F08317B1BDF804303B800432C9F800206E
S315000026702369A8F800102B44236103B0BDE8F0835A
S31500002680012003B0BDE8F0834FF0FF30704700BF74
S3150000269048B103683BB143682BB1C068884294BF18
S315000026A00020012070474FF0FF3070474FF49072C2
S315000026B0002112F093BA00BF2DE9F04F8DB0DDE98D
S315000026C0176916F003089A4609F0030202903DD1F5
S315000026D0002A46D037464FEA111B08ACBBF1000F63
S315000026E015D03B460025474698460392B7B9434660
S315000026F0524610210298009400F0B2F840B9039BAC
S31500002700ABB910343FB1103601355D45EED100202E
S315000027100DB0BDE8F08F08F11008F5E73068716874
S31500002720B268F3680DF1100CACE80F00DFE7206823
S315000027306168A268E36809F1100949F8100C49F8C4
S315000027400C1C49F8082C49F8043CDBE74FEA111B3E
S31500002750002104AFCDE90411CDE9061152B94C466A
S31500002760BCE733465246CDF858900DB0BDE8F04F61
S3150000277000F076B808ACB1E770B5144690B00546DF
S315000027800E463822002102A812F028FAC02C32D0B8
S31500002790B4F5807F28D0802C22D10A22D5F81831B2
S315000027A02A607BB30924002331462A1D02EB8404E8
S315000027B085F81C318B7891F801E091F800C01B0474
S315000027C0C87843EA0E2343EA0C0343EA006342F85F
S315000027D0043FA24201F10401ECD1002010B070BD0B
S315000027E06FF0710010B070BD0E22D5F818312A6056
S315000027F0D3B10D24D7E70C22D5F818312A60F3B1EE
S315000028000E24D0E702A9CDE900611A460521012070
S315000028100DF066FB4FF490740123C5F818310028BB
S31500002820DCD102AE6409BEE702A9CDE900611A4611
S31500002830072101200DF054FB4FF4D074ECE702A9F8
S31500002840CDE900611A46062101200DF049FB4FF43F
S31500002850E074E1E710B109B1FFF78EBF01207047C0
S31500002860F0B5044685B004200D4617461E460DF009
S315000028705DFB0021CDE9020121680A292CD00C2933
S3150000288017D00E293CD194F81C3153B9009704F1A6
S31500002890080202A903A80DF04FFBA0BB012384F890
S315000028A01C3130460A99AA0808F07EFD002005B0C2
S315000028B0F0BD94F81C314BB93A4604F1080102A860
S315000028C009F0ACFAF8B9012384F81C3130460A99AC
S315000028D0AA0809F0E5FCE9E794F81C3153B900971A
S315000028E004F1080202A903A80DF022FB58B901233E
S315000028F084F81C3130460A99AA0807F05BFED5E732
S315000029006FF07100D3E76FF06F00D0E7036810B582
S315000029100A2B04460BD00C2B0DD00E2B0FD107F033
S31500002920D5FF034673B984F81C31184610BD07F06D
S315000029302FF90346F6E709F0BFF90346F2E74FF031
S31500002940FF3010BD6FF06F0010BD00BFF0B58BB04B
S31500002950044604A817461D460E4600F011FA00214B
S31500002960119B20460193109B029100932A463B46F9
S3150000297004A900F007FC044628B104A800F04EFAAA
S3150000298020460BB0F0BD04A800F0B6FA50B904A971
S3150000299030460EF0E7FB044604A800F03FFA204656
S315000029A00BB0F0BD004CE8E780B0FFFFFFF7CEBFED
S315000029B0A0F10300B0FA80F04009704730B4007807
S315000029C00338092806D8DFE800F01922052B36055A
S315000029D00505050E4FF0240C4FF0FF300BB183F8C0
S315000029E000C030BC704700204FF00075174C0D60DA
S315000029F01060029A4FF0230C1460EFE70020144C8D
S31500002A0008601060029A4FF0170C1460E6E7002089
S31500002A10104C08601060029A4FF0190C1460DDE744
S31500002A2000204FF080750C4C0D601060029A4FF03C
S31500002A301D0C1460D2E700204FF08075074C0D6026
S31500002A401060029A4FF01F0C1460C7E75C6A010021
S31500002A506C6A0100686A0100646A0100606A01002C
S31500002A602DE9F04F057885B0032D04D03F4C204664
S31500002A7005B0BDE8F08F1F46436B0446002BF5D02A
S31500002A80C56B0E460735ED08012105EB850093461B
S31500002A9010F034FD8046002865D0422D00EB450A33
S31500002AA000EB850927D0284683455A4628BF0246AB
S31500002AB0801A3146484412F0BBF82378072B22D8F7
S31500002AC0052B15D8033B012B22D8002302930023A4
S31500002AD02A464146384603930EF0E6FBD8B16FF01E
S31500002AE00704404610F010FD204605B0BDE8F08F03
S31500002AF04FF08073EAE740F20923E06B98420CBF7F
S31500002B0040204220D0E70C2B02D14FF00073DDE7C6
S31500002B104FF0FF34E5E72A4607F1080008EB050108
S31500002B200EF0C2FB0028DAD12A4651460E980EF066
S31500002B30BBFB0028D3D10AEB05062A4631460F987F
S31500002B400EF0B2FB04460028C9D14B464246019618
S31500002B50CDF800A003A902A800F00EF8044B002847
S31500002B6018BF1C46BDE7034C81E700BF80B1FFFFDD
S31500002B7000B2FFFF80B2FFFF2DE9F0410646A8B084
S31500002B802E9D0F462868696896469846AA68EB689F
S31500002B900DF10C0CACE80F0028696969AA69EB69AC
S31500002BA02F9CACE80F0020686168A268E368ACE877
S31500002BB00F00E36920696169A269ACE80F00336818
S31500002BC0A3B1B3F1807F114B114D12BF22211D46D7
S31500002BD01C21002313AC01201A46CDF800E0019415
S31500002BE00DF07EF928B128B0BDE8F0811621094D17
S31500002BF0EFE7224603AC434639463046019500943A
S31500002C000DF0A8F928B0BDE8F08100BF646A0100A4
S31500002C105C6A01006C6A01008B6C70B50D46044657
S31500002C20002B3ED0B0F90430002B33DB20460EF0EB
S31500002C3019FBEB6BB0EB430F31D82046AB6C9847D2
S31500002C40064610BB04350AE0002120460EF0EAFBDA
S31500002C50A8B12A46214620460EF0C8FCB8B9B4F9F8
S31500002C600430002BF0DB294620460EF089FB0028B5
S31500002C700BDB2A46214620460EF032FC38B929469F
S31500002C8020460EF07DFB0028F3DA304670BD06467E
S31500002C90304670BD00210EF0C5FB0028C6D0044E9C
S31500002CA0F3E72A1D0146BDE870400EF0BFBF00BF26
S31500002CB080B0FFFFC3682DE9F04106460D46174672
S31500002CC0EBB300F10C0208460EF090FC044698BBEC
S31500002CD006F1040806E04246294628460EF000FCA6
S31500002CE0044648BB414628460EF04AFB0028F2DA65
S31500002CF03A46294628460EF0BBFC0446E0B9314662
S31500002D002846FFF789FF0446B0B92946284606F14A
S31500002D1014020EF06BFC044670B906F1040805E0D7
S31500002D204246294628460EF0DBFB28BB414628468C
S31500002D300EF026FB0028F3DA2046BDE8F0810322D8
S31500002D4008460EF077FC04460028F5D106F1040883
S31500002D500DE0002128460EF065FB0028C8D042464B
S31500002D60294628460EF042FC04460028E4D1B5F96F
S31500002D700430002BEDDBBBE704462046BDE8F081BE
S31500002D8010B504460EF04AF904F108000EF046F9B3
S31500002D9004F11000BDE810400EF040B938B500252A
S31500002DA0044600F8045B0EF039F904F10C000EF04D
S31500002DB035F904F114000EF031F904F11C000EF09F
S31500002DC02DF904F124000EF029F904F12C000EF07F
S31500002DD025F904F134000EF021F9C4E91155C4E9CE
S31500002DE01355C4E91555C4E90F55E56538BD00BF4F
S31500002DF010B50446FFF7D2FF04F164000EF00EF999
S31500002E0004F16C000EF00AF904F174000EF006F9F4
S31500002E1004F17C00BDE810400EF000B968B110B5B1
S31500002E2004460EF001F904F108000EF0FDF804F175
S31500002E301000BDE810400EF0F7B87047002841D0EA
S31500002E40436C70B5012B064621D1B06DC8B1F36D48
S31500002E50BBB1002505EB450410EBC4040CD020469D
S31500002E600EF0E2F804F108000EF0DEF804F11000AE
S31500002E700EF0DAF8D6E916030135AB42EAD810F0BF
S31500002E8043FB3046BDE87040642110F043BB0C3074
S31500002E900EF0CAF806F114000EF0C6F806F11C0092
S31500002EA00EF0C2F806F124000EF0BEF806F12C0072
S31500002EB00EF0BAF806F134000EF0B6F8301D0EF03A
S31500002EC0B3F8C2E7704700BFA8B110B50446FFF7D4
S31500002ED0B5FF04F164000EF0A7F804F16C000EF0E3
S31500002EE0A3F804F174000EF09FF804F17C00BDE82D
S31500002EF010400EF099B87047002108B510300EF05A
S31500002F0091FAB0FA80F0400908BD00BF2DE9F04FF4
S31500002F1087B0002B71D0044600F1040948461E46CE
S31500002F200F4690460EF0A2F9E3698346002B4FD078
S31500002F30636A002B4CD098F8003063B9012E5CD13F
S31500002F40314638460EF04CF90546002845D028464D
S31500002F5007B0BDE8F08F00F1010AB2454DD8024630
S31500002F6008F1010138460EF089F905460028EED130
S31500002F70012107F110000EF033F905460028E6D1CD
S31500002F8098F80030042B039371D0039B023B012B6E
S31500002F9033D8B24531D1002148460EF053F9012805
S31500002FA0014607F1080613D148460EF04BF90128F1
S31500002FB080460DD104A80EF031F83A46394630461F
S31500002FC00EF056FB0546D0B104A80EF02DF8BEE76C
S31500002FD02E4D284607B0BDE8F08F314607F10800B0
S31500002FE00EF0FEF805460028B1D1014607F11000A3
S31500002FF007B0BDE8F04F0EF0F3B8254DA7E7214620
S315000030003046FFF709FE05460028DDD13A46204640
S315000030103146FFF74FFE05460028D5D142464946C0
S3150000302004A80EF0EBFA05460028CDD1022104A82B
S315000030300EF05EF905460028C6D100904B46314693
S31500003040304604AA0EF03EFE05460028BCD10146D5
S3150000305030460EF0F7F8039B03F0010B8345B3D01F
S315000030603246494630460EF0C5FA0546ACE74FEA09
S315000030704B030133B342C0D15A4608EB0A0107F1AC
S31500003080080007B0BDE8F04F0EF0F8B880B1FFFFBA
S3150000309080B0FFFFF0B50D46064685B0012105F16B
S315000030A010000EF0BFF9002862D1F369002B5BD047
S315000030B0736A002B58D00146044628460EF0B2F932
S315000030C0002855DB05F10807214638460EF0AAF917
S315000030D000284DDB341D214628460EF051F9002804
S315000030E046DA214638460EF04BF9002840DA6846A3
S315000030F00DF094FF02A80DF091FF3A463946684656
S315000031000EF0B6FA044640B168460DF08DFF02A8EF
S315000031100DF08AFF204605B0F0BD31466846FFF740
S315000031207BFD04460028EFD12A46294602A80EF068
S315000031309FFA04460028E7D1314602A8FFF76CFD46
S3150000314004460028E0D12A46304602A9FFF7B2FD20
S3150000315004460028D8D1684602A90EF011F9054B9D
S31500003160041E18BF1C46CFE7034C204605B0F0BD31
S31500003170004CCFE780B3FFFF80B0FFFF0CF0E0BE4E
S315000031800CF0E6BE2DE9F04F05468BB000780F46F1
S3150000319016461C46FFF70CFC20B36B6B13B3E38A91
S315000031A0012B1FD123691B68E3B1E96B286E8B08DD
S315000031B0C1F3C01203F002031343021E18BF01221B
S315000031C095F800C002EB4302BCF1090F0CBF5E4B41
S315000031D05E4B53F82290B9F1000F00F09F80B1F5D5
S315000031E0807F04D05A4C20460BB0BDE8F08F0028F3
S315000031F04FF0040115BF3A2035204FF00D0B4FF06C
S31500003200080B10F07BF98046002800F08A80002326
S31500003210284608F1800503954FEA8B050595039D21
S31500003220099309AB009308AA07A90DF11B0305EB47
S315000032308B050495FFF7C2FB8246B0B1BBF10D0FBB
S315000032403AD0039B01200093049B9DF81B10019329
S3150000325000231A460CF044FE18B33E4C404610F0CC
S3150000326053F920460BB0BDE8F08F3046059A039916
S315000032700EF01AF8BBF10D0F8246E2D1DDE90353D9
S3150000328008F1B00C2E686868A968EA6810356545CB
S315000032901E6058609960DA6003F11003F2D12A6863
S315000032A01A60BAF1000FD8D12022414620460DF00F
S315000032B0FBFFA8B1284CD1E708F1B006DDE90353BE
S315000032C02C686868A968EA681035B5421C605860C1
S315000032D09960DA6003F11003F2D12A681A60BCE73C
S315000032E0202204F1080008EB02010DF0DDFF0028A2
S315000032F0E0D1099B08F140050093049A434608A9CA
S3150000330007A80195C8470028A7D120222946384694
S315000033100DF0B4FF38B16FF00F049FE76FF0710442
S3150000332061E70D4C5FE7202208F1600107F1080014
S315000033300DF0A4FF0028EED104F1100107F11000F2
S315000033400DF010FF044689E70853010028530100D9
S3150000335080B1FFFF80B0FFFF80B2FFFF38B50446A3
S315000033600D46FFF76BFD2046FFF718FD032D257070
S3150000337023D14FF00112134B13481449C4E901033A
S31500003380C4E9051312481349C4E90D03C4E9071338
S3150000339011481249C4E909032263E162201D0DF0B8
S315000033A061FF034604F13400E3630DF05BFF012384
S315000033B002460020C4E9102338BD002323700848C4
S315000033C038BD00BF01000800B05301009053010052
S315000033D0305301007053010050530100D0530100D7
S315000033E080B1FFFF08B50CF04DFD002814BF6FF04B
S315000033F06F00002008BD00BF7422002111F0EEBB53
S3150000340010B1742110F086B8704700BF01293AD870
S3150000341003461E48002910B499661D4908BF014697
S315000034201C4A4FF00100D9601B491C4C18BF1446BA
S315000034301B4A18BF0A4683F870001A489C601A4C4B
S3150000344018BF0446A0F121501A61A0F56D30174A45
S31500003450A0F28F20164918BF1146164A18BF024619
S31500003460C3E90541DA61144C144A154815491CBFD5
S31500003470204611460022C3E90801C3E9002210468E
S315000034805DF8044B70476FF073007047BB67AE85FD
S31500003490367CD507C1059ED83070DD176A09E66708
S315000034A03C6EF372F70E5939A54FF53AFFC00B3152
S315000034B0510E527F9B05688C64F98FA7BEFA4FA404
S315000034C01F83D9AB5BE0CD19002A4AD02DE9F8431A
S315000034D00368054603F03F079B1803604FF002039D
S315000034E00E46144680F8703002D3436801334360B9
S315000034F06FB1C7F1400844451BD205F128002246AA
S315000035003146384411F094FB0020BDE8F8833F2C87
S31500003510F3D924F03F073A463146284600F07AF8B8
S315000035200028F2D104F03F043E44002CECD00027E2
S31500003530E3E705F128094246314609EB070011F099
S3150000354077FB40224946284600F064F80028DCD183
S315000035502744A7F140043F2C4644DAD8002CD3D0A8
S31500003560E5E70020704700BFF8B5044680220368EF
S315000035700D4603F03F03581C3828234483F82820BF
S3150000358004F1280731D8C0F138020021384411F07F
S3150000359025FBD4E90030032284F870205A0F42EA52
S315000035A0C002DB0012BA1BBA226639464022204608
S315000035B0636600F02FF8064688B9A3682B60E368B7
S315000035C06B602369AB606369EB60A3692B61E36998
S315000035D06B61236AAB61A36E0BB9636AEB6120462C
S315000035E074210FF097FF3046F8BDC0F1400200216C
S315000035F0384411F0F3FA40223946204600F00AF822
S3150000360006460028EBD101463822384611F0E6FA84
S31500003610BFE700BFF0B5064691B008AC0F461546A9
S3150000362000212022204611F0D9FA96F870000CF0FD
S315000036307DFC0590B06E012818BF02200CF076FCC8
S315000036403A460027EB1C9B0806F1080503930490F5
S3150000365006930194009506AB05A904A802970CF001
S315000036605DFC80B9A4460446BCE80F00B060F1607A
S3150000367032617361BCE80F00B061F161326273625E
S31500003680204611B0F0BD6FF06F04F9E7012330B5A5
S315000036900C4A83B04FF0FF3415688DF8043004E00F
S315000036A0013C0BD09DF8043033B1AB682868DB6968
S315000036B001A998470028F3D003B030BD142003B009
S315000036C030BD00BF4C50010070B5184D04462B7834
S315000036D00E469BB10122164B164994425960164B71
S315000036E01A7018D0022C1AD0032C1AD00024D52117
S315000036F0124B134A134834600DF08AF9124A134BE1
S31500003700116818680CF0F8FF68B9114B114A5A6035
S3150000371001232B70DEE7104B0020336070BD0F4B8A
S31500003720FAE70F4BF8E74FF0FF3070BDE5120020C7
S3150000373070070020E8120020E41200209C4F0100D0
S3150000374010540100AC4F010030500100345001000C
S3150000375078070020E8160020205401002C540100B0
S3150000376038540100704700BFF8B54378184ADB09A2
S3150000377052F82340236801331AD0EFF31085012352
S3150000378083F3108843787F2B14D0124B1E68FFF703
S315000037907DFF38B9D6E90132306857699B68D4E9AC
S315000037A00021B8474FF0FF33236085F31088F8BD3A
S315000037B00020F8BD084980232268086861680DF07A
S315000037C00FF84FF0FF33236085F31088EFE700BF53
S315000037D0445401004C500100345001002DE9F041E1
S315000037E007460D4616469846FFF7BEFF48B90446FB
S315000037F0796842463046294411F01AFA2046BDE857
S31500003800F081EF21024B034A03480DF001F900BF96
S31500003810D84F010000540100AC4F01002DE9F84FCC
S315000038209B4643783B4C92467F2B4FEAD3120D467C
S3150000383054F822805CD0384B1B685B689E68374B17
S31500003840BBFBF6F406FB14B4354F42683B601544E7
S31500003850B4B1B5FBF6F2C6F1000909EA050906FBA3
S315000038601255D8F800204A4536D1002425F0030029
S315000038705A465146184411F0DBF92046BDE8F88F48
S31500003880EFF31089012383F3108843787F2B32D01E
S31500003890214BD3F80080D8F804309F68BB45BBFBAA
S315000038A0F7F614D3A5EB0A050AE0D8F80800514646
S315000038B044693B46D8F80000A047013EBA4425D0EB
S315000038C0FFF7E4FE05EB0A0204460028EDD089F373
S315000038D010882046BDE8F88FFFF746FFFF213246E5
S315000038E00446386811F07AF93B68C8F80090BDE7DD
S315000038F080260C4BA4E70C485B462A4651460068D6
S315000039000CF06EFF044689F31088E2E7044689F35B
S315000039101088DEE7445401004C500100E8120020F4
S3150000392080070020E81600203450010070B5437867
S3150000393045687F2B14460D4412D0C2F30E030BB11B
S31500003940062070BDFFF7A2FE0028FAD1164B2246CC
S315000039501B6829469C681868A369BDE8704018472B
S315000039606AB10023B5F5803F34BF4FF400504FF4E1
S3150000397000401A4603449C4202F10102FAD8EFF3D2
S315000039801084012383F31088084B294618680CF02D
S315000039903BFF84F310880028D3D04FF4DF71044B2B
S315000039A0044A05480DF034F84C500100345001002B
S315000039B0E44F0100EC530100AC4F010043787F2B2C
S315000039C004D0034B1B685B6898687047802070477B
S315000039D04C500100012810B406D002281AD0032842
S315000039E02AD000235B78FFDE00204FF40044034614
S315000039F002F1040C42F8330000F50040B0F5602FE8
S31500003A004CF8334003F10103F4D100205DF8044B78
S31500003A100B60704700234FF4004402F1040CD803F6
S31500003A2042F833004CF8334001331C2BF7D1002009
S31500003A305DF8044B0B60704700244FF400400123EF
S31500003A40C2E90040E1E700BF29B101290CBF02200D
S31500003A504FF0FF3070470120704700BF012905D0A5
S31500003A6002290CBF01204FF0FF307047002070473D
S31500003A70FF20704710B51A4C2378ABB9194B1B7849
S31500003A8083B11948FFF770FE18BBFFF7FFFD38B981
S31500003A90164B174A1B6810689B681B6B984770B9D2
S31500003AA000232370002010BD1248FFF75DFE48B9C1
S31500003AB00F4B18680CF066FD08B92070DEE74FF072
S31500003AC0FF3010BD40F279210B4B0C4A0C480CF02C
S31500003AD09FFF40F28F21084B084A09480CF098FFD7
S31500003AE0E5120020E41200202C5401004C50010085
S31500003AF03450010020540100D84F0100D453010076
S31500003B00AC4F010008B5FFF7B5FF003818BF01201C
S31500003B10404208BD81F30888BFF34F8FBFF36F8F14
S31500003B20004700BF70B5026883681289D418D6585A
S31500003B306568FFF7E7FF054A0023946083F30A8868
S31500003B4031462846BDE87040FFF7E4BF00ED00E0CF
S31500003B50F8B5804A804B8149814802F0E3FF4BF279
S31500003B6040554FF4E87042F613037E4C7E497F4A77
S31500003B70C4F8EC50C4F8EC00C4F8E010C4F8C42053
S31500003B80236023689F01FCD44FF4C055784B794AD3
S31500003B90E5617949794802F0C5FF42F61303784A90
S31500003BA0704DC4F8C42023602B689E01FCD44FF4EA
S31500003BB0C054744B744A75497548EC6102F0B2FF03
S31500003BC04BF240564FF4E07042F613037149724AC5
S31500003BD0644CC5F8EC60C5F8EC00C5F8E010C5F813
S31500003BE0C4202B6023689D01FCD44FF4C0556B4B59
S31500003BF06B4A6C496C48E56102F094FF40F68C30E4
S31500003C0042F60703694A5749C4F8C400C4F8E020DD
S31500003C1023600B689C01FCD44FF4C05448F2132374
S31500003C206348504ACC61C1F8E0000B601368980104
S31500003C30FCD44FF4C05E48F6405C6FF07F4749F213
S31500003C4040164FF0807552204FF08041594B454C3D
S31500003C50C2F81CE0C2F8ECC0C2F8EC70C2F8EC6026
S31500003C60C2F8EC50C2F80401C2F8D010C2F8C43051
S31500003C70D4F80431002BFBDA00200CF057F94FF092
S31500003C80804648F6956542F613034B49354AC4F813
S31500003C900001C4F8D060C4F8C450C4F8E010236032
S31500003CA013689901FCD44FF4C05E48F6405C6FF08F
S31500003CB07F4749F240164FF0007552204FF0804181
S31500003CC03C4B284CC2F81CE0C2F8ECC0C2F8EC70C1
S31500003CD0C2F8EC60C2F8EC50C2F80401C2F8D01089
S31500003CE0C2F8C430D4F80431002BFBDA00200CF003
S31500003CF01DF94FF0804642F6130330492E4A194DFE
S31500003D00C4F80001C4F8D060C4F8C410C4F8E020B8
S31500003D1023602B689A01FCD44FF4C054284B294ADF
S31500003D2029492A48EC6102F0FDFE42F213230F49AD
S31500003D300C4AC5F8C4102B6013689B01FCD44FF4E1
S31500003D40C05047F61D41224BD061C2F8EC10D3613A
S31500003D50F8BD00BFC5E73E41829DE18B5C6EE0A6E3
S31500003D60C1173076001016400A0088810508080041
S31500003D70EEDAE2E467901CDBDD16021FD313186649
S31500003D8005080900A9ABCE9ACA9B9F5543F5373261
S31500003D90F150D5410A00848105080C0052B96A6EBB
S31500003DA037989D645796EB597FE67837E000018196
S31500003DB040010480048A440040010481158E0900F4
S31500003DC00940CC5D54EE3707B7EF25BC2DD2BA1BA0
S31500003DD000206000F8B5494A494B4A494A4802F072
S31500003DE0A1FE48F6E0456FF07F42484C4FF08073E5
S31500003DF049F2E000C4F8EC505221C4F8EC204FF030
S31500003E008042C4F8EC00C4F8EC30414BC4F804110D
S31500003E10C4F8D020C4F8C430D4F80431002BFBDA3F
S31500003E2000200CF083F84FF0804648F6946542F681
S31500003E3007033849354AC4F80001C4F8D060C4F80D
S31500003E40C450C4F8E010236013689901FCD44FF401
S31500003E50C05E48F6E04C6FF07F4749F2E0064FF04F
S31500003E60007552204FF08041294B284CC2F81CE0C7
S31500003E70C2F8ECC0C2F8EC70C2F8EC60C2F8EC50C4
S31500003E80C2F80401C2F8D010C2F8C430D4F8043124
S31500003E90002BFBDA00200CF049F84FF0804642F682
S31500003EA007031D491B4A194DC4F80001C4F8D06028
S31500003EB0C4F8C410C4F8E02023602B689A01FCD42F
S31500003EC04FF4C054154B164A16491748EC6102F0D8
S31500003ED029FE42F2132315490C4AC5F8C4102B607B
S31500003EE013689B01FCD44FF4C05047F61D41104B9C
S31500003EF0D061C2F8EC10D361F8BD00BFAA090FF378
S31500003F00C90201CDEFABAE0912662BCC00101640EC
S31500003F10048A4400E0000181148E090038CD2D4D3D
S31500003F20E914ECDCE4AE2A8AE309FE9905080800E8
S31500003F3000206000682210B5074B084CC4F8042125
S31500003F40C4F8E030D4F80431002BFBDA00680BF03B
S31500003F50EDFFC4F8000110BD0000018000101640FE
S31500003F60682210B5074B084CC4F80421C4F8E030A9
S31500003F70D4F80431002BFBDA00680BF0D7FFC4F845
S31500003F80000110BD800001800010164000224FF095
S31500003F90805310B50549064CC4F83811C4F8F02012
S31500003FA063610BF0C3FFC4F80C0110BD6A8097F57E
S31500003FB00010164000214FF00112044B0448C3F8CC
S31500003FC03801C3F8F010C3F80C21704700101640F2
S31500003FD06A8097F538B50546FFF7ECFF01230A4CD2
S31500003FE02846A3620BF0A2FF002343F2080143F226
S31500003FF01802E06361616261C4F8D031C4F8D0315F
S315000040002368002BFCDB38BD0010164038B505468A
S31500004010FFF7D0FF01230B4C2846C4F880300BF085
S3150000402085FF002343F2080143F21802C4F88C000E
S3150000403061616261C4F8D031C4F8D0312368002BC5
S31500004040FCDB38BD0010164038B50D460BF06EFF90
S315000040500346064C284663610BF068FF0023606147
S31500004060C4F8D031C4F8D03138BD00BF00101640B6
S315000040702DE9F04FB64B06460D461446B549B64AED
S31500004080B64883B002F04EFD40F26131B44AB54BFA
S31500004090C2F80411C2F8A430D2F80431002BFBDABE
S315000040A051213368AE4FC2F800317368C2F800314F
S315000040B0B368C2F80031F368C2F80031AA4BC2F8FF
S315000040C00411C2F8A430D7F80431002BFBDA002023
S315000040D00BF02CFFC7F8000102F0AAFD5222A34BF9
S315000040E09F4EC7F80421C7F8C430D6F80431002B18
S315000040F0FBDA00200BF01AFF48F207239C4A984986
S31500004100C6F80001C6F8E02033600B689801FCD4BD
S315000041104FF4C05040F20F23914AC8610B601368F8
S315000041209901FCD44FF4C05743F2E0405821914B1B
S315000041308B4ED761C2F8EC00C2F80411C2F8E03029
S31500004140D6F80431002BFBDAFF200BF0EFFE074612
S31500004150894B8A4A8A498B48C6F8007102F010FDDD
S31500004160FFF7F6FC43F2E4415822824BDFF8F08178
S31500004170C6F8EC10C6F80421C6F8E030D8F80431C9
S31500004180002BFBDAFE200BF0D1FE06467E4B7F4A63
S315000041907F498048C8F8006102F0F2FCFFF71AFE7A
S315000041A07D4B7E4A7E497F4802F0BCFC52227E4B04
S315000041B06B4FC8F80421C8F8C430D7F80431002B77
S315000041C0FBDA00200BF0B2FE5222674B644EC7F8B2
S315000041D00001C7F80421C7F8C430D6F80431002B13
S315000041E0FBDA00200BF0A2FEC6F8000102F0DEFBAF
S315000041F000274FF4C00347F60142C6F8EC20F361EE
S31500004200C6F8D071F369B3F1807FC0F0DB80F36943
S3150000421003F07F43B3F1206F00F0FC81F36903F0F4
S315000042207F43B3F1306F00F05E81F36903F07F43A3
S31500004230B3F1406F00F0A482F36903F07F43B3F15A
S31500004240506F00F0A383F36903F07F43B3F1905FEF
S3150000425000F0F7834FF00C094FF0080A4FF0040BFB
S3150000426010234E465746D846019500934F4B504A69
S315000042705049514802F056FC522140F68443384AD0
S31500004280C2F80411C2F8C430D2F80431002BFBDAAC
S3150000429000200BF04BFE4FF0804E48F6C51C42F254
S315000042A013232F49C1F80001C1F8D0E0C1F8C4C0FA
S315000042B00B600B689801FCD44FF4C053CB6140F2FD
S315000042C01223274A4B6053685900FCD540F26131EE
S315000042D044F6A513D2F8000144F80800D2F800010C
S315000042E0E051D2F80001A051D2F80001009EA05181
S315000042F0C2F80411C2F8A430194AD2F80431002BCE
S31500004300FBDA019B2D481B68C2F8003155F80B30CB
S31500004310C2F8003141F2131355F80A10C2F8001121
S3150000432055F809400E49C2F80041C2F8A4001360CE
S315000043300B689B01FCD44FF4C05047F61C42204B3F
S31500004340C861C1F8EC20CB6103B0BDE8F08F00BFB7
S315000043507EF3909C9E4BF0B19BFF549480C21FF35A
S31500004360001016400508040004080500840C00012E
S3150000437000000180A003018059E93B383F395A2FDC
S31500004380BFA16AFA84B147AB3D67D372F12D228390
S31500004390FCBB7002EAD3798596AC38D14C39F14131
S315000043A0FA719ECD19FEB409040804006C0E5B81F7
S315000043B0DCE09F2352F24AD26D1C37D3450C9000A5
S315000043C000206000754B764A7649774802F0AAFBD2
S315000043D0B123764A4FF080413260C6F80431744BFF
S315000043E0744AC6F8A4304FF44243C6F8D010C6F853
S315000043F0C420714A7360D2F80431002BFBDA2B68B3
S315000044006E4FC2F800316B68C2F80031AB68C2F873
S315000044100031EB68C2F800313968082900F0A5833D
S31500004420204629464FF0140C0026634BD3F804218E
S31500004430002AFBDA0A6906F1040EC3F800214A696C
S31500004440C3F800218A69C3F80021CA69C3F80021AC
S315000044505A685200FCD5D3F800210CF110084260CE
S31500004460D3F8002110318260D3F80021C260D3F85E
S31500004470002140F8102F3A68083A964502D2C44601
S315000044807646D3E708364FEA860909F110030CF1A0
S3150000449004010CF1080009F1040809F1080709F103
S315000044A00C060093444A53685B00FCD5D2F80031F1
S315000044B044F80C30D2F800316350D2F80031235062
S315000044C0D2F8003144F8093002F016FC3C4B3D4A64
S315000044D03D493E4802F054FB05EB0903BA46B14696
S315000044E0C3460193C2E63A4B3A4A3B493B4802F07F
S315000044F019FB43F283191423394A3846B262294616
S31500004500C6F80090F36200F033FD42F283382423AC
S31500004510C6F800803846F362214600F06BFD314A4A
S31500004520314B3249324802F0FDFA1123C6F80090A9
S315000045302020F362294600F01BFD2123C6F80080E7
S315000045402020F362214600F055FD2A4A2A4B2B49CA
S315000045502B4802F0E7FA00F0F5FC2223C6F80080AB
S315000045604020F362214600F045FD264B264A2749A6
S31500004570274802F005FB4FF4C873009305F58073D6
S315000045804FF486794FF4847A4FF4827B4FF4C676E3
S315000045904FF4C4774FF4C278019367E6A20B8EA45A
S315000045A0B12E8470401C4E1035F363D80021008074
S315000045B0A649D000B687E002001016406817002012
S315000045C097C7599A010B6542A6EFE8BF3176A64C0C
S315000045D096B97693866EE533E01DB2BD03AEC00E86
S315000045E001009F007E0B80C579973B4079BB5279CD
S315000045F0530E7504390D35222ACAF1144F1BD825DE
S315000046007F70F9F17775A2450FE331AAA2ECC3CE0C
S3150000461023D0DA03B34BB44AB449B54802F082FA60
S3150000462043F283121423B3493846B16232602946F5
S31500004630F36200F09DFC242742F2833CAE48AF496A
S3150000464040F28223C6F800C0F762C6F8D000C6F86A
S31500004650C4102146AA4A736004F1800053685B00C7
S31500004660FCD5D2F800314B60D2F800318B60D2F81D
S315000046700031CB60D2F8003141F8103F8142EDD1D4
S315000046809F4E33689F01FCD44FF4C0579D4B9E4A02
S315000046909E499F48F76102F045FA40F261319D4B11
S315000046A0974AC6F80411C6F8A430D2F80431002B94
S315000046B0FBDA4FF0804142F21313D5F88000C2F8BE
S315000046C00001D5F88400C2F80001D5F88800C2F8C8
S315000046D00001D5F88C00C2F80001C2F8D0108E494E
S315000046E0C2F8C410864913600B689801FCD44FF4D5
S315000046F0C05040F21223824AC8614B605368590089
S31500004700FCD5D2F800317E4EC4F88430D2F80031A0
S31500004710C4F88830D2F80031C4F88C30D2F80031B1
S31500004720C4F89030D6F8C8305A06FBD47B4B7C4A86
S315000047307C497D4802F0F6F900F004FC42F283322F
S31500004740222332602420F362214600F053FC774B8B
S31500004750774A7849784802F013FA4FF49073009339
S3150000476005F190034FF09C094FF0980A4FF0940B17
S315000047704FF48E764FF48C774FF48A78019375E573
S315000047806E4B6F4A6F49704802F0CCF914236F4A9A
S315000047906F493846B16232602946F36200F06AFC1E
S315000047A024226C4940F2022331602146F2626A4AB1
S315000047B004F58070C6F8D020504AC6F8C420504A86
S315000047C0736053685B00FCD5D2F800314B60D2F8B9
S315000047D000318B60D2F80031CB60D2F8003141F85D
S315000047E0103F8842EDD1464E33689F01FCD44FF40A
S315000047F0C0575A4B5A4A5B495B48F76102F092F937
S3150000480040F26131434B3E4AC6F80411C6F8A43063
S31500004810D2F80431002BFBDA4FF0804142F2131339
S31500004820D5F80001C2F80001D5F80401C2F800016C
S31500004830D5F80801C2F80001D5F80C01C2F800014C
S31500004840C2F8D0103449C2F8C4102D4913600B6861
S315000048509E01FCD44FF4C05040F21223284AC8618E
S315000048604B6053685800FCD5D2F80031244EC4F88A
S315000048700431D2F80031C4F80831D2F80031C4F856
S315000048800C31D2F80031C4F81031D6F8C8305906C8
S31500004890FBD4364B364A3749374802F043F900F025
S315000048A051FB22232B4A442032602146F36200F05A
S315000048B025FC324B324A3349334802F061F94FF452
S315000048C00873009305F588734FF48E794FF48C7A4C
S315000048D04FF48A7B4FF407764FF406774FF405784A
S315000048E00193C3E420B0E841F7217ADCBA23289388
S315000048F0FC0093C301009F00000700408788E00288
S31500004900001016403DB3E1654A5CDBDAFC2DEDFE96
S315000049108A8EFE4EA549D0008588E0009801B9230D
S3150000492005DE0D4A8FC76C3895CE93A35AA504466B
S315000049309C1158A0587C509ABE408EB764AE085D54
S31500004940F2BD53A2FDEC74CC83F3B84003310100F1
S315000049500100BF0003230100000F0040BDE39CA03F
S315000049600AA118DF8E9EA028000256D5A4A43F7681
S315000049703D9418A6B299A2DDD86456B57A23153AA5
S315000049805A1B56CA86E64126D40C7C197D4B7E4AB4
S315000049907E497F4802F0C6F814237E4ADFF85C920F
S315000049A0B2623846C6F800902946F36200F062FB10
S315000049B02423DFF84C823846C6F800802146F3628D
S315000049C000F09CFB744A754B7549764802F0AAF8CC
S315000049D01023C6F800904020F362294600F04AFBF7
S315000049E02023C6F800804020F362214600F086FBB3
S315000049F06D4A6E4B6E496F4802F094F800F0A2FAC9
S31500004A002223C6F800808020F362214600F076FB60
S31500004A10694B6A4A6A496B4802F0B2F84FF444732C
S31500004A20009305F500734FF403794FF4027A4FF4BF
S31500004A30017B4FF443764FF442774FF4417801936C
S31500004A4014E4614B614A6249624802F06BF8B12393
S31500004A50614A4FF080413260C6F804315F4B604ACC
S31500004A60C6F8A4304FF44243C6F8D010C6F8C420A6
S31500004A705C4A7360D2F80431002BFBDA2B685A4F7C
S31500004A80C2F800316B68C2F80031AB68C2F8003179
S31500004A90EB68C2F800313968082931D0204629462A
S31500004AA04FF0140C00264F4BD3F80421002AFBDAF2
S31500004AB00A6906F1040EC3F800214A69C3F8002109
S31500004AC08A69C3F80021CA69C3F800215A685200EE
S31500004AD0FCD5D3F8002110314260D3F800210CF147
S31500004AE010088260D3F80021C260D3F8002140F894
S31500004AF0102F3A68083A964526D2C4467646D3E73A
S31500004B0020231C2618274FF014084FF010090C20FC
S31500004B104FF0040C0093334A53685B00FCD5D2F87F
S31500004B20003144F80C30D2F800316350D2F800312D
S31500004B302350D2F8003144F8093002F0DDF82B4B4F
S31500004B402B4A2C492C48C5E408364FEA860909F158
S31500004B5010030CF104010CF1080009F1040809F135
S31500004B60080709F10C060093D5E720231C26182711
S31500004B704FF014084FF010090C204FF0040C00936E
S31500004B8090E400BF1366CCC3B6623916C79D3B647A
S31500004B90900798BE0100BF0036027B83D1357CE4C6
S31500004BA04D6A92A63A312B7E1E5252992F1EEFF66F
S31500004BB0E86C11C6E5767BEE0C1A6024AAE9E14C96
S31500004BC0607CF08B1E01BC0BB5938DD70FA8FCB192
S31500004BD0D4D0358FC5E302DB00210080A649D00082
S31500004BE08688E0020010164068170020F35E6B9678
S31500004BF0C2E23977959A6DD785D352000331010009
S31500004C0003230100F8B56E4A6E4B04460D466E4806
S31500004C106E4901F087FF6E4E6E4BC6F8C430D6F86B
S31500004C200431002BFBDA00200BF080F96A4B684F49
S31500004C30C6F80001C6F8C430D7F80431002BFBDAF9
S31500004C4066480BF073F90646654B664A6649C7F82F
S31500004C500061664801F066FF49F220014FF080725C
S31500004C60634B5B4EC7F8EC10C7F8EC20C7F8C430AE
S31500004C70D6F80431002BFBDA00200BF057F942F688
S31500004C8007035C495C4A524FC6F80001C6F8C410D7
S31500004C90C6F8E02033603B689A01FCD44FF4C05656
S31500004CA0564BFE61564A5749574801F03BFF574B52
S31500004CB0474EC7F8A430D6F80431002BFBDA544F20
S31500004CC0544A57F825305449C6F800316B1C57F83A
S31500004CD023305248C6F80031AB1C57F82330C6F8CB
S31500004CE00031EB1C57F82330C6F800314C4B01F06D
S31500004CF019FF40F2BD73364AC6F8A430D2F8043123
S31500004D00002BFBDA2B1D57F823304649C2F8003139
S31500004D106B1D57F82330C2F80031AB1D57F82360DE
S31500004D2041F21313073557F82500C2F80061C2F89F
S31500004D300001C2F8A410264913600B689B01FCD43D
S31500004D404FF4C05040F26132374B214DC861C1F873
S31500004D500421C1F8A430D5F80431002BFBDA22680F
S31500004D60324BC5F800216168314AC5F80011A168C7
S31500004D703048C5F80011E168C5F800112E4901F068
S31500004D80D1FE40F261312D4B114AC5F80411C5F828
S31500004D90A430D2F80431002BFBDA47F61D41206916
S31500004DA0274BC2F800016069C2F80001A069C2F889
S31500004DB00001E069C2F80001C2F8EC10D361F8BD49
S31500004DC0FD617A3B10662E3697789AF023A0A7A34A
S31500004DD0001016400C3A44001C3E0C008AD07401A8
S31500004DE012992DBBA37ADC8C57DD279ACC334488E5
S31500004DF00C0A44001C0E0C00200001816583B1DA08
S31500004E00D772017C4F0CC295A4E863A33D07FB0251
S31500004E104C5401000A1F310BC70D52193FD413C160
S31500004E20C5B3B807450C8000057A0800058F45E232
S31500004E30B79041A409576281E25CA98F057A0900FF
S31500004E4000206000F8B5314A314B3249324801F052
S31500004E5069FE48F640556FF07F4349F240104FF027
S31500004E60807152222D4CC4F8EC50C4F8EC302C4B17
S31500004E70C4F8EC00C4F8EC10C4F80421C4F8C4303B
S31500004E80D4F80431002BFBDA00200BF04FF842F681
S31500004E9013032449244A214DC4F80001C4F8C41060
S31500004EA0C4F8E02023602B689A01FCD44FF4C05468
S31500004EB01E4B1F4A1F492048EC6101F033FE6FF07C
S31500004EC07F4748F6405C49F240164FF0007442F6C0
S31500004ED013031A481449114AC5F8ECC0C5F8EC701A
S31500004EE0C5F8EC60C5F8EC40C5F8C400C5F8E0109C
S31500004EF02B6013689B01FCD44FF4C05047F61D414C
S31500004F000F4BD061C2F8EC10D361F8BD2FF8A28820
S31500004F10C96F40D952BDD8CC69115CAF001016409C
S31500004F200C2A44000D2E080040010481801E07CE85
S31500004F3008F25135299AC11066BF23EF0D2E0900DC
S31500004F4000206000042144F20443084A9161536240
S31500004F5093695905FCD444F60403044953628B69EA
S31500004F60C3F380225B05FAD48A61704700101640AD
S31500004F7030B441F661754FF4E0641C4A1C4B10F1E5
S31500004F80210FC2F80451C2F8B040C2F8A43024D8A8
S31500004F9000F12003041DA34234BF0123082301EBC3
S31500004FA0800C00EB830001EB8001D2F80431002B6A
S31500004FB0FBDADCF800300CF1100CC2F800315CF8BA
S31500004FC00C3C6145C2F800315CF8083CC2F800317F
S31500004FD05CF8043CC2F80031E7D1044A13689B012F
S31500004FE0FCD430BC4FF4C053D36170470010164058
S31500004FF0A7C9D00040F2822310B41B4A1B4C10F103
S31500005000210FC2F8D0401A4CC2F8C440536021D8D0
S3150000501000F12003041DA34234BF0123082301EB42
S31500005020800C00EB830001EB800153685800FCD52F
S31500005030D2F80031CCF80430D2F80031CCF8083080
S31500005040D2F80031CCF80C30D2F800314CF8103FD1
S315000050506145EAD1044A13689B01FCD44FF4C0535E
S315000050605DF8044BD36170470010164000070040FE
S31500005070B787E00030B443F661754FF470641D4A9B
S315000050801D4B10F1410FC2F80451C2F8B040C2F8EE
S31500005090A43025D800F1040C00F14003634534BF69
S315000050A00123102301EB800C00EB830001EB800150
S315000050B0D2F80431002BFBDADCF800300CF1100CCE
S315000050C0C2F800315CF80C3C6145C2F800315CF86E
S315000050D0083CC2F800315CF8043CC2F80031E7D164
S315000050E0044A13689B01FCD430BC4FF4C053D3610F
S315000050F0704700BF00101640A7C9D00040F2022337
S3150000510010B41C4A1C4C10F1410FC2F8D0401B4C85
S31500005110C2F8C440536022D800F1040C00F14003E9
S31500005120634534BF0123102301EB800C00EB8300A1
S3150000513001EB800153685800FCD5D2F80031CCF859
S315000051400430D2F80031CCF80830D2F80031CCF86F
S315000051500C30D2F800314CF8103F6145EAD1054ACF
S3150000516013689B01FCD44FF4C0535DF8044BD36124
S31500005170704700BF00101640000F0040B787E000E0
S315000051802DE9F843B84AB94B04460E46B848B94922
S3150000519001F0C8FC01F04CFD5222B74DB74BC5F8E3
S315000051A00421C5F8C430D5F80431002BFBDA002001
S315000051B00AF0BCFE48F20723B14AAF49C5F8000120
S315000051C0C5F8E0202B600B689801FCD44FF4C05062
S315000051D040F20F23A84AC8610B6013689901FCD4FA
S315000051E04FF4C05743F2E0405821A64BA24DD76179
S315000051F0C2F8EC00C2F80411C2F8E030D5F8043168
S31500005200002BFBDA11200AF091FE07469E4B9F4ABF
S315000052109F49A048C5F8007101F0B2FCFEF798FC62
S3150000522043F2E4415822974BDFF84C82C5F8EC1064
S31500005230C5F80421C5F8E030D8F80431002BFBDAB4
S3150000524011200AF073FE0546934B944A94499548FB
S31500005250C8F8005101F094FCFEF7BCFD924B934A4E
S315000052609349944801F05EFC5222934B824FC8F852
S315000052700421C8F8C430D7F80431002BFBDA00202B
S315000052800AF054FE52228D4B7B4DC7F80001C7F839
S315000052900421C7F8C430D5F80431002BFBDA00200E
S315000052A00AF044FEC5F8000101F080FB00274FF428
S315000052B0C00347F60142C5F8EC20EB61C5F8D07192
S315000052C0EB69B3F1807F6ED3EB6903F07F43B3F1F3
S315000052D0206F00F08881EB6903F07F43B3F1306FF4
S315000052E000F03081EB6903F07F43B3F1406F00F0CB
S315000052F07982EB6903F07F43B3F1506F00F01B83B3
S31500005300EB6903F07F43B3F1905F00F065831024EF
S315000053100C2508274FF00408694B6A4A6A496B480E
S3150000532001F000FC522240F68443DFF84C91C9F8A4
S315000053300421C9F8C430D9F80431002BFBDA002067
S315000053400AF0F4FD4FF0804C48F6C51142F21323E3
S31500005350494AC9F80001C9F8D0C0C9F8C410C9F84B
S31500005360003013689901FCD44FF4C053D36140F266
S3150000537012235360404A53685B00FCD547F61C4134
S31500005380D2F8003146F80830D2F80031F351D2F89D
S3150000539000317351D2F8003133514D4BC2F8EC1045
S315000053A0D361BDE8F8834B4B4B4A4C494C4801F05E
S315000053B0B9FBB12240F686034A494FF08040296086
S315000053C0C5F80421C5F8A4304FF4424346492A4A99
S315000053D0C5F8D000C5F8C4106B60D2F80431002BB4
S315000053E0FBDA2368414DC2F800316368C2F8003128
S315000053F0A368C2F80031E368C2F80031D5F800C0EE
S31500005400BCF1040F00F0DA8331464FF0140C002093
S31500005410194BD3F80421002AFBDA2269071DC3F8C9
S3150000542000216269C3F80021A269C3F80021E2697C
S31500005430C3F800215A685200FCD5D3F800210CF1BC
S31500005440100E4A60D3F8002110348A60D3F8002188
S31500005450CA60D3F8002141F8102F2A68043A97420F
S3150000546046D2F4463846D4E757FA307DEE85F8DD65
S31500005470430FA2233B011EB300101640840C00010B
S3150000548000000180A003018074AAEF55ED9FEDABEB
S31500005490CDB4B4A02EF6C8AB4DB9627D33B9104475
S315000054A0B7F4A8016F83DA7951B62A5BA4DC6FD60C
S315000054B0C3F5785ED1FDF7FE040804000408050074
S315000054C06C0E5B81DCE09F2352F24AD26D1C37D30F
S315000054D00020600016AC2C9D0A7D65F23FCEEDFDE6
S315000054E0C7B2313B00210080B687E0026817002072
